{
  "contractName": "DragonMerging",
  "abi": [
    {
      "anonymous": false,
      "inputs": [
        {
          "indexed": true,
          "internalType": "address",
          "name": "_owner",
          "type": "address"
        },
        {
          "indexed": true,
          "internalType": "address",
          "name": "_approved",
          "type": "address"
        },
        {
          "indexed": true,
          "internalType": "uint256",
          "name": "_tokenId",
          "type": "uint256"
        }
      ],
      "name": "Approval",
      "type": "event"
    },
    {
      "anonymous": false,
      "inputs": [
        {
          "indexed": true,
          "internalType": "address",
          "name": "account",
          "type": "address"
        },
        {
          "indexed": true,
          "internalType": "address",
          "name": "operator",
          "type": "address"
        },
        {
          "indexed": false,
          "internalType": "bool",
          "name": "approved",
          "type": "bool"
        }
      ],
      "name": "ApprovalForAll",
      "type": "event"
    },
    {
      "anonymous": false,
      "inputs": [
        {
          "indexed": false,
          "internalType": "uint256",
          "name": "dragonId",
          "type": "uint256"
        },
        {
          "indexed": false,
          "internalType": "string",
          "name": "name",
          "type": "string"
        },
        {
          "indexed": false,
          "internalType": "enum DragonFactory.Rarity",
          "name": "rarity",
          "type": "uint8"
        },
        {
          "indexed": false,
          "internalType": "enum DragonFactory.Class",
          "name": "class",
          "type": "uint8"
        },
        {
          "indexed": false,
          "internalType": "uint256",
          "name": "accel",
          "type": "uint256"
        },
        {
          "indexed": false,
          "internalType": "uint256",
          "name": "endu",
          "type": "uint256"
        },
        {
          "indexed": false,
          "internalType": "uint256",
          "name": "hp",
          "type": "uint256"
        },
        {
          "indexed": false,
          "internalType": "uint256",
          "name": "recov",
          "type": "uint256"
        },
        {
          "indexed": false,
          "internalType": "uint256",
          "name": "topSpeed",
          "type": "uint256"
        },
        {
          "indexed": false,
          "internalType": "uint256",
          "name": "weight",
          "type": "uint256"
        }
      ],
      "name": "NewDragon",
      "type": "event"
    },
    {
      "anonymous": false,
      "inputs": [
        {
          "indexed": true,
          "internalType": "address",
          "name": "previousOwner",
          "type": "address"
        },
        {
          "indexed": true,
          "internalType": "address",
          "name": "newOwner",
          "type": "address"
        }
      ],
      "name": "OwnershipTransferred",
      "type": "event"
    },
    {
      "anonymous": false,
      "inputs": [
        {
          "indexed": false,
          "internalType": "address",
          "name": "account",
          "type": "address"
        }
      ],
      "name": "Paused",
      "type": "event"
    },
    {
      "anonymous": false,
      "inputs": [
        {
          "indexed": true,
          "internalType": "address",
          "name": "_from",
          "type": "address"
        },
        {
          "indexed": true,
          "internalType": "address",
          "name": "_to",
          "type": "address"
        },
        {
          "indexed": true,
          "internalType": "uint256",
          "name": "_tokenId",
          "type": "uint256"
        }
      ],
      "name": "Transfer",
      "type": "event"
    },
    {
      "anonymous": false,
      "inputs": [
        {
          "indexed": true,
          "internalType": "address",
          "name": "operator",
          "type": "address"
        },
        {
          "indexed": true,
          "internalType": "address",
          "name": "from",
          "type": "address"
        },
        {
          "indexed": true,
          "internalType": "address",
          "name": "to",
          "type": "address"
        },
        {
          "indexed": false,
          "internalType": "uint256[]",
          "name": "ids",
          "type": "uint256[]"
        },
        {
          "indexed": false,
          "internalType": "uint256[]",
          "name": "values",
          "type": "uint256[]"
        }
      ],
      "name": "TransferBatch",
      "type": "event"
    },
    {
      "anonymous": false,
      "inputs": [
        {
          "indexed": true,
          "internalType": "address",
          "name": "operator",
          "type": "address"
        },
        {
          "indexed": true,
          "internalType": "address",
          "name": "from",
          "type": "address"
        },
        {
          "indexed": true,
          "internalType": "address",
          "name": "to",
          "type": "address"
        },
        {
          "indexed": false,
          "internalType": "uint256",
          "name": "id",
          "type": "uint256"
        },
        {
          "indexed": false,
          "internalType": "uint256",
          "name": "value",
          "type": "uint256"
        }
      ],
      "name": "TransferSingle",
      "type": "event"
    },
    {
      "anonymous": false,
      "inputs": [
        {
          "indexed": false,
          "internalType": "string",
          "name": "value",
          "type": "string"
        },
        {
          "indexed": true,
          "internalType": "uint256",
          "name": "id",
          "type": "uint256"
        }
      ],
      "name": "URI",
      "type": "event"
    },
    {
      "anonymous": false,
      "inputs": [
        {
          "indexed": false,
          "internalType": "address",
          "name": "account",
          "type": "address"
        }
      ],
      "name": "Unpaused",
      "type": "event"
    },
    {
      "inputs": [
        {
          "internalType": "address",
          "name": "_approved",
          "type": "address"
        },
        {
          "internalType": "uint256",
          "name": "_tokenId",
          "type": "uint256"
        }
      ],
      "name": "approve",
      "outputs": [],
      "stateMutability": "payable",
      "type": "function"
    },
    {
      "inputs": [
        {
          "internalType": "address",
          "name": "account",
          "type": "address"
        },
        {
          "internalType": "uint256",
          "name": "id",
          "type": "uint256"
        }
      ],
      "name": "balanceOf",
      "outputs": [
        {
          "internalType": "uint256",
          "name": "",
          "type": "uint256"
        }
      ],
      "stateMutability": "view",
      "type": "function"
    },
    {
      "inputs": [
        {
          "internalType": "address",
          "name": "_owner",
          "type": "address"
        }
      ],
      "name": "balanceOf",
      "outputs": [
        {
          "internalType": "uint256",
          "name": "",
          "type": "uint256"
        }
      ],
      "stateMutability": "view",
      "type": "function"
    },
    {
      "inputs": [
        {
          "internalType": "address[]",
          "name": "accounts",
          "type": "address[]"
        },
        {
          "internalType": "uint256[]",
          "name": "ids",
          "type": "uint256[]"
        }
      ],
      "name": "balanceOfBatch",
      "outputs": [
        {
          "internalType": "uint256[]",
          "name": "",
          "type": "uint256[]"
        }
      ],
      "stateMutability": "view",
      "type": "function"
    },
    {
      "inputs": [
        {
          "internalType": "string",
          "name": "_name",
          "type": "string"
        },
        {
          "internalType": "enum DragonFactory.Rarity",
          "name": "_rarity",
          "type": "uint8"
        },
        {
          "internalType": "enum DragonFactory.Class",
          "name": "_class",
          "type": "uint8"
        },
        {
          "internalType": "uint8",
          "name": "_accel",
          "type": "uint8"
        },
        {
          "internalType": "uint8",
          "name": "_endu",
          "type": "uint8"
        },
        {
          "internalType": "uint8",
          "name": "_hp",
          "type": "uint8"
        },
        {
          "internalType": "uint8",
          "name": "_recov",
          "type": "uint8"
        },
        {
          "internalType": "uint8",
          "name": "_topSpeed",
          "type": "uint8"
        },
        {
          "internalType": "uint8",
          "name": "_weight",
          "type": "uint8"
        },
        {
          "internalType": "address",
          "name": "_owner",
          "type": "address"
        }
      ],
      "name": "createPromoDragon",
      "outputs": [],
      "stateMutability": "nonpayable",
      "type": "function"
    },
    {
      "inputs": [
        {
          "internalType": "uint256",
          "name": "",
          "type": "uint256"
        }
      ],
      "name": "dragonToOwner",
      "outputs": [
        {
          "internalType": "address",
          "name": "",
          "type": "address"
        }
      ],
      "stateMutability": "view",
      "type": "function"
    },
    {
      "inputs": [
        {
          "internalType": "uint256",
          "name": "",
          "type": "uint256"
        }
      ],
      "name": "dragons",
      "outputs": [
        {
          "internalType": "string",
          "name": "name",
          "type": "string"
        },
        {
          "internalType": "enum DragonFactory.Rarity",
          "name": "rarity",
          "type": "uint8"
        },
        {
          "internalType": "enum DragonFactory.Class",
          "name": "class",
          "type": "uint8"
        },
        {
          "internalType": "uint16",
          "name": "winCount",
          "type": "uint16"
        },
        {
          "internalType": "uint16",
          "name": "lossCount",
          "type": "uint16"
        },
        {
          "internalType": "uint8",
          "name": "acceleration",
          "type": "uint8"
        },
        {
          "internalType": "uint8",
          "name": "endurance",
          "type": "uint8"
        },
        {
          "internalType": "uint8",
          "name": "hp",
          "type": "uint8"
        },
        {
          "internalType": "uint8",
          "name": "recovery",
          "type": "uint8"
        },
        {
          "internalType": "uint8",
          "name": "topSpeed",
          "type": "uint8"
        },
        {
          "internalType": "uint8",
          "name": "weight",
          "type": "uint8"
        }
      ],
      "stateMutability": "view",
      "type": "function"
    },
    {
      "inputs": [
        {
          "internalType": "address",
          "name": "account",
          "type": "address"
        },
        {
          "internalType": "address",
          "name": "operator",
          "type": "address"
        }
      ],
      "name": "isApprovedForAll",
      "outputs": [
        {
          "internalType": "bool",
          "name": "",
          "type": "bool"
        }
      ],
      "stateMutability": "view",
      "type": "function"
    },
    {
      "inputs": [
        {
          "internalType": "address",
          "name": "account",
          "type": "address"
        },
        {
          "internalType": "uint256",
          "name": "id",
          "type": "uint256"
        },
        {
          "internalType": "uint256",
          "name": "amount",
          "type": "uint256"
        },
        {
          "internalType": "bytes",
          "name": "data",
          "type": "bytes"
        }
      ],
      "name": "mint",
      "outputs": [],
      "stateMutability": "nonpayable",
      "type": "function"
    },
    {
      "inputs": [
        {
          "internalType": "address",
          "name": "to",
          "type": "address"
        },
        {
          "internalType": "uint256[]",
          "name": "ids",
          "type": "uint256[]"
        },
        {
          "internalType": "uint256[]",
          "name": "amounts",
          "type": "uint256[]"
        },
        {
          "internalType": "bytes",
          "name": "data",
          "type": "bytes"
        }
      ],
      "name": "mintBatch",
      "outputs": [],
      "stateMutability": "nonpayable",
      "type": "function"
    },
    {
      "inputs": [],
      "name": "name",
      "outputs": [
        {
          "internalType": "string",
          "name": "",
          "type": "string"
        }
      ],
      "stateMutability": "view",
      "type": "function"
    },
    {
      "inputs": [],
      "name": "owner",
      "outputs": [
        {
          "internalType": "address",
          "name": "",
          "type": "address"
        }
      ],
      "stateMutability": "view",
      "type": "function"
    },
    {
      "inputs": [
        {
          "internalType": "uint256",
          "name": "_tokenId",
          "type": "uint256"
        }
      ],
      "name": "ownerOf",
      "outputs": [
        {
          "internalType": "address",
          "name": "",
          "type": "address"
        }
      ],
      "stateMutability": "view",
      "type": "function"
    },
    {
      "inputs": [],
      "name": "pause",
      "outputs": [],
      "stateMutability": "nonpayable",
      "type": "function"
    },
    {
      "inputs": [],
      "name": "paused",
      "outputs": [
        {
          "internalType": "bool",
          "name": "",
          "type": "bool"
        }
      ],
      "stateMutability": "view",
      "type": "function"
    },
    {
      "inputs": [],
      "name": "promoCreatedCount",
      "outputs": [
        {
          "internalType": "uint256",
          "name": "",
          "type": "uint256"
        }
      ],
      "stateMutability": "view",
      "type": "function"
    },
    {
      "inputs": [],
      "name": "promoCreationLimit",
      "outputs": [
        {
          "internalType": "uint256",
          "name": "",
          "type": "uint256"
        }
      ],
      "stateMutability": "view",
      "type": "function"
    },
    {
      "inputs": [],
      "name": "renounceOwnership",
      "outputs": [],
      "stateMutability": "nonpayable",
      "type": "function"
    },
    {
      "inputs": [
        {
          "internalType": "address",
          "name": "from",
          "type": "address"
        },
        {
          "internalType": "address",
          "name": "to",
          "type": "address"
        },
        {
          "internalType": "uint256[]",
          "name": "ids",
          "type": "uint256[]"
        },
        {
          "internalType": "uint256[]",
          "name": "amounts",
          "type": "uint256[]"
        },
        {
          "internalType": "bytes",
          "name": "data",
          "type": "bytes"
        }
      ],
      "name": "safeBatchTransferFrom",
      "outputs": [],
      "stateMutability": "nonpayable",
      "type": "function"
    },
    {
      "inputs": [
        {
          "internalType": "address",
          "name": "from",
          "type": "address"
        },
        {
          "internalType": "address",
          "name": "to",
          "type": "address"
        },
        {
          "internalType": "uint256",
          "name": "id",
          "type": "uint256"
        },
        {
          "internalType": "uint256",
          "name": "amount",
          "type": "uint256"
        },
        {
          "internalType": "bytes",
          "name": "data",
          "type": "bytes"
        }
      ],
      "name": "safeTransferFrom",
      "outputs": [],
      "stateMutability": "nonpayable",
      "type": "function"
    },
    {
      "inputs": [
        {
          "internalType": "address",
          "name": "operator",
          "type": "address"
        },
        {
          "internalType": "bool",
          "name": "approved",
          "type": "bool"
        }
      ],
      "name": "setApprovalForAll",
      "outputs": [],
      "stateMutability": "nonpayable",
      "type": "function"
    },
    {
      "inputs": [
        {
          "internalType": "string",
          "name": "newuri",
          "type": "string"
        }
      ],
      "name": "setURI",
      "outputs": [],
      "stateMutability": "nonpayable",
      "type": "function"
    },
    {
      "inputs": [
        {
          "internalType": "bytes4",
          "name": "interfaceId",
          "type": "bytes4"
        }
      ],
      "name": "supportsInterface",
      "outputs": [
        {
          "internalType": "bool",
          "name": "",
          "type": "bool"
        }
      ],
      "stateMutability": "view",
      "type": "function"
    },
    {
      "inputs": [],
      "name": "symbol",
      "outputs": [
        {
          "internalType": "string",
          "name": "",
          "type": "string"
        }
      ],
      "stateMutability": "view",
      "type": "function"
    },
    {
      "inputs": [
        {
          "internalType": "address",
          "name": "_from",
          "type": "address"
        },
        {
          "internalType": "address",
          "name": "_to",
          "type": "address"
        },
        {
          "internalType": "uint256",
          "name": "_tokenId",
          "type": "uint256"
        }
      ],
      "name": "transferFrom",
      "outputs": [],
      "stateMutability": "payable",
      "type": "function"
    },
    {
      "inputs": [
        {
          "internalType": "address",
          "name": "newOwner",
          "type": "address"
        }
      ],
      "name": "transferOwnership",
      "outputs": [],
      "stateMutability": "nonpayable",
      "type": "function"
    },
    {
      "inputs": [],
      "name": "unpause",
      "outputs": [],
      "stateMutability": "nonpayable",
      "type": "function"
    },
    {
      "inputs": [
        {
          "internalType": "uint256",
          "name": "",
          "type": "uint256"
        }
      ],
      "name": "uri",
      "outputs": [
        {
          "internalType": "string",
          "name": "",
          "type": "string"
        }
      ],
      "stateMutability": "view",
      "type": "function"
    },
    {
      "inputs": [
        {
          "internalType": "uint256",
          "name": "_dragonA",
          "type": "uint256"
        },
        {
          "internalType": "uint256",
          "name": "_dragonB_",
          "type": "uint256"
        }
      ],
      "name": "mergeDragons",
      "outputs": [
        {
          "internalType": "uint256",
          "name": "mergedDragon",
          "type": "uint256"
        }
      ],
      "stateMutability": "nonpayable",
      "type": "function"
    }
  ],
  "bytecode": "0x60806040526040518060400160405280600b81526020017f4d657461447261676f6e73000000000000000000000000000000000000000000815250600790805190602001906200005192919062000201565b506040518060400160405280600281526020017f4d44000000000000000000000000000000000000000000000000000000000000815250600890805190602001906200009f92919062000201565b506101f4600a55348015620000b357600080fd5b5060405180602001604052806000815250620000d5816200011760201b60201c565b50620000f6620000ea6200013360201b60201c565b6200013b60201b60201c565b6000600360146101000a81548160ff02191690831515021790555062000316565b80600290805190602001906200012f92919062000201565b5050565b600033905090565b6000600360009054906101000a900473ffffffffffffffffffffffffffffffffffffffff16905081600360006101000a81548173ffffffffffffffffffffffffffffffffffffffff021916908373ffffffffffffffffffffffffffffffffffffffff1602179055508173ffffffffffffffffffffffffffffffffffffffff168173ffffffffffffffffffffffffffffffffffffffff167f8be0079c531659141344cd1fd0a4f28419497f9722a3daafe3b4186f6b6457e060405160405180910390a35050565b8280546200020f90620002e0565b90600052602060002090601f0160209004810192826200023357600085556200027f565b82601f106200024e57805160ff19168380011785556200027f565b828001600101855582156200027f579182015b828111156200027e57825182559160200191906001019062000261565b5b5090506200028e919062000292565b5090565b5b80821115620002ad57600081600090555060010162000293565b5090565b7f4e487b7100000000000000000000000000000000000000000000000000000000600052602260045260246000fd5b60006002820490506001821680620002f957607f821691505b6020821081141562000310576200030f620002b1565b5b50919050565b614b5c80620003266000396000f3fe6080604052600436106101c15760003560e01c80636352211e116100f757806395d89b4111610095578063daf53fc911610064578063daf53fc914610641578063e985e9c51461066a578063f242432a146106a7578063f2fde38b146106d0576101c1565b806395d89b411461057b578063a22cb465146105a6578063b5319335146105cf578063d2a59d69146105fa576101c1565b8063731133e9116100d1578063731133e9146104d35780637b3b0a2f146104fc5780638456cb59146105395780638da5cb5b14610550576101c1565b80636352211e1461044257806370a082311461047f578063715018a6146104bc576101c1565b80631f7fdffa116101645780632eb2c2d61161013e5780632eb2c2d61461039a5780633f4ba83a146103c35780634e1273f4146103da5780635c975abb14610417576101c1565b80631f7fdffa1461031857806323b872dd146103415780632de09f661461035d576101c1565b806305e45546116101a057806305e455461461026957806306fdde0314610294578063095ea7b3146102bf5780630e89341c146102db576101c1565b8062fdd58e146101c657806301ffc9a71461020357806302fe530514610240575b600080fd5b3480156101d257600080fd5b506101ed60048036038101906101e89190612f8e565b6106f9565b6040516101fa9190612fdd565b60405180910390f35b34801561020f57600080fd5b5061022a60048036038101906102259190613050565b6107c2565b6040516102379190613098565b60405180910390f35b34801561024c57600080fd5b50610267600480360381019061026291906131f9565b6108a4565b005b34801561027557600080fd5b5061027e61092c565b60405161028b9190612fdd565b60405180910390f35b3480156102a057600080fd5b506102a9610932565b6040516102b691906132ca565b60405180910390f35b6102d960048036038101906102d49190612f8e565b6109c0565b005b3480156102e757600080fd5b5061030260048036038101906102fd91906132ec565b610ade565b60405161030f91906132ca565b60405180910390f35b34801561032457600080fd5b5061033f600480360381019061033a9190613482565b610b72565b005b61035b6004803603810190610356919061353d565b610c00565b005b34801561036957600080fd5b50610384600480360381019061037f9190613590565b610ce4565b6040516103919190612fdd565b60405180910390f35b3480156103a657600080fd5b506103c160048036038101906103bc91906135d0565b610cec565b005b3480156103cf57600080fd5b506103d8610d8d565b005b3480156103e657600080fd5b5061040160048036038101906103fc9190613762565b610e13565b60405161040e9190613898565b60405180910390f35b34801561042357600080fd5b5061042c610f2c565b6040516104399190613098565b60405180910390f35b34801561044e57600080fd5b50610469600480360381019061046491906132ec565b610f43565b60405161047691906138c9565b60405180910390f35b34801561048b57600080fd5b506104a660048036038101906104a191906138e4565b610f80565b6040516104b39190612fdd565b60405180910390f35b3480156104c857600080fd5b506104d1610fc9565b005b3480156104df57600080fd5b506104fa60048036038101906104f59190613911565b611051565b005b34801561050857600080fd5b50610523600480360381019061051e91906132ec565b6110df565b60405161053091906138c9565b60405180910390f35b34801561054557600080fd5b5061054e611112565b005b34801561055c57600080fd5b50610565611198565b60405161057291906138c9565b60405180910390f35b34801561058757600080fd5b506105906111c2565b60405161059d91906132ca565b60405180910390f35b3480156105b257600080fd5b506105cd60048036038101906105c891906139c0565b611250565b005b3480156105db57600080fd5b506105e4611266565b6040516105f19190612fdd565b60405180910390f35b34801561060657600080fd5b50610621600480360381019061061c91906132ec565b61126c565b6040516106389b9a99989796959493929190613af8565b60405180910390f35b34801561064d57600080fd5b5061066860048036038101906106639190613c20565b6113e2565b005b34801561067657600080fd5b50610691600480360381019061068c9190613d1b565b6114dd565b60405161069e9190613098565b60405180910390f35b3480156106b357600080fd5b506106ce60048036038101906106c99190613d5b565b611571565b005b3480156106dc57600080fd5b506106f760048036038101906106f291906138e4565b611612565b005b60008073ffffffffffffffffffffffffffffffffffffffff168373ffffffffffffffffffffffffffffffffffffffff16141561076a576040517f08c379a000000000000000000000000000000000000000000000000000000000815260040161076190613e64565b60405180910390fd5b60008083815260200190815260200160002060008473ffffffffffffffffffffffffffffffffffffffff1673ffffffffffffffffffffffffffffffffffffffff16815260200190815260200160002054905092915050565b60007fd9b67a26000000000000000000000000000000000000000000000000000000007bffffffffffffffffffffffffffffffffffffffffffffffffffffffff1916827bffffffffffffffffffffffffffffffffffffffffffffffffffffffff1916148061088d57507f0e89341c000000000000000000000000000000000000000000000000000000007bffffffffffffffffffffffffffffffffffffffffffffffffffffffff1916827bffffffffffffffffffffffffffffffffffffffffffffffffffffffff1916145b8061089d575061089c8261170a565b5b9050919050565b6108ac611774565b73ffffffffffffffffffffffffffffffffffffffff166108ca611198565b73ffffffffffffffffffffffffffffffffffffffff1614610920576040517f08c379a000000000000000000000000000000000000000000000000000000000815260040161091790613ed0565b60405180910390fd5b6109298161177c565b50565b600b5481565b6007805461093f90613f1f565b80601f016020809104026020016040519081016040528092919081815260200182805461096b90613f1f565b80156109b85780601f1061098d576101008083540402835291602001916109b8565b820191906000526020600020905b81548152906001019060200180831161099b57829003601f168201915b505050505081565b806005600082815260200190815260200160002060009054906101000a900473ffffffffffffffffffffffffffffffffffffffff1673ffffffffffffffffffffffffffffffffffffffff163373ffffffffffffffffffffffffffffffffffffffff1614610a2c57600080fd5b826009600084815260200190815260200160002060006101000a81548173ffffffffffffffffffffffffffffffffffffffff021916908373ffffffffffffffffffffffffffffffffffffffff160217905550818373ffffffffffffffffffffffffffffffffffffffff163373ffffffffffffffffffffffffffffffffffffffff167f8c5be1e5ebec7d5bd14f71427d1e84f3dd0314c0f7b2291e5b200ac8c7c3b92560405160405180910390a4505050565b606060028054610aed90613f1f565b80601f0160208091040260200160405190810160405280929190818152602001828054610b1990613f1f565b8015610b665780601f10610b3b57610100808354040283529160200191610b66565b820191906000526020600020905b815481529060010190602001808311610b4957829003601f168201915b50505050509050919050565b610b7a611774565b73ffffffffffffffffffffffffffffffffffffffff16610b98611198565b73ffffffffffffffffffffffffffffffffffffffff1614610bee576040517f08c379a0000000000000000000000000000000000000000000000000000000008152600401610be590613ed0565b60405180910390fd5b610bfa84848484611796565b50505050565b3373ffffffffffffffffffffffffffffffffffffffff166005600083815260200190815260200160002060009054906101000a900473ffffffffffffffffffffffffffffffffffffffff1673ffffffffffffffffffffffffffffffffffffffff161480610ccb57503373ffffffffffffffffffffffffffffffffffffffff166009600083815260200190815260200160002060009054906101000a900473ffffffffffffffffffffffffffffffffffffffff1673ffffffffffffffffffffffffffffffffffffffff16145b610cd457600080fd5b610cdf8383836119b4565b505050565b600092915050565b610cf4611774565b73ffffffffffffffffffffffffffffffffffffffff168573ffffffffffffffffffffffffffffffffffffffff161480610d3a5750610d3985610d34611774565b6114dd565b5b610d79576040517f08c379a0000000000000000000000000000000000000000000000000000000008152600401610d7090613fc3565b60405180910390fd5b610d868585858585611b94565b5050505050565b610d95611774565b73ffffffffffffffffffffffffffffffffffffffff16610db3611198565b73ffffffffffffffffffffffffffffffffffffffff1614610e09576040517f08c379a0000000000000000000000000000000000000000000000000000000008152600401610e0090613ed0565b60405180910390fd5b610e11611ea8565b565b60608151835114610e59576040517f08c379a0000000000000000000000000000000000000000000000000000000008152600401610e5090614055565b60405180910390fd5b6000835167ffffffffffffffff811115610e7657610e756130ce565b5b604051908082528060200260200182016040528015610ea45781602001602082028036833780820191505090505b50905060005b8451811015610f2157610ef1858281518110610ec957610ec8614075565b5b6020026020010151858381518110610ee457610ee3614075565b5b60200260200101516106f9565b828281518110610f0457610f03614075565b5b60200260200101818152505080610f1a906140d3565b9050610eaa565b508091505092915050565b6000600360149054906101000a900460ff16905090565b60006005600083815260200190815260200160002060009054906101000a900473ffffffffffffffffffffffffffffffffffffffff169050919050565b6000600660008373ffffffffffffffffffffffffffffffffffffffff1673ffffffffffffffffffffffffffffffffffffffff168152602001908152602001600020549050919050565b610fd1611774565b73ffffffffffffffffffffffffffffffffffffffff16610fef611198565b73ffffffffffffffffffffffffffffffffffffffff1614611045576040517f08c379a000000000000000000000000000000000000000000000000000000000815260040161103c90613ed0565b60405180910390fd5b61104f6000611f4a565b565b611059611774565b73ffffffffffffffffffffffffffffffffffffffff16611077611198565b73ffffffffffffffffffffffffffffffffffffffff16146110cd576040517f08c379a00000000000000000000000000000000000000000000000000000000081526004016110c490613ed0565b60405180910390fd5b6110d984848484612010565b50505050565b60056020528060005260406000206000915054906101000a900473ffffffffffffffffffffffffffffffffffffffff1681565b61111a611774565b73ffffffffffffffffffffffffffffffffffffffff16611138611198565b73ffffffffffffffffffffffffffffffffffffffff161461118e576040517f08c379a000000000000000000000000000000000000000000000000000000000815260040161118590613ed0565b60405180910390fd5b6111966121a6565b565b6000600360009054906101000a900473ffffffffffffffffffffffffffffffffffffffff16905090565b600880546111cf90613f1f565b80601f01602080910402602001604051908101604052809291908181526020018280546111fb90613f1f565b80156112485780601f1061121d57610100808354040283529160200191611248565b820191906000526020600020905b81548152906001019060200180831161122b57829003601f168201915b505050505081565b61126261125b611774565b8383612249565b5050565b600a5481565b6004818154811061127c57600080fd5b906000526020600020906002020160009150905080600001805461129f90613f1f565b80601f01602080910402602001604051908101604052809291908181526020018280546112cb90613f1f565b80156113185780601f106112ed57610100808354040283529160200191611318565b820191906000526020600020905b8154815290600101906020018083116112fb57829003601f168201915b5050505050908060010160009054906101000a900460ff16908060010160019054906101000a900460ff16908060010160029054906101000a900461ffff16908060010160049054906101000a900461ffff16908060010160069054906101000a900460ff16908060010160079054906101000a900460ff16908060010160089054906101000a900460ff16908060010160099054906101000a900460ff169080600101600a9054906101000a900460ff169080600101600b9054906101000a900460ff1690508b565b6113ea611774565b73ffffffffffffffffffffffffffffffffffffffff16611408611198565b73ffffffffffffffffffffffffffffffffffffffff161461145e576040517f08c379a000000000000000000000000000000000000000000000000000000000815260040161145590613ed0565b60405180910390fd5b600073ffffffffffffffffffffffffffffffffffffffff168173ffffffffffffffffffffffffffffffffffffffff161415611497573390505b600a54600b54106114a757600080fd5b600b60008154809291906114ba906140d3565b91905055506114d18a8a8a8a8a8a8a8a8a8a6123b6565b50505050505050505050565b6000600160008473ffffffffffffffffffffffffffffffffffffffff1673ffffffffffffffffffffffffffffffffffffffff16815260200190815260200160002060008373ffffffffffffffffffffffffffffffffffffffff1673ffffffffffffffffffffffffffffffffffffffff16815260200190815260200160002060009054906101000a900460ff16905092915050565b611579611774565b73ffffffffffffffffffffffffffffffffffffffff168573ffffffffffffffffffffffffffffffffffffffff1614806115bf57506115be856115b9611774565b6114dd565b5b6115fe576040517f08c379a00000000000000000000000000000000000000000000000000000000081526004016115f59061418e565b60405180910390fd5b61160b858585858561270e565b5050505050565b61161a611774565b73ffffffffffffffffffffffffffffffffffffffff16611638611198565b73ffffffffffffffffffffffffffffffffffffffff161461168e576040517f08c379a000000000000000000000000000000000000000000000000000000000815260040161168590613ed0565b60405180910390fd5b600073ffffffffffffffffffffffffffffffffffffffff168173ffffffffffffffffffffffffffffffffffffffff1614156116fe576040517f08c379a00000000000000000000000000000000000000000000000000000000081526004016116f590614220565b60405180910390fd5b61170781611f4a565b50565b60007f01ffc9a7000000000000000000000000000000000000000000000000000000007bffffffffffffffffffffffffffffffffffffffffffffffffffffffff1916827bffffffffffffffffffffffffffffffffffffffffffffffffffffffff1916149050919050565b600033905090565b8060029080519060200190611792929190612e43565b5050565b600073ffffffffffffffffffffffffffffffffffffffff168473ffffffffffffffffffffffffffffffffffffffff161415611806576040517f08c379a00000000000000000000000000000000000000000000000000000000081526004016117fd906142b2565b60405180910390fd5b815183511461184a576040517f08c379a000000000000000000000000000000000000000000000000000000000815260040161184190614344565b60405180910390fd5b6000611854611774565b905061186581600087878787612990565b60005b845181101561191e5783818151811061188457611883614075565b5b60200260200101516000808784815181106118a2576118a1614075565b5b6020026020010151815260200190815260200160002060008873ffffffffffffffffffffffffffffffffffffffff1673ffffffffffffffffffffffffffffffffffffffff16815260200190815260200160002060008282546119049190614364565b925050819055508080611916906140d3565b915050611868565b508473ffffffffffffffffffffffffffffffffffffffff16600073ffffffffffffffffffffffffffffffffffffffff168273ffffffffffffffffffffffffffffffffffffffff167f4a39dc06d4c0dbc64b70af90fd698a233a518aa5d07e595d983b8c0526c8f7fb87876040516119969291906143ba565b60405180910390a46119ad816000878787876129ee565b5050505050565b600660008373ffffffffffffffffffffffffffffffffffffffff1673ffffffffffffffffffffffffffffffffffffffff1681526020019081526020016000206000815480929190611a04906140d3565b91905055600660008473ffffffffffffffffffffffffffffffffffffffff1673ffffffffffffffffffffffffffffffffffffffff16815260200190815260200160002081905550600660003373ffffffffffffffffffffffffffffffffffffffff1673ffffffffffffffffffffffffffffffffffffffff1681526020019081526020016000206000815480929190611a9b906143f1565b91905055600660003373ffffffffffffffffffffffffffffffffffffffff1673ffffffffffffffffffffffffffffffffffffffff16815260200190815260200160002081905550816005600083815260200190815260200160002060006101000a81548173ffffffffffffffffffffffffffffffffffffffff021916908373ffffffffffffffffffffffffffffffffffffffff160217905550808273ffffffffffffffffffffffffffffffffffffffff168473ffffffffffffffffffffffffffffffffffffffff167fddf252ad1be2c89b69c2b068fc378daa952ba7f163c4a11628f55a4df523b3ef60405160405180910390a4505050565b8151835114611bd8576040517f08c379a0000000000000000000000000000000000000000000000000000000008152600401611bcf90614344565b60405180910390fd5b600073ffffffffffffffffffffffffffffffffffffffff168473ffffffffffffffffffffffffffffffffffffffff161415611c48576040517f08c379a0000000000000000000000000000000000000000000000000000000008152600401611c3f9061448d565b60405180910390fd5b6000611c52611774565b9050611c62818787878787612990565b60005b8451811015611e13576000858281518110611c8357611c82614075565b5b602002602001015190506000858381518110611ca257611ca1614075565b5b60200260200101519050600080600084815260200190815260200160002060008b73ffffffffffffffffffffffffffffffffffffffff1673ffffffffffffffffffffffffffffffffffffffff16815260200190815260200160002054905081811015611d43576040517f08c379a0000000000000000000000000000000000000000000000000000000008152600401611d3a9061451f565b60405180910390fd5b81810360008085815260200190815260200160002060008c73ffffffffffffffffffffffffffffffffffffffff1673ffffffffffffffffffffffffffffffffffffffff168152602001908152602001600020819055508160008085815260200190815260200160002060008b73ffffffffffffffffffffffffffffffffffffffff1673ffffffffffffffffffffffffffffffffffffffff1681526020019081526020016000206000828254611df89190614364565b9250508190555050505080611e0c906140d3565b9050611c65565b508473ffffffffffffffffffffffffffffffffffffffff168673ffffffffffffffffffffffffffffffffffffffff168273ffffffffffffffffffffffffffffffffffffffff167f4a39dc06d4c0dbc64b70af90fd698a233a518aa5d07e595d983b8c0526c8f7fb8787604051611e8a9291906143ba565b60405180910390a4611ea08187878787876129ee565b505050505050565b611eb0610f2c565b611eef576040517f08c379a0000000000000000000000000000000000000000000000000000000008152600401611ee69061458b565b60405180910390fd5b6000600360146101000a81548160ff0219169083151502179055507f5db9ee0a495bf2e6ff9c91a7834c1ba4fdd244a5e8aa4e537bd38aeae4b073aa611f33611774565b604051611f4091906138c9565b60405180910390a1565b6000600360009054906101000a900473ffffffffffffffffffffffffffffffffffffffff16905081600360006101000a81548173ffffffffffffffffffffffffffffffffffffffff021916908373ffffffffffffffffffffffffffffffffffffffff1602179055508173ffffffffffffffffffffffffffffffffffffffff168173ffffffffffffffffffffffffffffffffffffffff167f8be0079c531659141344cd1fd0a4f28419497f9722a3daafe3b4186f6b6457e060405160405180910390a35050565b600073ffffffffffffffffffffffffffffffffffffffff168473ffffffffffffffffffffffffffffffffffffffff161415612080576040517f08c379a0000000000000000000000000000000000000000000000000000000008152600401612077906142b2565b60405180910390fd5b600061208a611774565b90506120ab8160008761209c88612bc6565b6120a588612bc6565b87612990565b8260008086815260200190815260200160002060008773ffffffffffffffffffffffffffffffffffffffff1673ffffffffffffffffffffffffffffffffffffffff168152602001908152602001600020600082825461210a9190614364565b925050819055508473ffffffffffffffffffffffffffffffffffffffff16600073ffffffffffffffffffffffffffffffffffffffff168273ffffffffffffffffffffffffffffffffffffffff167fc3d58168c5ae7397731d063d5bbf3d657854427343f4c083240f7aacaa2d0f6287876040516121889291906145ab565b60405180910390a461219f81600087878787612c40565b5050505050565b6121ae610f2c565b156121ee576040517f08c379a00000000000000000000000000000000000000000000000000000000081526004016121e590614620565b60405180910390fd5b6001600360146101000a81548160ff0219169083151502179055507f62e78cea01bee320cd4e420270b5ea74000d11b0c9f74754ebdbfc544b05a258612232611774565b60405161223f91906138c9565b60405180910390a1565b8173ffffffffffffffffffffffffffffffffffffffff168373ffffffffffffffffffffffffffffffffffffffff1614156122b8576040517f08c379a00000000000000000000000000000000000000000000000000000000081526004016122af906146b2565b60405180910390fd5b80600160008573ffffffffffffffffffffffffffffffffffffffff1673ffffffffffffffffffffffffffffffffffffffff16815260200190815260200160002060008473ffffffffffffffffffffffffffffffffffffffff1673ffffffffffffffffffffffffffffffffffffffff16815260200190815260200160002060006101000a81548160ff0219169083151502179055508173ffffffffffffffffffffffffffffffffffffffff168373ffffffffffffffffffffffffffffffffffffffff167f17307eab39ab6107e8899845ad3d59bd9653f200f220920489ca2b5937696c31836040516123a99190613098565b60405180910390a3505050565b60046040518061016001604052808c81526020018b60048111156123dd576123dc613a00565b5b81526020018a60048111156123f5576123f4613a00565b5b8152602001600061ffff168152602001600061ffff1681526020018960ff1681526020018860ff1681526020018760ff1681526020018660ff1681526020018560ff1681526020018460ff1681525090806001815401808255809150506001900390600052602060002090600202016000909190919091506000820151816000019080519060200190612489929190612e43565b5060208201518160010160006101000a81548160ff021916908360048111156124b5576124b4613a00565b5b021790555060408201518160010160016101000a81548160ff021916908360048111156124e5576124e4613a00565b5b021790555060608201518160010160026101000a81548161ffff021916908361ffff16021790555060808201518160010160046101000a81548161ffff021916908361ffff16021790555060a08201518160010160066101000a81548160ff021916908360ff16021790555060c08201518160010160076101000a81548160ff021916908360ff16021790555060e08201518160010160086101000a81548160ff021916908360ff1602179055506101008201518160010160096101000a81548160ff021916908360ff16021790555061012082015181600101600a6101000a81548160ff021916908360ff16021790555061014082015181600101600b6101000a81548160ff021916908360ff16021790555050506000600160048054905061260f91906146d2565b9050816005600083815260200190815260200160002060006101000a81548173ffffffffffffffffffffffffffffffffffffffff021916908373ffffffffffffffffffffffffffffffffffffffff160217905550600660008373ffffffffffffffffffffffffffffffffffffffff1673ffffffffffffffffffffffffffffffffffffffff16815260200190815260200160002060008154809291906126b3906140d3565b91905055507f41969a87848c7453ff5b5c86cc30dedd012ee08931f33c222ad1683fe9673f74818c8c8c8c8c8c8c8c8c6040516126f99a99989796959493929190614741565b60405180910390a15050505050505050505050565b600073ffffffffffffffffffffffffffffffffffffffff168473ffffffffffffffffffffffffffffffffffffffff16141561277e576040517f08c379a00000000000000000000000000000000000000000000000000000000081526004016127759061448d565b60405180910390fd5b6000612788611774565b90506127a881878761279988612bc6565b6127a288612bc6565b87612990565b600080600086815260200190815260200160002060008873ffffffffffffffffffffffffffffffffffffffff1673ffffffffffffffffffffffffffffffffffffffff1681526020019081526020016000205490508381101561283f576040517f08c379a00000000000000000000000000000000000000000000000000000000081526004016128369061451f565b60405180910390fd5b83810360008087815260200190815260200160002060008973ffffffffffffffffffffffffffffffffffffffff1673ffffffffffffffffffffffffffffffffffffffff168152602001908152602001600020819055508360008087815260200190815260200160002060008873ffffffffffffffffffffffffffffffffffffffff1673ffffffffffffffffffffffffffffffffffffffff16815260200190815260200160002060008282546128f49190614364565b925050819055508573ffffffffffffffffffffffffffffffffffffffff168773ffffffffffffffffffffffffffffffffffffffff168373ffffffffffffffffffffffffffffffffffffffff167fc3d58168c5ae7397731d063d5bbf3d657854427343f4c083240f7aacaa2d0f6288886040516129719291906145ab565b60405180910390a4612987828888888888612c40565b50505050505050565b612998610f2c565b156129d8576040517f08c379a00000000000000000000000000000000000000000000000000000000081526004016129cf90614620565b60405180910390fd5b6129e6868686868686612e18565b505050505050565b612a0d8473ffffffffffffffffffffffffffffffffffffffff16612e20565b15612bbe578373ffffffffffffffffffffffffffffffffffffffff1663bc197c8187878686866040518663ffffffff1660e01b8152600401612a53959493929190614839565b6020604051808303816000875af1925050508015612a8f57506040513d601f19601f82011682018060405250810190612a8c91906148b6565b60015b612b3557612a9b6148f0565b806308c379a01415612af85750612ab0614912565b80612abb5750612afa565b806040517f08c379a0000000000000000000000000000000000000000000000000000000008152600401612aef91906132ca565b60405180910390fd5b505b6040517f08c379a0000000000000000000000000000000000000000000000000000000008152600401612b2c90614a1a565b60405180910390fd5b63bc197c8160e01b7bffffffffffffffffffffffffffffffffffffffffffffffffffffffff1916817bffffffffffffffffffffffffffffffffffffffffffffffffffffffff191614612bbc576040517f08c379a0000000000000000000000000000000000000000000000000000000008152600401612bb390614aac565b60405180910390fd5b505b505050505050565b60606000600167ffffffffffffffff811115612be557612be46130ce565b5b604051908082528060200260200182016040528015612c135781602001602082028036833780820191505090505b5090508281600081518110612c2b57612c2a614075565b5b60200260200101818152505080915050919050565b612c5f8473ffffffffffffffffffffffffffffffffffffffff16612e20565b15612e10578373ffffffffffffffffffffffffffffffffffffffff1663f23a6e6187878686866040518663ffffffff1660e01b8152600401612ca5959493929190614acc565b6020604051808303816000875af1925050508015612ce157506040513d601f19601f82011682018060405250810190612cde91906148b6565b60015b612d8757612ced6148f0565b806308c379a01415612d4a5750612d02614912565b80612d0d5750612d4c565b806040517f08c379a0000000000000000000000000000000000000000000000000000000008152600401612d4191906132ca565b60405180910390fd5b505b6040517f08c379a0000000000000000000000000000000000000000000000000000000008152600401612d7e90614a1a565b60405180910390fd5b63f23a6e6160e01b7bffffffffffffffffffffffffffffffffffffffffffffffffffffffff1916817bffffffffffffffffffffffffffffffffffffffffffffffffffffffff191614612e0e576040517f08c379a0000000000000000000000000000000000000000000000000000000008152600401612e0590614aac565b60405180910390fd5b505b505050505050565b505050505050565b6000808273ffffffffffffffffffffffffffffffffffffffff163b119050919050565b828054612e4f90613f1f565b90600052602060002090601f016020900481019282612e715760008555612eb8565b82601f10612e8a57805160ff1916838001178555612eb8565b82800160010185558215612eb8579182015b82811115612eb7578251825591602001919060010190612e9c565b5b509050612ec59190612ec9565b5090565b5b80821115612ee2576000816000905550600101612eca565b5090565b6000604051905090565b600080fd5b600080fd5b600073ffffffffffffffffffffffffffffffffffffffff82169050919050565b6000612f2582612efa565b9050919050565b612f3581612f1a565b8114612f4057600080fd5b50565b600081359050612f5281612f2c565b92915050565b6000819050919050565b612f6b81612f58565b8114612f7657600080fd5b50565b600081359050612f8881612f62565b92915050565b60008060408385031215612fa557612fa4612ef0565b5b6000612fb385828601612f43565b9250506020612fc485828601612f79565b9150509250929050565b612fd781612f58565b82525050565b6000602082019050612ff26000830184612fce565b92915050565b60007fffffffff0000000000000000000000000000000000000000000000000000000082169050919050565b61302d81612ff8565b811461303857600080fd5b50565b60008135905061304a81613024565b92915050565b60006020828403121561306657613065612ef0565b5b60006130748482850161303b565b91505092915050565b60008115159050919050565b6130928161307d565b82525050565b60006020820190506130ad6000830184613089565b92915050565b600080fd5b600080fd5b6000601f19601f8301169050919050565b7f4e487b7100000000000000000000000000000000000000000000000000000000600052604160045260246000fd5b613106826130bd565b810181811067ffffffffffffffff82111715613125576131246130ce565b5b80604052505050565b6000613138612ee6565b905061314482826130fd565b919050565b600067ffffffffffffffff821115613164576131636130ce565b5b61316d826130bd565b9050602081019050919050565b82818337600083830152505050565b600061319c61319784613149565b61312e565b9050828152602081018484840111156131b8576131b76130b8565b5b6131c384828561317a565b509392505050565b600082601f8301126131e0576131df6130b3565b5b81356131f0848260208601613189565b91505092915050565b60006020828403121561320f5761320e612ef0565b5b600082013567ffffffffffffffff81111561322d5761322c612ef5565b5b613239848285016131cb565b91505092915050565b600081519050919050565b600082825260208201905092915050565b60005b8381101561327c578082015181840152602081019050613261565b8381111561328b576000848401525b50505050565b600061329c82613242565b6132a6818561324d565b93506132b681856020860161325e565b6132bf816130bd565b840191505092915050565b600060208201905081810360008301526132e48184613291565b905092915050565b60006020828403121561330257613301612ef0565b5b600061331084828501612f79565b91505092915050565b600067ffffffffffffffff821115613334576133336130ce565b5b602082029050602081019050919050565b600080fd5b600061335d61335884613319565b61312e565b905080838252602082019050602084028301858111156133805761337f613345565b5b835b818110156133a957806133958882612f79565b845260208401935050602081019050613382565b5050509392505050565b600082601f8301126133c8576133c76130b3565b5b81356133d884826020860161334a565b91505092915050565b600067ffffffffffffffff8211156133fc576133fb6130ce565b5b613405826130bd565b9050602081019050919050565b6000613425613420846133e1565b61312e565b905082815260208101848484011115613441576134406130b8565b5b61344c84828561317a565b509392505050565b600082601f830112613469576134686130b3565b5b8135613479848260208601613412565b91505092915050565b6000806000806080858703121561349c5761349b612ef0565b5b60006134aa87828801612f43565b945050602085013567ffffffffffffffff8111156134cb576134ca612ef5565b5b6134d7878288016133b3565b935050604085013567ffffffffffffffff8111156134f8576134f7612ef5565b5b613504878288016133b3565b925050606085013567ffffffffffffffff81111561352557613524612ef5565b5b61353187828801613454565b91505092959194509250565b60008060006060848603121561355657613555612ef0565b5b600061356486828701612f43565b935050602061357586828701612f43565b925050604061358686828701612f79565b9150509250925092565b600080604083850312156135a7576135a6612ef0565b5b60006135b585828601612f79565b92505060206135c685828601612f79565b9150509250929050565b600080600080600060a086880312156135ec576135eb612ef0565b5b60006135fa88828901612f43565b955050602061360b88828901612f43565b945050604086013567ffffffffffffffff81111561362c5761362b612ef5565b5b613638888289016133b3565b935050606086013567ffffffffffffffff81111561365957613658612ef5565b5b613665888289016133b3565b925050608086013567ffffffffffffffff81111561368657613685612ef5565b5b61369288828901613454565b9150509295509295909350565b600067ffffffffffffffff8211156136ba576136b96130ce565b5b602082029050602081019050919050565b60006136de6136d98461369f565b61312e565b9050808382526020820190506020840283018581111561370157613700613345565b5b835b8181101561372a57806137168882612f43565b845260208401935050602081019050613703565b5050509392505050565b600082601f830112613749576137486130b3565b5b81356137598482602086016136cb565b91505092915050565b6000806040838503121561377957613778612ef0565b5b600083013567ffffffffffffffff81111561379757613796612ef5565b5b6137a385828601613734565b925050602083013567ffffffffffffffff8111156137c4576137c3612ef5565b5b6137d0858286016133b3565b9150509250929050565b600081519050919050565b600082825260208201905092915050565b6000819050602082019050919050565b61380f81612f58565b82525050565b60006138218383613806565b60208301905092915050565b6000602082019050919050565b6000613845826137da565b61384f81856137e5565b935061385a836137f6565b8060005b8381101561388b5781516138728882613815565b975061387d8361382d565b92505060018101905061385e565b5085935050505092915050565b600060208201905081810360008301526138b2818461383a565b905092915050565b6138c381612f1a565b82525050565b60006020820190506138de60008301846138ba565b92915050565b6000602082840312156138fa576138f9612ef0565b5b600061390884828501612f43565b91505092915050565b6000806000806080858703121561392b5761392a612ef0565b5b600061393987828801612f43565b945050602061394a87828801612f79565b935050604061395b87828801612f79565b925050606085013567ffffffffffffffff81111561397c5761397b612ef5565b5b61398887828801613454565b91505092959194509250565b61399d8161307d565b81146139a857600080fd5b50565b6000813590506139ba81613994565b92915050565b600080604083850312156139d7576139d6612ef0565b5b60006139e585828601612f43565b92505060206139f6858286016139ab565b9150509250929050565b7f4e487b7100000000000000000000000000000000000000000000000000000000600052602160045260246000fd5b60058110613a4057613a3f613a00565b5b50565b6000819050613a5182613a2f565b919050565b6000613a6182613a43565b9050919050565b613a7181613a56565b82525050565b60058110613a8857613a87613a00565b5b50565b6000819050613a9982613a77565b919050565b6000613aa982613a8b565b9050919050565b613ab981613a9e565b82525050565b600061ffff82169050919050565b613ad681613abf565b82525050565b600060ff82169050919050565b613af281613adc565b82525050565b6000610160820190508181036000830152613b13818e613291565b9050613b22602083018d613a68565b613b2f604083018c613ab0565b613b3c606083018b613acd565b613b49608083018a613acd565b613b5660a0830189613ae9565b613b6360c0830188613ae9565b613b7060e0830187613ae9565b613b7e610100830186613ae9565b613b8c610120830185613ae9565b613b9a610140830184613ae9565b9c9b505050505050505050505050565b60058110613bb757600080fd5b50565b600081359050613bc981613baa565b92915050565b60058110613bdc57600080fd5b50565b600081359050613bee81613bcf565b92915050565b613bfd81613adc565b8114613c0857600080fd5b50565b600081359050613c1a81613bf4565b92915050565b6000806000806000806000806000806101408b8d031215613c4457613c43612ef0565b5b60008b013567ffffffffffffffff811115613c6257613c61612ef5565b5b613c6e8d828e016131cb565b9a50506020613c7f8d828e01613bba565b9950506040613c908d828e01613bdf565b9850506060613ca18d828e01613c0b565b9750506080613cb28d828e01613c0b565b96505060a0613cc38d828e01613c0b565b95505060c0613cd48d828e01613c0b565b94505060e0613ce58d828e01613c0b565b935050610100613cf78d828e01613c0b565b925050610120613d098d828e01612f43565b9150509295989b9194979a5092959850565b60008060408385031215613d3257613d31612ef0565b5b6000613d4085828601612f43565b9250506020613d5185828601612f43565b9150509250929050565b600080600080600060a08688031215613d7757613d76612ef0565b5b6000613d8588828901612f43565b9550506020613d9688828901612f43565b9450506040613da788828901612f79565b9350506060613db888828901612f79565b925050608086013567ffffffffffffffff811115613dd957613dd8612ef5565b5b613de588828901613454565b9150509295509295909350565b7f455243313135353a2062616c616e636520717565727920666f7220746865207a60008201527f65726f2061646472657373000000000000000000000000000000000000000000602082015250565b6000613e4e602b8361324d565b9150613e5982613df2565b604082019050919050565b60006020820190508181036000830152613e7d81613e41565b9050919050565b7f4f776e61626c653a2063616c6c6572206973206e6f7420746865206f776e6572600082015250565b6000613eba60208361324d565b9150613ec582613e84565b602082019050919050565b60006020820190508181036000830152613ee981613ead565b9050919050565b7f4e487b7100000000000000000000000000000000000000000000000000000000600052602260045260246000fd5b60006002820490506001821680613f3757607f821691505b60208210811415613f4b57613f4a613ef0565b5b50919050565b7f455243313135353a207472616e736665722063616c6c6572206973206e6f742060008201527f6f776e6572206e6f7220617070726f7665640000000000000000000000000000602082015250565b6000613fad60328361324d565b9150613fb882613f51565b604082019050919050565b60006020820190508181036000830152613fdc81613fa0565b9050919050565b7f455243313135353a206163636f756e747320616e6420696473206c656e67746860008201527f206d69736d617463680000000000000000000000000000000000000000000000602082015250565b600061403f60298361324d565b915061404a82613fe3565b604082019050919050565b6000602082019050818103600083015261406e81614032565b9050919050565b7f4e487b7100000000000000000000000000000000000000000000000000000000600052603260045260246000fd5b7f4e487b7100000000000000000000000000000000000000000000000000000000600052601160045260246000fd5b60006140de82612f58565b91507fffffffffffffffffffffffffffffffffffffffffffffffffffffffffffffffff821415614111576141106140a4565b5b600182019050919050565b7f455243313135353a2063616c6c6572206973206e6f74206f776e6572206e6f7260008201527f20617070726f7665640000000000000000000000000000000000000000000000602082015250565b600061417860298361324d565b91506141838261411c565b604082019050919050565b600060208201905081810360008301526141a78161416b565b9050919050565b7f4f776e61626c653a206e6577206f776e657220697320746865207a65726f206160008201527f6464726573730000000000000000000000000000000000000000000000000000602082015250565b600061420a60268361324d565b9150614215826141ae565b604082019050919050565b60006020820190508181036000830152614239816141fd565b9050919050565b7f455243313135353a206d696e7420746f20746865207a65726f2061646472657360008201527f7300000000000000000000000000000000000000000000000000000000000000602082015250565b600061429c60218361324d565b91506142a782614240565b604082019050919050565b600060208201905081810360008301526142cb8161428f565b9050919050565b7f455243313135353a2069647320616e6420616d6f756e7473206c656e6774682060008201527f6d69736d61746368000000000000000000000000000000000000000000000000602082015250565b600061432e60288361324d565b9150614339826142d2565b604082019050919050565b6000602082019050818103600083015261435d81614321565b9050919050565b600061436f82612f58565b915061437a83612f58565b9250827fffffffffffffffffffffffffffffffffffffffffffffffffffffffffffffffff038211156143af576143ae6140a4565b5b828201905092915050565b600060408201905081810360008301526143d4818561383a565b905081810360208301526143e8818461383a565b90509392505050565b60006143fc82612f58565b915060008214156144105761440f6140a4565b5b600182039050919050565b7f455243313135353a207472616e7366657220746f20746865207a65726f20616460008201527f6472657373000000000000000000000000000000000000000000000000000000602082015250565b600061447760258361324d565b91506144828261441b565b604082019050919050565b600060208201905081810360008301526144a68161446a565b9050919050565b7f455243313135353a20696e73756666696369656e742062616c616e636520666f60008201527f72207472616e7366657200000000000000000000000000000000000000000000602082015250565b6000614509602a8361324d565b9150614514826144ad565b604082019050919050565b60006020820190508181036000830152614538816144fc565b9050919050565b7f5061757361626c653a206e6f7420706175736564000000000000000000000000600082015250565b600061457560148361324d565b91506145808261453f565b602082019050919050565b600060208201905081810360008301526145a481614568565b9050919050565b60006040820190506145c06000830185612fce565b6145cd6020830184612fce565b9392505050565b7f5061757361626c653a2070617573656400000000000000000000000000000000600082015250565b600061460a60108361324d565b9150614615826145d4565b602082019050919050565b60006020820190508181036000830152614639816145fd565b9050919050565b7f455243313135353a2073657474696e6720617070726f76616c2073746174757360008201527f20666f722073656c660000000000000000000000000000000000000000000000602082015250565b600061469c60298361324d565b91506146a782614640565b604082019050919050565b600060208201905081810360008301526146cb8161468f565b9050919050565b60006146dd82612f58565b91506146e883612f58565b9250828210156146fb576146fa6140a4565b5b828203905092915050565b6000819050919050565b600061472b61472661472184613adc565b614706565b612f58565b9050919050565b61473b81614710565b82525050565b600061014082019050614757600083018d612fce565b8181036020830152614769818c613291565b9050614778604083018b613a68565b614785606083018a613ab0565b6147926080830189614732565b61479f60a0830188614732565b6147ac60c0830187614732565b6147b960e0830186614732565b6147c7610100830185614732565b6147d5610120830184614732565b9b9a5050505050505050505050565b600081519050919050565b600082825260208201905092915050565b600061480b826147e4565b61481581856147ef565b935061482581856020860161325e565b61482e816130bd565b840191505092915050565b600060a08201905061484e60008301886138ba565b61485b60208301876138ba565b818103604083015261486d818661383a565b90508181036060830152614881818561383a565b905081810360808301526148958184614800565b90509695505050505050565b6000815190506148b081613024565b92915050565b6000602082840312156148cc576148cb612ef0565b5b60006148da848285016148a1565b91505092915050565b60008160e01c9050919050565b600060033d111561490f5760046000803e61490c6000516148e3565b90505b90565b600060443d1015614922576149a5565b61492a612ee6565b60043d036004823e80513d602482011167ffffffffffffffff821117156149525750506149a5565b808201805167ffffffffffffffff81111561497057505050506149a5565b80602083010160043d03850181111561498d5750505050506149a5565b61499c826020018501866130fd565b82955050505050505b90565b7f455243313135353a207472616e7366657220746f206e6f6e204552433131353560008201527f526563656976657220696d706c656d656e746572000000000000000000000000602082015250565b6000614a0460348361324d565b9150614a0f826149a8565b604082019050919050565b60006020820190508181036000830152614a33816149f7565b9050919050565b7f455243313135353a204552433131353552656365697665722072656a6563746560008201527f6420746f6b656e73000000000000000000000000000000000000000000000000602082015250565b6000614a9660288361324d565b9150614aa182614a3a565b604082019050919050565b60006020820190508181036000830152614ac581614a89565b9050919050565b600060a082019050614ae160008301886138ba565b614aee60208301876138ba565b614afb6040830186612fce565b614b086060830185612fce565b8181036080830152614b1a8184614800565b9050969550505050505056fea2646970667358221220ee445b2d223b772704afe23b62153bb2f79cf2403fe2fab333bd897c265c98e064736f6c634300080c0033",
  "immutableReferences": {},
  "source": "pragma solidity ^0.8.4;\r\n\r\nimport \"./dragonminting.sol\";\r\n\r\ncontract DragonMerging is DragonMinting{\r\n    function mergeDragons(uint _dragonA, uint _dragonB_) public returns (uint mergedDragon)  {\r\n        return 0;\r\n    }\r\n}\r\n",
  "sourcePath": "C:\\Projects\\meta-dragons\\Truffle\\contracts\\dragonmerging.sol",
  "compiler": {
    "name": "solc",
    "version": "0.8.12+commit.f00d7308.Emscripten.clang"
  },
  "schemaVersion": "3.4.5",
  "updatedAt": "2022-03-04T10:18:06.222Z",
  "devdoc": {
    "kind": "dev",
    "methods": {
      "balanceOf(address,uint256)": {
        "details": "See {IERC1155-balanceOf}. Requirements: - `account` cannot be the zero address."
      },
      "balanceOfBatch(address[],uint256[])": {
        "details": "See {IERC1155-balanceOfBatch}. Requirements: - `accounts` and `ids` must have the same length."
      },
      "isApprovedForAll(address,address)": {
        "details": "See {IERC1155-isApprovedForAll}."
      },
      "owner()": {
        "details": "Returns the address of the current owner."
      },
      "paused()": {
        "details": "Returns true if the contract is paused, and false otherwise."
      },
      "renounceOwnership()": {
        "details": "Leaves the contract without owner. It will not be possible to call `onlyOwner` functions anymore. Can only be called by the current owner. NOTE: Renouncing ownership will leave the contract without an owner, thereby removing any functionality that is only available to the owner."
      },
      "safeBatchTransferFrom(address,address,uint256[],uint256[],bytes)": {
        "details": "See {IERC1155-safeBatchTransferFrom}."
      },
      "safeTransferFrom(address,address,uint256,uint256,bytes)": {
        "details": "See {IERC1155-safeTransferFrom}."
      },
      "setApprovalForAll(address,bool)": {
        "details": "See {IERC1155-setApprovalForAll}."
      },
      "supportsInterface(bytes4)": {
        "details": "See {IERC165-supportsInterface}."
      },
      "transferOwnership(address)": {
        "details": "Transfers ownership of the contract to a new account (`newOwner`). Can only be called by the current owner."
      },
      "uri(uint256)": {
        "details": "See {IERC1155MetadataURI-uri}. This implementation returns the same URI for *all* token types. It relies on the token type ID substitution mechanism https://eips.ethereum.org/EIPS/eip-1155#metadata[defined in the EIP]. Clients calling this function must replace the `\\{id\\}` substring with the actual token type ID."
      }
    },
    "version": 1
  },
  "userdoc": {
    "kind": "user",
    "methods": {},
    "version": 1
  }
}