{
  "contractName": "DragonMinting",
  "abi": [
    {
      "anonymous": false,
      "inputs": [
        {
          "indexed": true,
          "internalType": "address",
          "name": "_owner",
          "type": "address"
        },
        {
          "indexed": true,
          "internalType": "address",
          "name": "_approved",
          "type": "address"
        },
        {
          "indexed": true,
          "internalType": "uint256",
          "name": "_tokenId",
          "type": "uint256"
        }
      ],
      "name": "Approval",
      "type": "event"
    },
    {
      "anonymous": false,
      "inputs": [
        {
          "indexed": true,
          "internalType": "address",
          "name": "account",
          "type": "address"
        },
        {
          "indexed": true,
          "internalType": "address",
          "name": "operator",
          "type": "address"
        },
        {
          "indexed": false,
          "internalType": "bool",
          "name": "approved",
          "type": "bool"
        }
      ],
      "name": "ApprovalForAll",
      "type": "event"
    },
    {
      "anonymous": false,
      "inputs": [
        {
          "indexed": false,
          "internalType": "uint256",
          "name": "dragonId",
          "type": "uint256"
        },
        {
          "indexed": false,
          "internalType": "string",
          "name": "name",
          "type": "string"
        },
        {
          "indexed": false,
          "internalType": "enum DragonFactory.Rarity",
          "name": "rarity",
          "type": "uint8"
        },
        {
          "indexed": false,
          "internalType": "enum DragonFactory.Class",
          "name": "class",
          "type": "uint8"
        },
        {
          "indexed": false,
          "internalType": "uint256",
          "name": "accel",
          "type": "uint256"
        },
        {
          "indexed": false,
          "internalType": "uint256",
          "name": "endu",
          "type": "uint256"
        },
        {
          "indexed": false,
          "internalType": "uint256",
          "name": "hp",
          "type": "uint256"
        },
        {
          "indexed": false,
          "internalType": "uint256",
          "name": "recov",
          "type": "uint256"
        },
        {
          "indexed": false,
          "internalType": "uint256",
          "name": "topSpeed",
          "type": "uint256"
        },
        {
          "indexed": false,
          "internalType": "uint256",
          "name": "weight",
          "type": "uint256"
        }
      ],
      "name": "NewDragon",
      "type": "event"
    },
    {
      "anonymous": false,
      "inputs": [
        {
          "indexed": true,
          "internalType": "address",
          "name": "previousOwner",
          "type": "address"
        },
        {
          "indexed": true,
          "internalType": "address",
          "name": "newOwner",
          "type": "address"
        }
      ],
      "name": "OwnershipTransferred",
      "type": "event"
    },
    {
      "anonymous": false,
      "inputs": [
        {
          "indexed": false,
          "internalType": "address",
          "name": "account",
          "type": "address"
        }
      ],
      "name": "Paused",
      "type": "event"
    },
    {
      "anonymous": false,
      "inputs": [
        {
          "indexed": true,
          "internalType": "address",
          "name": "_from",
          "type": "address"
        },
        {
          "indexed": true,
          "internalType": "address",
          "name": "_to",
          "type": "address"
        },
        {
          "indexed": true,
          "internalType": "uint256",
          "name": "_tokenId",
          "type": "uint256"
        }
      ],
      "name": "Transfer",
      "type": "event"
    },
    {
      "anonymous": false,
      "inputs": [
        {
          "indexed": true,
          "internalType": "address",
          "name": "operator",
          "type": "address"
        },
        {
          "indexed": true,
          "internalType": "address",
          "name": "from",
          "type": "address"
        },
        {
          "indexed": true,
          "internalType": "address",
          "name": "to",
          "type": "address"
        },
        {
          "indexed": false,
          "internalType": "uint256[]",
          "name": "ids",
          "type": "uint256[]"
        },
        {
          "indexed": false,
          "internalType": "uint256[]",
          "name": "values",
          "type": "uint256[]"
        }
      ],
      "name": "TransferBatch",
      "type": "event"
    },
    {
      "anonymous": false,
      "inputs": [
        {
          "indexed": true,
          "internalType": "address",
          "name": "operator",
          "type": "address"
        },
        {
          "indexed": true,
          "internalType": "address",
          "name": "from",
          "type": "address"
        },
        {
          "indexed": true,
          "internalType": "address",
          "name": "to",
          "type": "address"
        },
        {
          "indexed": false,
          "internalType": "uint256",
          "name": "id",
          "type": "uint256"
        },
        {
          "indexed": false,
          "internalType": "uint256",
          "name": "value",
          "type": "uint256"
        }
      ],
      "name": "TransferSingle",
      "type": "event"
    },
    {
      "anonymous": false,
      "inputs": [
        {
          "indexed": false,
          "internalType": "string",
          "name": "value",
          "type": "string"
        },
        {
          "indexed": true,
          "internalType": "uint256",
          "name": "id",
          "type": "uint256"
        }
      ],
      "name": "URI",
      "type": "event"
    },
    {
      "anonymous": false,
      "inputs": [
        {
          "indexed": false,
          "internalType": "address",
          "name": "account",
          "type": "address"
        }
      ],
      "name": "Unpaused",
      "type": "event"
    },
    {
      "inputs": [
        {
          "internalType": "address",
          "name": "_approved",
          "type": "address"
        },
        {
          "internalType": "uint256",
          "name": "_tokenId",
          "type": "uint256"
        }
      ],
      "name": "approve",
      "outputs": [],
      "stateMutability": "payable",
      "type": "function"
    },
    {
      "inputs": [
        {
          "internalType": "address",
          "name": "account",
          "type": "address"
        },
        {
          "internalType": "uint256",
          "name": "id",
          "type": "uint256"
        }
      ],
      "name": "balanceOf",
      "outputs": [
        {
          "internalType": "uint256",
          "name": "",
          "type": "uint256"
        }
      ],
      "stateMutability": "view",
      "type": "function"
    },
    {
      "inputs": [
        {
          "internalType": "address",
          "name": "_owner",
          "type": "address"
        }
      ],
      "name": "balanceOf",
      "outputs": [
        {
          "internalType": "uint256",
          "name": "",
          "type": "uint256"
        }
      ],
      "stateMutability": "view",
      "type": "function"
    },
    {
      "inputs": [
        {
          "internalType": "address[]",
          "name": "accounts",
          "type": "address[]"
        },
        {
          "internalType": "uint256[]",
          "name": "ids",
          "type": "uint256[]"
        }
      ],
      "name": "balanceOfBatch",
      "outputs": [
        {
          "internalType": "uint256[]",
          "name": "",
          "type": "uint256[]"
        }
      ],
      "stateMutability": "view",
      "type": "function"
    },
    {
      "inputs": [
        {
          "internalType": "uint256",
          "name": "",
          "type": "uint256"
        }
      ],
      "name": "dragonToOwner",
      "outputs": [
        {
          "internalType": "address",
          "name": "",
          "type": "address"
        }
      ],
      "stateMutability": "view",
      "type": "function"
    },
    {
      "inputs": [
        {
          "internalType": "uint256",
          "name": "",
          "type": "uint256"
        }
      ],
      "name": "dragons",
      "outputs": [
        {
          "internalType": "string",
          "name": "name",
          "type": "string"
        },
        {
          "internalType": "enum DragonFactory.Rarity",
          "name": "rarity",
          "type": "uint8"
        },
        {
          "internalType": "enum DragonFactory.Class",
          "name": "class",
          "type": "uint8"
        },
        {
          "internalType": "uint16",
          "name": "winCount",
          "type": "uint16"
        },
        {
          "internalType": "uint16",
          "name": "lossCount",
          "type": "uint16"
        },
        {
          "internalType": "uint8",
          "name": "acceleration",
          "type": "uint8"
        },
        {
          "internalType": "uint8",
          "name": "endurance",
          "type": "uint8"
        },
        {
          "internalType": "uint8",
          "name": "hp",
          "type": "uint8"
        },
        {
          "internalType": "uint8",
          "name": "recovery",
          "type": "uint8"
        },
        {
          "internalType": "uint8",
          "name": "topSpeed",
          "type": "uint8"
        },
        {
          "internalType": "uint8",
          "name": "weight",
          "type": "uint8"
        }
      ],
      "stateMutability": "view",
      "type": "function"
    },
    {
      "inputs": [
        {
          "internalType": "address",
          "name": "account",
          "type": "address"
        },
        {
          "internalType": "address",
          "name": "operator",
          "type": "address"
        }
      ],
      "name": "isApprovedForAll",
      "outputs": [
        {
          "internalType": "bool",
          "name": "",
          "type": "bool"
        }
      ],
      "stateMutability": "view",
      "type": "function"
    },
    {
      "inputs": [
        {
          "internalType": "address",
          "name": "account",
          "type": "address"
        },
        {
          "internalType": "uint256",
          "name": "id",
          "type": "uint256"
        },
        {
          "internalType": "uint256",
          "name": "amount",
          "type": "uint256"
        },
        {
          "internalType": "bytes",
          "name": "data",
          "type": "bytes"
        }
      ],
      "name": "mint",
      "outputs": [],
      "stateMutability": "nonpayable",
      "type": "function"
    },
    {
      "inputs": [
        {
          "internalType": "address",
          "name": "to",
          "type": "address"
        },
        {
          "internalType": "uint256[]",
          "name": "ids",
          "type": "uint256[]"
        },
        {
          "internalType": "uint256[]",
          "name": "amounts",
          "type": "uint256[]"
        },
        {
          "internalType": "bytes",
          "name": "data",
          "type": "bytes"
        }
      ],
      "name": "mintBatch",
      "outputs": [],
      "stateMutability": "nonpayable",
      "type": "function"
    },
    {
      "inputs": [],
      "name": "name",
      "outputs": [
        {
          "internalType": "string",
          "name": "",
          "type": "string"
        }
      ],
      "stateMutability": "view",
      "type": "function"
    },
    {
      "inputs": [],
      "name": "owner",
      "outputs": [
        {
          "internalType": "address",
          "name": "",
          "type": "address"
        }
      ],
      "stateMutability": "view",
      "type": "function"
    },
    {
      "inputs": [
        {
          "internalType": "uint256",
          "name": "_tokenId",
          "type": "uint256"
        }
      ],
      "name": "ownerOf",
      "outputs": [
        {
          "internalType": "address",
          "name": "",
          "type": "address"
        }
      ],
      "stateMutability": "view",
      "type": "function"
    },
    {
      "inputs": [],
      "name": "pause",
      "outputs": [],
      "stateMutability": "nonpayable",
      "type": "function"
    },
    {
      "inputs": [],
      "name": "paused",
      "outputs": [
        {
          "internalType": "bool",
          "name": "",
          "type": "bool"
        }
      ],
      "stateMutability": "view",
      "type": "function"
    },
    {
      "inputs": [],
      "name": "promoCreatedCount",
      "outputs": [
        {
          "internalType": "uint256",
          "name": "",
          "type": "uint256"
        }
      ],
      "stateMutability": "view",
      "type": "function"
    },
    {
      "inputs": [],
      "name": "promoCreationLimit",
      "outputs": [
        {
          "internalType": "uint256",
          "name": "",
          "type": "uint256"
        }
      ],
      "stateMutability": "view",
      "type": "function"
    },
    {
      "inputs": [],
      "name": "renounceOwnership",
      "outputs": [],
      "stateMutability": "nonpayable",
      "type": "function"
    },
    {
      "inputs": [
        {
          "internalType": "address",
          "name": "from",
          "type": "address"
        },
        {
          "internalType": "address",
          "name": "to",
          "type": "address"
        },
        {
          "internalType": "uint256[]",
          "name": "ids",
          "type": "uint256[]"
        },
        {
          "internalType": "uint256[]",
          "name": "amounts",
          "type": "uint256[]"
        },
        {
          "internalType": "bytes",
          "name": "data",
          "type": "bytes"
        }
      ],
      "name": "safeBatchTransferFrom",
      "outputs": [],
      "stateMutability": "nonpayable",
      "type": "function"
    },
    {
      "inputs": [
        {
          "internalType": "address",
          "name": "from",
          "type": "address"
        },
        {
          "internalType": "address",
          "name": "to",
          "type": "address"
        },
        {
          "internalType": "uint256",
          "name": "id",
          "type": "uint256"
        },
        {
          "internalType": "uint256",
          "name": "amount",
          "type": "uint256"
        },
        {
          "internalType": "bytes",
          "name": "data",
          "type": "bytes"
        }
      ],
      "name": "safeTransferFrom",
      "outputs": [],
      "stateMutability": "nonpayable",
      "type": "function"
    },
    {
      "inputs": [
        {
          "internalType": "address",
          "name": "operator",
          "type": "address"
        },
        {
          "internalType": "bool",
          "name": "approved",
          "type": "bool"
        }
      ],
      "name": "setApprovalForAll",
      "outputs": [],
      "stateMutability": "nonpayable",
      "type": "function"
    },
    {
      "inputs": [
        {
          "internalType": "string",
          "name": "newuri",
          "type": "string"
        }
      ],
      "name": "setURI",
      "outputs": [],
      "stateMutability": "nonpayable",
      "type": "function"
    },
    {
      "inputs": [
        {
          "internalType": "bytes4",
          "name": "interfaceId",
          "type": "bytes4"
        }
      ],
      "name": "supportsInterface",
      "outputs": [
        {
          "internalType": "bool",
          "name": "",
          "type": "bool"
        }
      ],
      "stateMutability": "view",
      "type": "function"
    },
    {
      "inputs": [],
      "name": "symbol",
      "outputs": [
        {
          "internalType": "string",
          "name": "",
          "type": "string"
        }
      ],
      "stateMutability": "view",
      "type": "function"
    },
    {
      "inputs": [
        {
          "internalType": "address",
          "name": "_from",
          "type": "address"
        },
        {
          "internalType": "address",
          "name": "_to",
          "type": "address"
        },
        {
          "internalType": "uint256",
          "name": "_tokenId",
          "type": "uint256"
        }
      ],
      "name": "transferFrom",
      "outputs": [],
      "stateMutability": "payable",
      "type": "function"
    },
    {
      "inputs": [
        {
          "internalType": "address",
          "name": "newOwner",
          "type": "address"
        }
      ],
      "name": "transferOwnership",
      "outputs": [],
      "stateMutability": "nonpayable",
      "type": "function"
    },
    {
      "inputs": [],
      "name": "unpause",
      "outputs": [],
      "stateMutability": "nonpayable",
      "type": "function"
    },
    {
      "inputs": [
        {
          "internalType": "uint256",
          "name": "",
          "type": "uint256"
        }
      ],
      "name": "uri",
      "outputs": [
        {
          "internalType": "string",
          "name": "",
          "type": "string"
        }
      ],
      "stateMutability": "view",
      "type": "function"
    },
    {
      "inputs": [
        {
          "internalType": "string",
          "name": "_name",
          "type": "string"
        },
        {
          "internalType": "enum DragonFactory.Rarity",
          "name": "_rarity",
          "type": "uint8"
        },
        {
          "internalType": "enum DragonFactory.Class",
          "name": "_class",
          "type": "uint8"
        },
        {
          "internalType": "uint8",
          "name": "_accel",
          "type": "uint8"
        },
        {
          "internalType": "uint8",
          "name": "_endu",
          "type": "uint8"
        },
        {
          "internalType": "uint8",
          "name": "_hp",
          "type": "uint8"
        },
        {
          "internalType": "uint8",
          "name": "_recov",
          "type": "uint8"
        },
        {
          "internalType": "uint8",
          "name": "_topSpeed",
          "type": "uint8"
        },
        {
          "internalType": "uint8",
          "name": "_weight",
          "type": "uint8"
        },
        {
          "internalType": "address",
          "name": "_owner",
          "type": "address"
        }
      ],
      "name": "createPromoDragon",
      "outputs": [],
      "stateMutability": "nonpayable",
      "type": "function"
    }
  ],
  "bytecode": "0x60806040526040518060400160405280600b81526020017f4d657461447261676f6e73000000000000000000000000000000000000000000815250600790805190602001906200005192919062000201565b506040518060400160405280600281526020017f4d44000000000000000000000000000000000000000000000000000000000000815250600890805190602001906200009f92919062000201565b506101f4600a55348015620000b357600080fd5b5060405180602001604052806000815250620000d5816200011760201b60201c565b50620000f6620000ea6200013360201b60201c565b6200013b60201b60201c565b6000600360146101000a81548160ff02191690831515021790555062000316565b80600290805190602001906200012f92919062000201565b5050565b600033905090565b6000600360009054906101000a900473ffffffffffffffffffffffffffffffffffffffff16905081600360006101000a81548173ffffffffffffffffffffffffffffffffffffffff021916908373ffffffffffffffffffffffffffffffffffffffff1602179055508173ffffffffffffffffffffffffffffffffffffffff168173ffffffffffffffffffffffffffffffffffffffff167f8be0079c531659141344cd1fd0a4f28419497f9722a3daafe3b4186f6b6457e060405160405180910390a35050565b8280546200020f90620002e0565b90600052602060002090601f0160209004810192826200023357600085556200027f565b82601f106200024e57805160ff19168380011785556200027f565b828001600101855582156200027f579182015b828111156200027e57825182559160200191906001019062000261565b5b5090506200028e919062000292565b5090565b5b80821115620002ad57600081600090555060010162000293565b5090565b7f4e487b7100000000000000000000000000000000000000000000000000000000600052602260045260246000fd5b60006002820490506001821680620002f957607f821691505b6020821081141562000310576200030f620002b1565b5b50919050565b614acc80620003266000396000f3fe6080604052600436106101b65760003560e01c806370a08231116100ec578063a22cb4651161008a578063daf53fc911610064578063daf53fc9146105f9578063e985e9c514610622578063f242432a1461065f578063f2fde38b14610688576101b6565b8063a22cb4651461055e578063b531933514610587578063d2a59d69146105b2576101b6565b80637b3b0a2f116100c65780637b3b0a2f146104b45780638456cb59146104f15780638da5cb5b1461050857806395d89b4114610533576101b6565b806370a0823114610437578063715018a614610474578063731133e91461048b576101b6565b80631f7fdffa116101595780633f4ba83a116101335780633f4ba83a1461037b5780634e1273f4146103925780635c975abb146103cf5780636352211e146103fa576101b6565b80631f7fdffa1461030d57806323b872dd146103365780632eb2c2d614610352576101b6565b806305e455461161019557806305e455461461025e57806306fdde0314610289578063095ea7b3146102b45780630e89341c146102d0576101b6565b8062fdd58e146101bb57806301ffc9a7146101f857806302fe530514610235575b600080fd5b3480156101c757600080fd5b506101e260048036038101906101dd9190612f3e565b6106b1565b6040516101ef9190612f8d565b60405180910390f35b34801561020457600080fd5b5061021f600480360381019061021a9190613000565b61077a565b60405161022c9190613048565b60405180910390f35b34801561024157600080fd5b5061025c600480360381019061025791906131a9565b61085c565b005b34801561026a57600080fd5b506102736108e4565b6040516102809190612f8d565b60405180910390f35b34801561029557600080fd5b5061029e6108ea565b6040516102ab919061327a565b60405180910390f35b6102ce60048036038101906102c99190612f3e565b610978565b005b3480156102dc57600080fd5b506102f760048036038101906102f2919061329c565b610a96565b604051610304919061327a565b60405180910390f35b34801561031957600080fd5b50610334600480360381019061032f9190613432565b610b2a565b005b610350600480360381019061034b91906134ed565b610bb8565b005b34801561035e57600080fd5b5061037960048036038101906103749190613540565b610c9c565b005b34801561038757600080fd5b50610390610d3d565b005b34801561039e57600080fd5b506103b960048036038101906103b491906136d2565b610dc3565b6040516103c69190613808565b60405180910390f35b3480156103db57600080fd5b506103e4610edc565b6040516103f19190613048565b60405180910390f35b34801561040657600080fd5b50610421600480360381019061041c919061329c565b610ef3565b60405161042e9190613839565b60405180910390f35b34801561044357600080fd5b5061045e60048036038101906104599190613854565b610f30565b60405161046b9190612f8d565b60405180910390f35b34801561048057600080fd5b50610489610f79565b005b34801561049757600080fd5b506104b260048036038101906104ad9190613881565b611001565b005b3480156104c057600080fd5b506104db60048036038101906104d6919061329c565b61108f565b6040516104e89190613839565b60405180910390f35b3480156104fd57600080fd5b506105066110c2565b005b34801561051457600080fd5b5061051d611148565b60405161052a9190613839565b60405180910390f35b34801561053f57600080fd5b50610548611172565b604051610555919061327a565b60405180910390f35b34801561056a57600080fd5b5061058560048036038101906105809190613930565b611200565b005b34801561059357600080fd5b5061059c611216565b6040516105a99190612f8d565b60405180910390f35b3480156105be57600080fd5b506105d960048036038101906105d4919061329c565b61121c565b6040516105f09b9a99989796959493929190613a68565b60405180910390f35b34801561060557600080fd5b50610620600480360381019061061b9190613b90565b611392565b005b34801561062e57600080fd5b5061064960048036038101906106449190613c8b565b61148d565b6040516106569190613048565b60405180910390f35b34801561066b57600080fd5b5061068660048036038101906106819190613ccb565b611521565b005b34801561069457600080fd5b506106af60048036038101906106aa9190613854565b6115c2565b005b60008073ffffffffffffffffffffffffffffffffffffffff168373ffffffffffffffffffffffffffffffffffffffff161415610722576040517f08c379a000000000000000000000000000000000000000000000000000000000815260040161071990613dd4565b60405180910390fd5b60008083815260200190815260200160002060008473ffffffffffffffffffffffffffffffffffffffff1673ffffffffffffffffffffffffffffffffffffffff16815260200190815260200160002054905092915050565b60007fd9b67a26000000000000000000000000000000000000000000000000000000007bffffffffffffffffffffffffffffffffffffffffffffffffffffffff1916827bffffffffffffffffffffffffffffffffffffffffffffffffffffffff1916148061084557507f0e89341c000000000000000000000000000000000000000000000000000000007bffffffffffffffffffffffffffffffffffffffffffffffffffffffff1916827bffffffffffffffffffffffffffffffffffffffffffffffffffffffff1916145b806108555750610854826116ba565b5b9050919050565b610864611724565b73ffffffffffffffffffffffffffffffffffffffff16610882611148565b73ffffffffffffffffffffffffffffffffffffffff16146108d8576040517f08c379a00000000000000000000000000000000000000000000000000000000081526004016108cf90613e40565b60405180910390fd5b6108e18161172c565b50565b600b5481565b600780546108f790613e8f565b80601f016020809104026020016040519081016040528092919081815260200182805461092390613e8f565b80156109705780601f1061094557610100808354040283529160200191610970565b820191906000526020600020905b81548152906001019060200180831161095357829003601f168201915b505050505081565b806005600082815260200190815260200160002060009054906101000a900473ffffffffffffffffffffffffffffffffffffffff1673ffffffffffffffffffffffffffffffffffffffff163373ffffffffffffffffffffffffffffffffffffffff16146109e457600080fd5b826009600084815260200190815260200160002060006101000a81548173ffffffffffffffffffffffffffffffffffffffff021916908373ffffffffffffffffffffffffffffffffffffffff160217905550818373ffffffffffffffffffffffffffffffffffffffff163373ffffffffffffffffffffffffffffffffffffffff167f8c5be1e5ebec7d5bd14f71427d1e84f3dd0314c0f7b2291e5b200ac8c7c3b92560405160405180910390a4505050565b606060028054610aa590613e8f565b80601f0160208091040260200160405190810160405280929190818152602001828054610ad190613e8f565b8015610b1e5780601f10610af357610100808354040283529160200191610b1e565b820191906000526020600020905b815481529060010190602001808311610b0157829003601f168201915b50505050509050919050565b610b32611724565b73ffffffffffffffffffffffffffffffffffffffff16610b50611148565b73ffffffffffffffffffffffffffffffffffffffff1614610ba6576040517f08c379a0000000000000000000000000000000000000000000000000000000008152600401610b9d90613e40565b60405180910390fd5b610bb284848484611746565b50505050565b3373ffffffffffffffffffffffffffffffffffffffff166005600083815260200190815260200160002060009054906101000a900473ffffffffffffffffffffffffffffffffffffffff1673ffffffffffffffffffffffffffffffffffffffff161480610c8357503373ffffffffffffffffffffffffffffffffffffffff166009600083815260200190815260200160002060009054906101000a900473ffffffffffffffffffffffffffffffffffffffff1673ffffffffffffffffffffffffffffffffffffffff16145b610c8c57600080fd5b610c97838383611964565b505050565b610ca4611724565b73ffffffffffffffffffffffffffffffffffffffff168573ffffffffffffffffffffffffffffffffffffffff161480610cea5750610ce985610ce4611724565b61148d565b5b610d29576040517f08c379a0000000000000000000000000000000000000000000000000000000008152600401610d2090613f33565b60405180910390fd5b610d368585858585611b44565b5050505050565b610d45611724565b73ffffffffffffffffffffffffffffffffffffffff16610d63611148565b73ffffffffffffffffffffffffffffffffffffffff1614610db9576040517f08c379a0000000000000000000000000000000000000000000000000000000008152600401610db090613e40565b60405180910390fd5b610dc1611e58565b565b60608151835114610e09576040517f08c379a0000000000000000000000000000000000000000000000000000000008152600401610e0090613fc5565b60405180910390fd5b6000835167ffffffffffffffff811115610e2657610e2561307e565b5b604051908082528060200260200182016040528015610e545781602001602082028036833780820191505090505b50905060005b8451811015610ed157610ea1858281518110610e7957610e78613fe5565b5b6020026020010151858381518110610e9457610e93613fe5565b5b60200260200101516106b1565b828281518110610eb457610eb3613fe5565b5b60200260200101818152505080610eca90614043565b9050610e5a565b508091505092915050565b6000600360149054906101000a900460ff16905090565b60006005600083815260200190815260200160002060009054906101000a900473ffffffffffffffffffffffffffffffffffffffff169050919050565b6000600660008373ffffffffffffffffffffffffffffffffffffffff1673ffffffffffffffffffffffffffffffffffffffff168152602001908152602001600020549050919050565b610f81611724565b73ffffffffffffffffffffffffffffffffffffffff16610f9f611148565b73ffffffffffffffffffffffffffffffffffffffff1614610ff5576040517f08c379a0000000000000000000000000000000000000000000000000000000008152600401610fec90613e40565b60405180910390fd5b610fff6000611efa565b565b611009611724565b73ffffffffffffffffffffffffffffffffffffffff16611027611148565b73ffffffffffffffffffffffffffffffffffffffff161461107d576040517f08c379a000000000000000000000000000000000000000000000000000000000815260040161107490613e40565b60405180910390fd5b61108984848484611fc0565b50505050565b60056020528060005260406000206000915054906101000a900473ffffffffffffffffffffffffffffffffffffffff1681565b6110ca611724565b73ffffffffffffffffffffffffffffffffffffffff166110e8611148565b73ffffffffffffffffffffffffffffffffffffffff161461113e576040517f08c379a000000000000000000000000000000000000000000000000000000000815260040161113590613e40565b60405180910390fd5b611146612156565b565b6000600360009054906101000a900473ffffffffffffffffffffffffffffffffffffffff16905090565b6008805461117f90613e8f565b80601f01602080910402602001604051908101604052809291908181526020018280546111ab90613e8f565b80156111f85780601f106111cd576101008083540402835291602001916111f8565b820191906000526020600020905b8154815290600101906020018083116111db57829003601f168201915b505050505081565b61121261120b611724565b83836121f9565b5050565b600a5481565b6004818154811061122c57600080fd5b906000526020600020906002020160009150905080600001805461124f90613e8f565b80601f016020809104026020016040519081016040528092919081815260200182805461127b90613e8f565b80156112c85780601f1061129d576101008083540402835291602001916112c8565b820191906000526020600020905b8154815290600101906020018083116112ab57829003601f168201915b5050505050908060010160009054906101000a900460ff16908060010160019054906101000a900460ff16908060010160029054906101000a900461ffff16908060010160049054906101000a900461ffff16908060010160069054906101000a900460ff16908060010160079054906101000a900460ff16908060010160089054906101000a900460ff16908060010160099054906101000a900460ff169080600101600a9054906101000a900460ff169080600101600b9054906101000a900460ff1690508b565b61139a611724565b73ffffffffffffffffffffffffffffffffffffffff166113b8611148565b73ffffffffffffffffffffffffffffffffffffffff161461140e576040517f08c379a000000000000000000000000000000000000000000000000000000000815260040161140590613e40565b60405180910390fd5b600073ffffffffffffffffffffffffffffffffffffffff168173ffffffffffffffffffffffffffffffffffffffff161415611447573390505b600a54600b541061145757600080fd5b600b600081548092919061146a90614043565b91905055506114818a8a8a8a8a8a8a8a8a8a612366565b50505050505050505050565b6000600160008473ffffffffffffffffffffffffffffffffffffffff1673ffffffffffffffffffffffffffffffffffffffff16815260200190815260200160002060008373ffffffffffffffffffffffffffffffffffffffff1673ffffffffffffffffffffffffffffffffffffffff16815260200190815260200160002060009054906101000a900460ff16905092915050565b611529611724565b73ffffffffffffffffffffffffffffffffffffffff168573ffffffffffffffffffffffffffffffffffffffff16148061156f575061156e85611569611724565b61148d565b5b6115ae576040517f08c379a00000000000000000000000000000000000000000000000000000000081526004016115a5906140fe565b60405180910390fd5b6115bb85858585856126be565b5050505050565b6115ca611724565b73ffffffffffffffffffffffffffffffffffffffff166115e8611148565b73ffffffffffffffffffffffffffffffffffffffff161461163e576040517f08c379a000000000000000000000000000000000000000000000000000000000815260040161163590613e40565b60405180910390fd5b600073ffffffffffffffffffffffffffffffffffffffff168173ffffffffffffffffffffffffffffffffffffffff1614156116ae576040517f08c379a00000000000000000000000000000000000000000000000000000000081526004016116a590614190565b60405180910390fd5b6116b781611efa565b50565b60007f01ffc9a7000000000000000000000000000000000000000000000000000000007bffffffffffffffffffffffffffffffffffffffffffffffffffffffff1916827bffffffffffffffffffffffffffffffffffffffffffffffffffffffff1916149050919050565b600033905090565b8060029080519060200190611742929190612df3565b5050565b600073ffffffffffffffffffffffffffffffffffffffff168473ffffffffffffffffffffffffffffffffffffffff1614156117b6576040517f08c379a00000000000000000000000000000000000000000000000000000000081526004016117ad90614222565b60405180910390fd5b81518351146117fa576040517f08c379a00000000000000000000000000000000000000000000000000000000081526004016117f1906142b4565b60405180910390fd5b6000611804611724565b905061181581600087878787612940565b60005b84518110156118ce5783818151811061183457611833613fe5565b5b602002602001015160008087848151811061185257611851613fe5565b5b6020026020010151815260200190815260200160002060008873ffffffffffffffffffffffffffffffffffffffff1673ffffffffffffffffffffffffffffffffffffffff16815260200190815260200160002060008282546118b491906142d4565b9250508190555080806118c690614043565b915050611818565b508473ffffffffffffffffffffffffffffffffffffffff16600073ffffffffffffffffffffffffffffffffffffffff168273ffffffffffffffffffffffffffffffffffffffff167f4a39dc06d4c0dbc64b70af90fd698a233a518aa5d07e595d983b8c0526c8f7fb878760405161194692919061432a565b60405180910390a461195d8160008787878761299e565b5050505050565b600660008373ffffffffffffffffffffffffffffffffffffffff1673ffffffffffffffffffffffffffffffffffffffff16815260200190815260200160002060008154809291906119b490614043565b91905055600660008473ffffffffffffffffffffffffffffffffffffffff1673ffffffffffffffffffffffffffffffffffffffff16815260200190815260200160002081905550600660003373ffffffffffffffffffffffffffffffffffffffff1673ffffffffffffffffffffffffffffffffffffffff1681526020019081526020016000206000815480929190611a4b90614361565b91905055600660003373ffffffffffffffffffffffffffffffffffffffff1673ffffffffffffffffffffffffffffffffffffffff16815260200190815260200160002081905550816005600083815260200190815260200160002060006101000a81548173ffffffffffffffffffffffffffffffffffffffff021916908373ffffffffffffffffffffffffffffffffffffffff160217905550808273ffffffffffffffffffffffffffffffffffffffff168473ffffffffffffffffffffffffffffffffffffffff167fddf252ad1be2c89b69c2b068fc378daa952ba7f163c4a11628f55a4df523b3ef60405160405180910390a4505050565b8151835114611b88576040517f08c379a0000000000000000000000000000000000000000000000000000000008152600401611b7f906142b4565b60405180910390fd5b600073ffffffffffffffffffffffffffffffffffffffff168473ffffffffffffffffffffffffffffffffffffffff161415611bf8576040517f08c379a0000000000000000000000000000000000000000000000000000000008152600401611bef906143fd565b60405180910390fd5b6000611c02611724565b9050611c12818787878787612940565b60005b8451811015611dc3576000858281518110611c3357611c32613fe5565b5b602002602001015190506000858381518110611c5257611c51613fe5565b5b60200260200101519050600080600084815260200190815260200160002060008b73ffffffffffffffffffffffffffffffffffffffff1673ffffffffffffffffffffffffffffffffffffffff16815260200190815260200160002054905081811015611cf3576040517f08c379a0000000000000000000000000000000000000000000000000000000008152600401611cea9061448f565b60405180910390fd5b81810360008085815260200190815260200160002060008c73ffffffffffffffffffffffffffffffffffffffff1673ffffffffffffffffffffffffffffffffffffffff168152602001908152602001600020819055508160008085815260200190815260200160002060008b73ffffffffffffffffffffffffffffffffffffffff1673ffffffffffffffffffffffffffffffffffffffff1681526020019081526020016000206000828254611da891906142d4565b9250508190555050505080611dbc90614043565b9050611c15565b508473ffffffffffffffffffffffffffffffffffffffff168673ffffffffffffffffffffffffffffffffffffffff168273ffffffffffffffffffffffffffffffffffffffff167f4a39dc06d4c0dbc64b70af90fd698a233a518aa5d07e595d983b8c0526c8f7fb8787604051611e3a92919061432a565b60405180910390a4611e5081878787878761299e565b505050505050565b611e60610edc565b611e9f576040517f08c379a0000000000000000000000000000000000000000000000000000000008152600401611e96906144fb565b60405180910390fd5b6000600360146101000a81548160ff0219169083151502179055507f5db9ee0a495bf2e6ff9c91a7834c1ba4fdd244a5e8aa4e537bd38aeae4b073aa611ee3611724565b604051611ef09190613839565b60405180910390a1565b6000600360009054906101000a900473ffffffffffffffffffffffffffffffffffffffff16905081600360006101000a81548173ffffffffffffffffffffffffffffffffffffffff021916908373ffffffffffffffffffffffffffffffffffffffff1602179055508173ffffffffffffffffffffffffffffffffffffffff168173ffffffffffffffffffffffffffffffffffffffff167f8be0079c531659141344cd1fd0a4f28419497f9722a3daafe3b4186f6b6457e060405160405180910390a35050565b600073ffffffffffffffffffffffffffffffffffffffff168473ffffffffffffffffffffffffffffffffffffffff161415612030576040517f08c379a000000000000000000000000000000000000000000000000000000000815260040161202790614222565b60405180910390fd5b600061203a611724565b905061205b8160008761204c88612b76565b61205588612b76565b87612940565b8260008086815260200190815260200160002060008773ffffffffffffffffffffffffffffffffffffffff1673ffffffffffffffffffffffffffffffffffffffff16815260200190815260200160002060008282546120ba91906142d4565b925050819055508473ffffffffffffffffffffffffffffffffffffffff16600073ffffffffffffffffffffffffffffffffffffffff168273ffffffffffffffffffffffffffffffffffffffff167fc3d58168c5ae7397731d063d5bbf3d657854427343f4c083240f7aacaa2d0f62878760405161213892919061451b565b60405180910390a461214f81600087878787612bf0565b5050505050565b61215e610edc565b1561219e576040517f08c379a000000000000000000000000000000000000000000000000000000000815260040161219590614590565b60405180910390fd5b6001600360146101000a81548160ff0219169083151502179055507f62e78cea01bee320cd4e420270b5ea74000d11b0c9f74754ebdbfc544b05a2586121e2611724565b6040516121ef9190613839565b60405180910390a1565b8173ffffffffffffffffffffffffffffffffffffffff168373ffffffffffffffffffffffffffffffffffffffff161415612268576040517f08c379a000000000000000000000000000000000000000000000000000000000815260040161225f90614622565b60405180910390fd5b80600160008573ffffffffffffffffffffffffffffffffffffffff1673ffffffffffffffffffffffffffffffffffffffff16815260200190815260200160002060008473ffffffffffffffffffffffffffffffffffffffff1673ffffffffffffffffffffffffffffffffffffffff16815260200190815260200160002060006101000a81548160ff0219169083151502179055508173ffffffffffffffffffffffffffffffffffffffff168373ffffffffffffffffffffffffffffffffffffffff167f17307eab39ab6107e8899845ad3d59bd9653f200f220920489ca2b5937696c31836040516123599190613048565b60405180910390a3505050565b60046040518061016001604052808c81526020018b600481111561238d5761238c613970565b5b81526020018a60048111156123a5576123a4613970565b5b8152602001600061ffff168152602001600061ffff1681526020018960ff1681526020018860ff1681526020018760ff1681526020018660ff1681526020018560ff1681526020018460ff1681525090806001815401808255809150506001900390600052602060002090600202016000909190919091506000820151816000019080519060200190612439929190612df3565b5060208201518160010160006101000a81548160ff0219169083600481111561246557612464613970565b5b021790555060408201518160010160016101000a81548160ff0219169083600481111561249557612494613970565b5b021790555060608201518160010160026101000a81548161ffff021916908361ffff16021790555060808201518160010160046101000a81548161ffff021916908361ffff16021790555060a08201518160010160066101000a81548160ff021916908360ff16021790555060c08201518160010160076101000a81548160ff021916908360ff16021790555060e08201518160010160086101000a81548160ff021916908360ff1602179055506101008201518160010160096101000a81548160ff021916908360ff16021790555061012082015181600101600a6101000a81548160ff021916908360ff16021790555061014082015181600101600b6101000a81548160ff021916908360ff1602179055505050600060016004805490506125bf9190614642565b9050816005600083815260200190815260200160002060006101000a81548173ffffffffffffffffffffffffffffffffffffffff021916908373ffffffffffffffffffffffffffffffffffffffff160217905550600660008373ffffffffffffffffffffffffffffffffffffffff1673ffffffffffffffffffffffffffffffffffffffff168152602001908152602001600020600081548092919061266390614043565b91905055507f41969a87848c7453ff5b5c86cc30dedd012ee08931f33c222ad1683fe9673f74818c8c8c8c8c8c8c8c8c6040516126a99a999897969594939291906146b1565b60405180910390a15050505050505050505050565b600073ffffffffffffffffffffffffffffffffffffffff168473ffffffffffffffffffffffffffffffffffffffff16141561272e576040517f08c379a0000000000000000000000000000000000000000000000000000000008152600401612725906143fd565b60405180910390fd5b6000612738611724565b905061275881878761274988612b76565b61275288612b76565b87612940565b600080600086815260200190815260200160002060008873ffffffffffffffffffffffffffffffffffffffff1673ffffffffffffffffffffffffffffffffffffffff168152602001908152602001600020549050838110156127ef576040517f08c379a00000000000000000000000000000000000000000000000000000000081526004016127e69061448f565b60405180910390fd5b83810360008087815260200190815260200160002060008973ffffffffffffffffffffffffffffffffffffffff1673ffffffffffffffffffffffffffffffffffffffff168152602001908152602001600020819055508360008087815260200190815260200160002060008873ffffffffffffffffffffffffffffffffffffffff1673ffffffffffffffffffffffffffffffffffffffff16815260200190815260200160002060008282546128a491906142d4565b925050819055508573ffffffffffffffffffffffffffffffffffffffff168773ffffffffffffffffffffffffffffffffffffffff168373ffffffffffffffffffffffffffffffffffffffff167fc3d58168c5ae7397731d063d5bbf3d657854427343f4c083240f7aacaa2d0f62888860405161292192919061451b565b60405180910390a4612937828888888888612bf0565b50505050505050565b612948610edc565b15612988576040517f08c379a000000000000000000000000000000000000000000000000000000000815260040161297f90614590565b60405180910390fd5b612996868686868686612dc8565b505050505050565b6129bd8473ffffffffffffffffffffffffffffffffffffffff16612dd0565b15612b6e578373ffffffffffffffffffffffffffffffffffffffff1663bc197c8187878686866040518663ffffffff1660e01b8152600401612a039594939291906147a9565b6020604051808303816000875af1925050508015612a3f57506040513d601f19601f82011682018060405250810190612a3c9190614826565b60015b612ae557612a4b614860565b806308c379a01415612aa85750612a60614882565b80612a6b5750612aaa565b806040517f08c379a0000000000000000000000000000000000000000000000000000000008152600401612a9f919061327a565b60405180910390fd5b505b6040517f08c379a0000000000000000000000000000000000000000000000000000000008152600401612adc9061498a565b60405180910390fd5b63bc197c8160e01b7bffffffffffffffffffffffffffffffffffffffffffffffffffffffff1916817bffffffffffffffffffffffffffffffffffffffffffffffffffffffff191614612b6c576040517f08c379a0000000000000000000000000000000000000000000000000000000008152600401612b6390614a1c565b60405180910390fd5b505b505050505050565b60606000600167ffffffffffffffff811115612b9557612b9461307e565b5b604051908082528060200260200182016040528015612bc35781602001602082028036833780820191505090505b5090508281600081518110612bdb57612bda613fe5565b5b60200260200101818152505080915050919050565b612c0f8473ffffffffffffffffffffffffffffffffffffffff16612dd0565b15612dc0578373ffffffffffffffffffffffffffffffffffffffff1663f23a6e6187878686866040518663ffffffff1660e01b8152600401612c55959493929190614a3c565b6020604051808303816000875af1925050508015612c9157506040513d601f19601f82011682018060405250810190612c8e9190614826565b60015b612d3757612c9d614860565b806308c379a01415612cfa5750612cb2614882565b80612cbd5750612cfc565b806040517f08c379a0000000000000000000000000000000000000000000000000000000008152600401612cf1919061327a565b60405180910390fd5b505b6040517f08c379a0000000000000000000000000000000000000000000000000000000008152600401612d2e9061498a565b60405180910390fd5b63f23a6e6160e01b7bffffffffffffffffffffffffffffffffffffffffffffffffffffffff1916817bffffffffffffffffffffffffffffffffffffffffffffffffffffffff191614612dbe576040517f08c379a0000000000000000000000000000000000000000000000000000000008152600401612db590614a1c565b60405180910390fd5b505b505050505050565b505050505050565b6000808273ffffffffffffffffffffffffffffffffffffffff163b119050919050565b828054612dff90613e8f565b90600052602060002090601f016020900481019282612e215760008555612e68565b82601f10612e3a57805160ff1916838001178555612e68565b82800160010185558215612e68579182015b82811115612e67578251825591602001919060010190612e4c565b5b509050612e759190612e79565b5090565b5b80821115612e92576000816000905550600101612e7a565b5090565b6000604051905090565b600080fd5b600080fd5b600073ffffffffffffffffffffffffffffffffffffffff82169050919050565b6000612ed582612eaa565b9050919050565b612ee581612eca565b8114612ef057600080fd5b50565b600081359050612f0281612edc565b92915050565b6000819050919050565b612f1b81612f08565b8114612f2657600080fd5b50565b600081359050612f3881612f12565b92915050565b60008060408385031215612f5557612f54612ea0565b5b6000612f6385828601612ef3565b9250506020612f7485828601612f29565b9150509250929050565b612f8781612f08565b82525050565b6000602082019050612fa26000830184612f7e565b92915050565b60007fffffffff0000000000000000000000000000000000000000000000000000000082169050919050565b612fdd81612fa8565b8114612fe857600080fd5b50565b600081359050612ffa81612fd4565b92915050565b60006020828403121561301657613015612ea0565b5b600061302484828501612feb565b91505092915050565b60008115159050919050565b6130428161302d565b82525050565b600060208201905061305d6000830184613039565b92915050565b600080fd5b600080fd5b6000601f19601f8301169050919050565b7f4e487b7100000000000000000000000000000000000000000000000000000000600052604160045260246000fd5b6130b68261306d565b810181811067ffffffffffffffff821117156130d5576130d461307e565b5b80604052505050565b60006130e8612e96565b90506130f482826130ad565b919050565b600067ffffffffffffffff8211156131145761311361307e565b5b61311d8261306d565b9050602081019050919050565b82818337600083830152505050565b600061314c613147846130f9565b6130de565b90508281526020810184848401111561316857613167613068565b5b61317384828561312a565b509392505050565b600082601f8301126131905761318f613063565b5b81356131a0848260208601613139565b91505092915050565b6000602082840312156131bf576131be612ea0565b5b600082013567ffffffffffffffff8111156131dd576131dc612ea5565b5b6131e98482850161317b565b91505092915050565b600081519050919050565b600082825260208201905092915050565b60005b8381101561322c578082015181840152602081019050613211565b8381111561323b576000848401525b50505050565b600061324c826131f2565b61325681856131fd565b935061326681856020860161320e565b61326f8161306d565b840191505092915050565b600060208201905081810360008301526132948184613241565b905092915050565b6000602082840312156132b2576132b1612ea0565b5b60006132c084828501612f29565b91505092915050565b600067ffffffffffffffff8211156132e4576132e361307e565b5b602082029050602081019050919050565b600080fd5b600061330d613308846132c9565b6130de565b905080838252602082019050602084028301858111156133305761332f6132f5565b5b835b8181101561335957806133458882612f29565b845260208401935050602081019050613332565b5050509392505050565b600082601f83011261337857613377613063565b5b81356133888482602086016132fa565b91505092915050565b600067ffffffffffffffff8211156133ac576133ab61307e565b5b6133b58261306d565b9050602081019050919050565b60006133d56133d084613391565b6130de565b9050828152602081018484840111156133f1576133f0613068565b5b6133fc84828561312a565b509392505050565b600082601f83011261341957613418613063565b5b81356134298482602086016133c2565b91505092915050565b6000806000806080858703121561344c5761344b612ea0565b5b600061345a87828801612ef3565b945050602085013567ffffffffffffffff81111561347b5761347a612ea5565b5b61348787828801613363565b935050604085013567ffffffffffffffff8111156134a8576134a7612ea5565b5b6134b487828801613363565b925050606085013567ffffffffffffffff8111156134d5576134d4612ea5565b5b6134e187828801613404565b91505092959194509250565b60008060006060848603121561350657613505612ea0565b5b600061351486828701612ef3565b935050602061352586828701612ef3565b925050604061353686828701612f29565b9150509250925092565b600080600080600060a0868803121561355c5761355b612ea0565b5b600061356a88828901612ef3565b955050602061357b88828901612ef3565b945050604086013567ffffffffffffffff81111561359c5761359b612ea5565b5b6135a888828901613363565b935050606086013567ffffffffffffffff8111156135c9576135c8612ea5565b5b6135d588828901613363565b925050608086013567ffffffffffffffff8111156135f6576135f5612ea5565b5b61360288828901613404565b9150509295509295909350565b600067ffffffffffffffff82111561362a5761362961307e565b5b602082029050602081019050919050565b600061364e6136498461360f565b6130de565b90508083825260208201905060208402830185811115613671576136706132f5565b5b835b8181101561369a57806136868882612ef3565b845260208401935050602081019050613673565b5050509392505050565b600082601f8301126136b9576136b8613063565b5b81356136c984826020860161363b565b91505092915050565b600080604083850312156136e9576136e8612ea0565b5b600083013567ffffffffffffffff81111561370757613706612ea5565b5b613713858286016136a4565b925050602083013567ffffffffffffffff81111561373457613733612ea5565b5b61374085828601613363565b9150509250929050565b600081519050919050565b600082825260208201905092915050565b6000819050602082019050919050565b61377f81612f08565b82525050565b60006137918383613776565b60208301905092915050565b6000602082019050919050565b60006137b58261374a565b6137bf8185613755565b93506137ca83613766565b8060005b838110156137fb5781516137e28882613785565b97506137ed8361379d565b9250506001810190506137ce565b5085935050505092915050565b6000602082019050818103600083015261382281846137aa565b905092915050565b61383381612eca565b82525050565b600060208201905061384e600083018461382a565b92915050565b60006020828403121561386a57613869612ea0565b5b600061387884828501612ef3565b91505092915050565b6000806000806080858703121561389b5761389a612ea0565b5b60006138a987828801612ef3565b94505060206138ba87828801612f29565b93505060406138cb87828801612f29565b925050606085013567ffffffffffffffff8111156138ec576138eb612ea5565b5b6138f887828801613404565b91505092959194509250565b61390d8161302d565b811461391857600080fd5b50565b60008135905061392a81613904565b92915050565b6000806040838503121561394757613946612ea0565b5b600061395585828601612ef3565b92505060206139668582860161391b565b9150509250929050565b7f4e487b7100000000000000000000000000000000000000000000000000000000600052602160045260246000fd5b600581106139b0576139af613970565b5b50565b60008190506139c18261399f565b919050565b60006139d1826139b3565b9050919050565b6139e1816139c6565b82525050565b600581106139f8576139f7613970565b5b50565b6000819050613a09826139e7565b919050565b6000613a19826139fb565b9050919050565b613a2981613a0e565b82525050565b600061ffff82169050919050565b613a4681613a2f565b82525050565b600060ff82169050919050565b613a6281613a4c565b82525050565b6000610160820190508181036000830152613a83818e613241565b9050613a92602083018d6139d8565b613a9f604083018c613a20565b613aac606083018b613a3d565b613ab9608083018a613a3d565b613ac660a0830189613a59565b613ad360c0830188613a59565b613ae060e0830187613a59565b613aee610100830186613a59565b613afc610120830185613a59565b613b0a610140830184613a59565b9c9b505050505050505050505050565b60058110613b2757600080fd5b50565b600081359050613b3981613b1a565b92915050565b60058110613b4c57600080fd5b50565b600081359050613b5e81613b3f565b92915050565b613b6d81613a4c565b8114613b7857600080fd5b50565b600081359050613b8a81613b64565b92915050565b6000806000806000806000806000806101408b8d031215613bb457613bb3612ea0565b5b60008b013567ffffffffffffffff811115613bd257613bd1612ea5565b5b613bde8d828e0161317b565b9a50506020613bef8d828e01613b2a565b9950506040613c008d828e01613b4f565b9850506060613c118d828e01613b7b565b9750506080613c228d828e01613b7b565b96505060a0613c338d828e01613b7b565b95505060c0613c448d828e01613b7b565b94505060e0613c558d828e01613b7b565b935050610100613c678d828e01613b7b565b925050610120613c798d828e01612ef3565b9150509295989b9194979a5092959850565b60008060408385031215613ca257613ca1612ea0565b5b6000613cb085828601612ef3565b9250506020613cc185828601612ef3565b9150509250929050565b600080600080600060a08688031215613ce757613ce6612ea0565b5b6000613cf588828901612ef3565b9550506020613d0688828901612ef3565b9450506040613d1788828901612f29565b9350506060613d2888828901612f29565b925050608086013567ffffffffffffffff811115613d4957613d48612ea5565b5b613d5588828901613404565b9150509295509295909350565b7f455243313135353a2062616c616e636520717565727920666f7220746865207a60008201527f65726f2061646472657373000000000000000000000000000000000000000000602082015250565b6000613dbe602b836131fd565b9150613dc982613d62565b604082019050919050565b60006020820190508181036000830152613ded81613db1565b9050919050565b7f4f776e61626c653a2063616c6c6572206973206e6f7420746865206f776e6572600082015250565b6000613e2a6020836131fd565b9150613e3582613df4565b602082019050919050565b60006020820190508181036000830152613e5981613e1d565b9050919050565b7f4e487b7100000000000000000000000000000000000000000000000000000000600052602260045260246000fd5b60006002820490506001821680613ea757607f821691505b60208210811415613ebb57613eba613e60565b5b50919050565b7f455243313135353a207472616e736665722063616c6c6572206973206e6f742060008201527f6f776e6572206e6f7220617070726f7665640000000000000000000000000000602082015250565b6000613f1d6032836131fd565b9150613f2882613ec1565b604082019050919050565b60006020820190508181036000830152613f4c81613f10565b9050919050565b7f455243313135353a206163636f756e747320616e6420696473206c656e67746860008201527f206d69736d617463680000000000000000000000000000000000000000000000602082015250565b6000613faf6029836131fd565b9150613fba82613f53565b604082019050919050565b60006020820190508181036000830152613fde81613fa2565b9050919050565b7f4e487b7100000000000000000000000000000000000000000000000000000000600052603260045260246000fd5b7f4e487b7100000000000000000000000000000000000000000000000000000000600052601160045260246000fd5b600061404e82612f08565b91507fffffffffffffffffffffffffffffffffffffffffffffffffffffffffffffffff82141561408157614080614014565b5b600182019050919050565b7f455243313135353a2063616c6c6572206973206e6f74206f776e6572206e6f7260008201527f20617070726f7665640000000000000000000000000000000000000000000000602082015250565b60006140e86029836131fd565b91506140f38261408c565b604082019050919050565b60006020820190508181036000830152614117816140db565b9050919050565b7f4f776e61626c653a206e6577206f776e657220697320746865207a65726f206160008201527f6464726573730000000000000000000000000000000000000000000000000000602082015250565b600061417a6026836131fd565b91506141858261411e565b604082019050919050565b600060208201905081810360008301526141a98161416d565b9050919050565b7f455243313135353a206d696e7420746f20746865207a65726f2061646472657360008201527f7300000000000000000000000000000000000000000000000000000000000000602082015250565b600061420c6021836131fd565b9150614217826141b0565b604082019050919050565b6000602082019050818103600083015261423b816141ff565b9050919050565b7f455243313135353a2069647320616e6420616d6f756e7473206c656e6774682060008201527f6d69736d61746368000000000000000000000000000000000000000000000000602082015250565b600061429e6028836131fd565b91506142a982614242565b604082019050919050565b600060208201905081810360008301526142cd81614291565b9050919050565b60006142df82612f08565b91506142ea83612f08565b9250827fffffffffffffffffffffffffffffffffffffffffffffffffffffffffffffffff0382111561431f5761431e614014565b5b828201905092915050565b6000604082019050818103600083015261434481856137aa565b9050818103602083015261435881846137aa565b90509392505050565b600061436c82612f08565b915060008214156143805761437f614014565b5b600182039050919050565b7f455243313135353a207472616e7366657220746f20746865207a65726f20616460008201527f6472657373000000000000000000000000000000000000000000000000000000602082015250565b60006143e76025836131fd565b91506143f28261438b565b604082019050919050565b60006020820190508181036000830152614416816143da565b9050919050565b7f455243313135353a20696e73756666696369656e742062616c616e636520666f60008201527f72207472616e7366657200000000000000000000000000000000000000000000602082015250565b6000614479602a836131fd565b91506144848261441d565b604082019050919050565b600060208201905081810360008301526144a88161446c565b9050919050565b7f5061757361626c653a206e6f7420706175736564000000000000000000000000600082015250565b60006144e56014836131fd565b91506144f0826144af565b602082019050919050565b60006020820190508181036000830152614514816144d8565b9050919050565b60006040820190506145306000830185612f7e565b61453d6020830184612f7e565b9392505050565b7f5061757361626c653a2070617573656400000000000000000000000000000000600082015250565b600061457a6010836131fd565b915061458582614544565b602082019050919050565b600060208201905081810360008301526145a98161456d565b9050919050565b7f455243313135353a2073657474696e6720617070726f76616c2073746174757360008201527f20666f722073656c660000000000000000000000000000000000000000000000602082015250565b600061460c6029836131fd565b9150614617826145b0565b604082019050919050565b6000602082019050818103600083015261463b816145ff565b9050919050565b600061464d82612f08565b915061465883612f08565b92508282101561466b5761466a614014565b5b828203905092915050565b6000819050919050565b600061469b61469661469184613a4c565b614676565b612f08565b9050919050565b6146ab81614680565b82525050565b6000610140820190506146c7600083018d612f7e565b81810360208301526146d9818c613241565b90506146e8604083018b6139d8565b6146f5606083018a613a20565b61470260808301896146a2565b61470f60a08301886146a2565b61471c60c08301876146a2565b61472960e08301866146a2565b6147376101008301856146a2565b6147456101208301846146a2565b9b9a5050505050505050505050565b600081519050919050565b600082825260208201905092915050565b600061477b82614754565b614785818561475f565b935061479581856020860161320e565b61479e8161306d565b840191505092915050565b600060a0820190506147be600083018861382a565b6147cb602083018761382a565b81810360408301526147dd81866137aa565b905081810360608301526147f181856137aa565b905081810360808301526148058184614770565b90509695505050505050565b60008151905061482081612fd4565b92915050565b60006020828403121561483c5761483b612ea0565b5b600061484a84828501614811565b91505092915050565b60008160e01c9050919050565b600060033d111561487f5760046000803e61487c600051614853565b90505b90565b600060443d101561489257614915565b61489a612e96565b60043d036004823e80513d602482011167ffffffffffffffff821117156148c2575050614915565b808201805167ffffffffffffffff8111156148e05750505050614915565b80602083010160043d0385018111156148fd575050505050614915565b61490c826020018501866130ad565b82955050505050505b90565b7f455243313135353a207472616e7366657220746f206e6f6e204552433131353560008201527f526563656976657220696d706c656d656e746572000000000000000000000000602082015250565b60006149746034836131fd565b915061497f82614918565b604082019050919050565b600060208201905081810360008301526149a381614967565b9050919050565b7f455243313135353a204552433131353552656365697665722072656a6563746560008201527f6420746f6b656e73000000000000000000000000000000000000000000000000602082015250565b6000614a066028836131fd565b9150614a11826149aa565b604082019050919050565b60006020820190508181036000830152614a35816149f9565b9050919050565b600060a082019050614a51600083018861382a565b614a5e602083018761382a565b614a6b6040830186612f7e565b614a786060830185612f7e565b8181036080830152614a8a8184614770565b9050969550505050505056fea26469706673582212205927e52015a97ddd269db0612c13a565b0bf67c40d7e72de5fb552505a0f38ae64736f6c634300080c0033",
  "immutableReferences": {},
  "source": "pragma solidity ^0.8.4;\r\n\r\nimport \"./dragonownership.sol\";\r\n\r\ncontract DragonMinting is DragonOwnership {\r\n\r\n    // Limits the number of dragons the contract owner can ever create.\r\n    uint256 public promoCreationLimit = 500;\r\n\r\n    // Counts the number of cats the contract owner has created.\r\n    uint256 public promoCreatedCount;\r\n\r\n    function createPromoDragon(string memory _name, Rarity _rarity, Class _class, uint8 _accel, uint8 _endu, uint8 _hp, uint8 _recov, uint8 _topSpeed, uint8 _weight, address _owner) public onlyOwner {\r\n        if (_owner == address(0)) {\r\n            _owner = msg.sender;\r\n        }\r\n        require(promoCreatedCount < promoCreationLimit);\r\n\r\n        promoCreatedCount++;\r\n        _createDragon(_name, _rarity, _class, _accel, _endu, _hp, _recov, _topSpeed, _weight, _owner);\r\n    }\r\n\r\n}\r\n",
  "sourcePath": "C:\\Projects\\meta-dragons\\Truffle\\contracts\\dragonminting.sol",
  "compiler": {
    "name": "solc",
    "version": "0.8.12+commit.f00d7308.Emscripten.clang"
  },
  "schemaVersion": "3.4.5",
  "updatedAt": "2022-03-04T10:18:06.235Z",
  "devdoc": {
    "kind": "dev",
    "methods": {
      "balanceOf(address,uint256)": {
        "details": "See {IERC1155-balanceOf}. Requirements: - `account` cannot be the zero address."
      },
      "balanceOfBatch(address[],uint256[])": {
        "details": "See {IERC1155-balanceOfBatch}. Requirements: - `accounts` and `ids` must have the same length."
      },
      "isApprovedForAll(address,address)": {
        "details": "See {IERC1155-isApprovedForAll}."
      },
      "owner()": {
        "details": "Returns the address of the current owner."
      },
      "paused()": {
        "details": "Returns true if the contract is paused, and false otherwise."
      },
      "renounceOwnership()": {
        "details": "Leaves the contract without owner. It will not be possible to call `onlyOwner` functions anymore. Can only be called by the current owner. NOTE: Renouncing ownership will leave the contract without an owner, thereby removing any functionality that is only available to the owner."
      },
      "safeBatchTransferFrom(address,address,uint256[],uint256[],bytes)": {
        "details": "See {IERC1155-safeBatchTransferFrom}."
      },
      "safeTransferFrom(address,address,uint256,uint256,bytes)": {
        "details": "See {IERC1155-safeTransferFrom}."
      },
      "setApprovalForAll(address,bool)": {
        "details": "See {IERC1155-setApprovalForAll}."
      },
      "supportsInterface(bytes4)": {
        "details": "See {IERC165-supportsInterface}."
      },
      "transferOwnership(address)": {
        "details": "Transfers ownership of the contract to a new account (`newOwner`). Can only be called by the current owner."
      },
      "uri(uint256)": {
        "details": "See {IERC1155MetadataURI-uri}. This implementation returns the same URI for *all* token types. It relies on the token type ID substitution mechanism https://eips.ethereum.org/EIPS/eip-1155#metadata[defined in the EIP]. Clients calling this function must replace the `\\{id\\}` substring with the actual token type ID."
      }
    },
    "version": 1
  },
  "userdoc": {
    "kind": "user",
    "methods": {},
    "version": 1
  }
}