{
  "contractName": "DragonOwnership",
  "abi": [
    {
      "inputs": [],
      "stateMutability": "nonpayable",
      "type": "constructor"
    },
    {
      "anonymous": false,
      "inputs": [
        {
          "indexed": true,
          "internalType": "address",
          "name": "_owner",
          "type": "address"
        },
        {
          "indexed": true,
          "internalType": "address",
          "name": "_approved",
          "type": "address"
        },
        {
          "indexed": true,
          "internalType": "uint256",
          "name": "_tokenId",
          "type": "uint256"
        }
      ],
      "name": "Approval",
      "type": "event"
    },
    {
      "anonymous": false,
      "inputs": [
        {
          "indexed": true,
          "internalType": "address",
          "name": "account",
          "type": "address"
        },
        {
          "indexed": true,
          "internalType": "address",
          "name": "operator",
          "type": "address"
        },
        {
          "indexed": false,
          "internalType": "bool",
          "name": "approved",
          "type": "bool"
        }
      ],
      "name": "ApprovalForAll",
      "type": "event"
    },
    {
      "anonymous": false,
      "inputs": [
        {
          "indexed": false,
          "internalType": "uint256",
          "name": "dragonId",
          "type": "uint256"
        },
        {
          "indexed": false,
          "internalType": "string",
          "name": "name",
          "type": "string"
        },
        {
          "indexed": false,
          "internalType": "enum DragonFactory.Rarity",
          "name": "rarity",
          "type": "uint8"
        },
        {
          "indexed": false,
          "internalType": "enum DragonFactory.Class",
          "name": "class",
          "type": "uint8"
        },
        {
          "indexed": false,
          "internalType": "uint256",
          "name": "accel",
          "type": "uint256"
        },
        {
          "indexed": false,
          "internalType": "uint256",
          "name": "endu",
          "type": "uint256"
        },
        {
          "indexed": false,
          "internalType": "uint256",
          "name": "hp",
          "type": "uint256"
        },
        {
          "indexed": false,
          "internalType": "uint256",
          "name": "recov",
          "type": "uint256"
        },
        {
          "indexed": false,
          "internalType": "uint256",
          "name": "topSpeed",
          "type": "uint256"
        },
        {
          "indexed": false,
          "internalType": "uint256",
          "name": "weight",
          "type": "uint256"
        }
      ],
      "name": "NewDragon",
      "type": "event"
    },
    {
      "anonymous": false,
      "inputs": [
        {
          "indexed": true,
          "internalType": "address",
          "name": "previousOwner",
          "type": "address"
        },
        {
          "indexed": true,
          "internalType": "address",
          "name": "newOwner",
          "type": "address"
        }
      ],
      "name": "OwnershipTransferred",
      "type": "event"
    },
    {
      "anonymous": false,
      "inputs": [
        {
          "indexed": false,
          "internalType": "address",
          "name": "account",
          "type": "address"
        }
      ],
      "name": "Paused",
      "type": "event"
    },
    {
      "anonymous": false,
      "inputs": [
        {
          "indexed": true,
          "internalType": "address",
          "name": "_from",
          "type": "address"
        },
        {
          "indexed": true,
          "internalType": "address",
          "name": "_to",
          "type": "address"
        },
        {
          "indexed": true,
          "internalType": "uint256",
          "name": "_tokenId",
          "type": "uint256"
        }
      ],
      "name": "Transfer",
      "type": "event"
    },
    {
      "anonymous": false,
      "inputs": [
        {
          "indexed": true,
          "internalType": "address",
          "name": "operator",
          "type": "address"
        },
        {
          "indexed": true,
          "internalType": "address",
          "name": "from",
          "type": "address"
        },
        {
          "indexed": true,
          "internalType": "address",
          "name": "to",
          "type": "address"
        },
        {
          "indexed": false,
          "internalType": "uint256[]",
          "name": "ids",
          "type": "uint256[]"
        },
        {
          "indexed": false,
          "internalType": "uint256[]",
          "name": "values",
          "type": "uint256[]"
        }
      ],
      "name": "TransferBatch",
      "type": "event"
    },
    {
      "anonymous": false,
      "inputs": [
        {
          "indexed": true,
          "internalType": "address",
          "name": "operator",
          "type": "address"
        },
        {
          "indexed": true,
          "internalType": "address",
          "name": "from",
          "type": "address"
        },
        {
          "indexed": true,
          "internalType": "address",
          "name": "to",
          "type": "address"
        },
        {
          "indexed": false,
          "internalType": "uint256",
          "name": "id",
          "type": "uint256"
        },
        {
          "indexed": false,
          "internalType": "uint256",
          "name": "value",
          "type": "uint256"
        }
      ],
      "name": "TransferSingle",
      "type": "event"
    },
    {
      "anonymous": false,
      "inputs": [
        {
          "indexed": false,
          "internalType": "string",
          "name": "value",
          "type": "string"
        },
        {
          "indexed": true,
          "internalType": "uint256",
          "name": "id",
          "type": "uint256"
        }
      ],
      "name": "URI",
      "type": "event"
    },
    {
      "anonymous": false,
      "inputs": [
        {
          "indexed": false,
          "internalType": "address",
          "name": "account",
          "type": "address"
        }
      ],
      "name": "Unpaused",
      "type": "event"
    },
    {
      "inputs": [
        {
          "internalType": "address[]",
          "name": "accounts",
          "type": "address[]"
        },
        {
          "internalType": "uint256[]",
          "name": "ids",
          "type": "uint256[]"
        }
      ],
      "name": "balanceOfBatch",
      "outputs": [
        {
          "internalType": "uint256[]",
          "name": "",
          "type": "uint256[]"
        }
      ],
      "stateMutability": "view",
      "type": "function"
    },
    {
      "inputs": [
        {
          "internalType": "uint256",
          "name": "",
          "type": "uint256"
        }
      ],
      "name": "dragonToOwner",
      "outputs": [
        {
          "internalType": "address",
          "name": "",
          "type": "address"
        }
      ],
      "stateMutability": "view",
      "type": "function"
    },
    {
      "inputs": [
        {
          "internalType": "uint256",
          "name": "",
          "type": "uint256"
        }
      ],
      "name": "dragons",
      "outputs": [
        {
          "internalType": "string",
          "name": "name",
          "type": "string"
        },
        {
          "internalType": "enum DragonFactory.Rarity",
          "name": "rarity",
          "type": "uint8"
        },
        {
          "internalType": "enum DragonFactory.Class",
          "name": "class",
          "type": "uint8"
        },
        {
          "internalType": "uint16",
          "name": "winCount",
          "type": "uint16"
        },
        {
          "internalType": "uint16",
          "name": "lossCount",
          "type": "uint16"
        },
        {
          "internalType": "uint8",
          "name": "acceleration",
          "type": "uint8"
        },
        {
          "internalType": "uint8",
          "name": "endurance",
          "type": "uint8"
        },
        {
          "internalType": "uint8",
          "name": "hp",
          "type": "uint8"
        },
        {
          "internalType": "uint8",
          "name": "recovery",
          "type": "uint8"
        },
        {
          "internalType": "uint8",
          "name": "topSpeed",
          "type": "uint8"
        },
        {
          "internalType": "uint8",
          "name": "weight",
          "type": "uint8"
        }
      ],
      "stateMutability": "view",
      "type": "function"
    },
    {
      "inputs": [
        {
          "internalType": "address",
          "name": "account",
          "type": "address"
        },
        {
          "internalType": "address",
          "name": "operator",
          "type": "address"
        }
      ],
      "name": "isApprovedForAll",
      "outputs": [
        {
          "internalType": "bool",
          "name": "",
          "type": "bool"
        }
      ],
      "stateMutability": "view",
      "type": "function"
    },
    {
      "inputs": [],
      "name": "name",
      "outputs": [
        {
          "internalType": "string",
          "name": "",
          "type": "string"
        }
      ],
      "stateMutability": "view",
      "type": "function"
    },
    {
      "inputs": [],
      "name": "owner",
      "outputs": [
        {
          "internalType": "address",
          "name": "",
          "type": "address"
        }
      ],
      "stateMutability": "view",
      "type": "function"
    },
    {
      "inputs": [],
      "name": "paused",
      "outputs": [
        {
          "internalType": "bool",
          "name": "",
          "type": "bool"
        }
      ],
      "stateMutability": "view",
      "type": "function"
    },
    {
      "inputs": [],
      "name": "renounceOwnership",
      "outputs": [],
      "stateMutability": "nonpayable",
      "type": "function"
    },
    {
      "inputs": [
        {
          "internalType": "address",
          "name": "from",
          "type": "address"
        },
        {
          "internalType": "address",
          "name": "to",
          "type": "address"
        },
        {
          "internalType": "uint256[]",
          "name": "ids",
          "type": "uint256[]"
        },
        {
          "internalType": "uint256[]",
          "name": "amounts",
          "type": "uint256[]"
        },
        {
          "internalType": "bytes",
          "name": "data",
          "type": "bytes"
        }
      ],
      "name": "safeBatchTransferFrom",
      "outputs": [],
      "stateMutability": "nonpayable",
      "type": "function"
    },
    {
      "inputs": [
        {
          "internalType": "address",
          "name": "from",
          "type": "address"
        },
        {
          "internalType": "address",
          "name": "to",
          "type": "address"
        },
        {
          "internalType": "uint256",
          "name": "id",
          "type": "uint256"
        },
        {
          "internalType": "uint256",
          "name": "amount",
          "type": "uint256"
        },
        {
          "internalType": "bytes",
          "name": "data",
          "type": "bytes"
        }
      ],
      "name": "safeTransferFrom",
      "outputs": [],
      "stateMutability": "nonpayable",
      "type": "function"
    },
    {
      "inputs": [
        {
          "internalType": "address",
          "name": "operator",
          "type": "address"
        },
        {
          "internalType": "bool",
          "name": "approved",
          "type": "bool"
        }
      ],
      "name": "setApprovalForAll",
      "outputs": [],
      "stateMutability": "nonpayable",
      "type": "function"
    },
    {
      "inputs": [
        {
          "internalType": "bytes4",
          "name": "interfaceId",
          "type": "bytes4"
        }
      ],
      "name": "supportsInterface",
      "outputs": [
        {
          "internalType": "bool",
          "name": "",
          "type": "bool"
        }
      ],
      "stateMutability": "view",
      "type": "function"
    },
    {
      "inputs": [],
      "name": "symbol",
      "outputs": [
        {
          "internalType": "string",
          "name": "",
          "type": "string"
        }
      ],
      "stateMutability": "view",
      "type": "function"
    },
    {
      "inputs": [
        {
          "internalType": "address",
          "name": "newOwner",
          "type": "address"
        }
      ],
      "name": "transferOwnership",
      "outputs": [],
      "stateMutability": "nonpayable",
      "type": "function"
    },
    {
      "inputs": [
        {
          "internalType": "uint256",
          "name": "",
          "type": "uint256"
        }
      ],
      "name": "uri",
      "outputs": [
        {
          "internalType": "string",
          "name": "",
          "type": "string"
        }
      ],
      "stateMutability": "view",
      "type": "function"
    },
    {
      "inputs": [
        {
          "internalType": "address",
          "name": "account",
          "type": "address"
        },
        {
          "internalType": "uint256",
          "name": "id",
          "type": "uint256"
        }
      ],
      "name": "balanceOf",
      "outputs": [
        {
          "internalType": "uint256",
          "name": "",
          "type": "uint256"
        }
      ],
      "stateMutability": "view",
      "type": "function"
    },
    {
      "inputs": [
        {
          "internalType": "address",
          "name": "_owner",
          "type": "address"
        }
      ],
      "name": "balanceOf",
      "outputs": [
        {
          "internalType": "uint256",
          "name": "",
          "type": "uint256"
        }
      ],
      "stateMutability": "view",
      "type": "function"
    },
    {
      "inputs": [
        {
          "internalType": "uint256",
          "name": "_tokenId",
          "type": "uint256"
        }
      ],
      "name": "ownerOf",
      "outputs": [
        {
          "internalType": "address",
          "name": "",
          "type": "address"
        }
      ],
      "stateMutability": "view",
      "type": "function"
    },
    {
      "inputs": [
        {
          "internalType": "address",
          "name": "_from",
          "type": "address"
        },
        {
          "internalType": "address",
          "name": "_to",
          "type": "address"
        },
        {
          "internalType": "uint256",
          "name": "_tokenId",
          "type": "uint256"
        }
      ],
      "name": "transferFrom",
      "outputs": [],
      "stateMutability": "payable",
      "type": "function"
    },
    {
      "inputs": [
        {
          "internalType": "address",
          "name": "_approved",
          "type": "address"
        },
        {
          "internalType": "uint256",
          "name": "_tokenId",
          "type": "uint256"
        }
      ],
      "name": "approve",
      "outputs": [],
      "stateMutability": "payable",
      "type": "function"
    },
    {
      "inputs": [
        {
          "internalType": "string",
          "name": "newuri",
          "type": "string"
        }
      ],
      "name": "setURI",
      "outputs": [],
      "stateMutability": "nonpayable",
      "type": "function"
    },
    {
      "inputs": [],
      "name": "pause",
      "outputs": [],
      "stateMutability": "nonpayable",
      "type": "function"
    },
    {
      "inputs": [],
      "name": "unpause",
      "outputs": [],
      "stateMutability": "nonpayable",
      "type": "function"
    },
    {
      "inputs": [
        {
          "internalType": "address",
          "name": "account",
          "type": "address"
        },
        {
          "internalType": "uint256",
          "name": "id",
          "type": "uint256"
        },
        {
          "internalType": "uint256",
          "name": "amount",
          "type": "uint256"
        },
        {
          "internalType": "bytes",
          "name": "data",
          "type": "bytes"
        }
      ],
      "name": "mint",
      "outputs": [],
      "stateMutability": "nonpayable",
      "type": "function"
    },
    {
      "inputs": [
        {
          "internalType": "address",
          "name": "to",
          "type": "address"
        },
        {
          "internalType": "uint256[]",
          "name": "ids",
          "type": "uint256[]"
        },
        {
          "internalType": "uint256[]",
          "name": "amounts",
          "type": "uint256[]"
        },
        {
          "internalType": "bytes",
          "name": "data",
          "type": "bytes"
        }
      ],
      "name": "mintBatch",
      "outputs": [],
      "stateMutability": "nonpayable",
      "type": "function"
    }
  ],
  "bytecode": "0x60806040526040518060400160405280600b81526020017f4d657461447261676f6e730000000000000000000000000000000000000000008152506007908051906020019062000051929190620001fb565b506040518060400160405280600281526020017f4d44000000000000000000000000000000000000000000000000000000000000815250600890805190602001906200009f929190620001fb565b50348015620000ad57600080fd5b5060405180602001604052806000815250620000cf816200011160201b60201c565b50620000f0620000e46200012d60201b60201c565b6200013560201b60201c565b6000600360146101000a81548160ff02191690831515021790555062000310565b806002908051906020019062000129929190620001fb565b5050565b600033905090565b6000600360009054906101000a900473ffffffffffffffffffffffffffffffffffffffff16905081600360006101000a81548173ffffffffffffffffffffffffffffffffffffffff021916908373ffffffffffffffffffffffffffffffffffffffff1602179055508173ffffffffffffffffffffffffffffffffffffffff168173ffffffffffffffffffffffffffffffffffffffff167f8be0079c531659141344cd1fd0a4f28419497f9722a3daafe3b4186f6b6457e060405160405180910390a35050565b8280546200020990620002da565b90600052602060002090601f0160209004810192826200022d576000855562000279565b82601f106200024857805160ff191683800117855562000279565b8280016001018555821562000279579182015b82811115620002785782518255916020019190600101906200025b565b5b5090506200028891906200028c565b5090565b5b80821115620002a75760008160009055506001016200028d565b5090565b7f4e487b7100000000000000000000000000000000000000000000000000000000600052602260045260246000fd5b60006002820490506001821680620002f357607f821691505b602082108114156200030a5762000309620002ab565b5b50919050565b61431a80620003206000396000f3fe6080604052600436106101655760003560e01c80636352211e116100d15780638da5cb5b1161008a578063d2a59d6911610064578063d2a59d691461050b578063e985e9c514610552578063f242432a1461058f578063f2fde38b146105b857610165565b80638da5cb5b1461048c57806395d89b41146104b7578063a22cb465146104e257610165565b80636352211e1461037e57806370a08231146103bb578063715018a6146103f8578063731133e91461040f5780637b3b0a2f146104385780638456cb591461047557610165565b80631f7fdffa116101235780631f7fdffa1461029157806323b872dd146102ba5780632eb2c2d6146102d65780633f4ba83a146102ff5780634e1273f4146103165780635c975abb1461035357610165565b8062fdd58e1461016a57806301ffc9a7146101a757806302fe5305146101e457806306fdde031461020d578063095ea7b3146102385780630e89341c14610254575b600080fd5b34801561017657600080fd5b50610191600480360381019061018c9190612a0f565b6105e1565b60405161019e9190612a5e565b60405180910390f35b3480156101b357600080fd5b506101ce60048036038101906101c99190612ad1565b6106aa565b6040516101db9190612b19565b60405180910390f35b3480156101f057600080fd5b5061020b60048036038101906102069190612c7a565b61078c565b005b34801561021957600080fd5b50610222610814565b60405161022f9190612d4b565b60405180910390f35b610252600480360381019061024d9190612a0f565b6108a2565b005b34801561026057600080fd5b5061027b60048036038101906102769190612d6d565b6109c0565b6040516102889190612d4b565b60405180910390f35b34801561029d57600080fd5b506102b860048036038101906102b39190612f03565b610a54565b005b6102d460048036038101906102cf9190612fbe565b610ae2565b005b3480156102e257600080fd5b506102fd60048036038101906102f89190613011565b610bc6565b005b34801561030b57600080fd5b50610314610c67565b005b34801561032257600080fd5b5061033d600480360381019061033891906131a3565b610ced565b60405161034a91906132d9565b60405180910390f35b34801561035f57600080fd5b50610368610e06565b6040516103759190612b19565b60405180910390f35b34801561038a57600080fd5b506103a560048036038101906103a09190612d6d565b610e1d565b6040516103b2919061330a565b60405180910390f35b3480156103c757600080fd5b506103e260048036038101906103dd9190613325565b610e5a565b6040516103ef9190612a5e565b60405180910390f35b34801561040457600080fd5b5061040d610ea3565b005b34801561041b57600080fd5b5061043660048036038101906104319190613352565b610f2b565b005b34801561044457600080fd5b5061045f600480360381019061045a9190612d6d565b610fb9565b60405161046c919061330a565b60405180910390f35b34801561048157600080fd5b5061048a610fec565b005b34801561049857600080fd5b506104a1611072565b6040516104ae919061330a565b60405180910390f35b3480156104c357600080fd5b506104cc61109c565b6040516104d99190612d4b565b60405180910390f35b3480156104ee57600080fd5b5061050960048036038101906105049190613401565b61112a565b005b34801561051757600080fd5b50610532600480360381019061052d9190612d6d565b611140565b6040516105499b9a99989796959493929190613539565b60405180910390f35b34801561055e57600080fd5b50610579600480360381019061057491906135eb565b6112b6565b6040516105869190612b19565b60405180910390f35b34801561059b57600080fd5b506105b660048036038101906105b1919061362b565b61134a565b005b3480156105c457600080fd5b506105df60048036038101906105da9190613325565b6113eb565b005b60008073ffffffffffffffffffffffffffffffffffffffff168373ffffffffffffffffffffffffffffffffffffffff161415610652576040517f08c379a000000000000000000000000000000000000000000000000000000000815260040161064990613734565b60405180910390fd5b60008083815260200190815260200160002060008473ffffffffffffffffffffffffffffffffffffffff1673ffffffffffffffffffffffffffffffffffffffff16815260200190815260200160002054905092915050565b60007fd9b67a26000000000000000000000000000000000000000000000000000000007bffffffffffffffffffffffffffffffffffffffffffffffffffffffff1916827bffffffffffffffffffffffffffffffffffffffffffffffffffffffff1916148061077557507f0e89341c000000000000000000000000000000000000000000000000000000007bffffffffffffffffffffffffffffffffffffffffffffffffffffffff1916827bffffffffffffffffffffffffffffffffffffffffffffffffffffffff1916145b806107855750610784826114e3565b5b9050919050565b61079461154d565b73ffffffffffffffffffffffffffffffffffffffff166107b2611072565b73ffffffffffffffffffffffffffffffffffffffff1614610808576040517f08c379a00000000000000000000000000000000000000000000000000000000081526004016107ff906137a0565b60405180910390fd5b61081181611555565b50565b60078054610821906137ef565b80601f016020809104026020016040519081016040528092919081815260200182805461084d906137ef565b801561089a5780601f1061086f5761010080835404028352916020019161089a565b820191906000526020600020905b81548152906001019060200180831161087d57829003601f168201915b505050505081565b806005600082815260200190815260200160002060009054906101000a900473ffffffffffffffffffffffffffffffffffffffff1673ffffffffffffffffffffffffffffffffffffffff163373ffffffffffffffffffffffffffffffffffffffff161461090e57600080fd5b826009600084815260200190815260200160002060006101000a81548173ffffffffffffffffffffffffffffffffffffffff021916908373ffffffffffffffffffffffffffffffffffffffff160217905550818373ffffffffffffffffffffffffffffffffffffffff163373ffffffffffffffffffffffffffffffffffffffff167f8c5be1e5ebec7d5bd14f71427d1e84f3dd0314c0f7b2291e5b200ac8c7c3b92560405160405180910390a4505050565b6060600280546109cf906137ef565b80601f01602080910402602001604051908101604052809291908181526020018280546109fb906137ef565b8015610a485780601f10610a1d57610100808354040283529160200191610a48565b820191906000526020600020905b815481529060010190602001808311610a2b57829003601f168201915b50505050509050919050565b610a5c61154d565b73ffffffffffffffffffffffffffffffffffffffff16610a7a611072565b73ffffffffffffffffffffffffffffffffffffffff1614610ad0576040517f08c379a0000000000000000000000000000000000000000000000000000000008152600401610ac7906137a0565b60405180910390fd5b610adc8484848461156f565b50505050565b3373ffffffffffffffffffffffffffffffffffffffff166005600083815260200190815260200160002060009054906101000a900473ffffffffffffffffffffffffffffffffffffffff1673ffffffffffffffffffffffffffffffffffffffff161480610bad57503373ffffffffffffffffffffffffffffffffffffffff166009600083815260200190815260200160002060009054906101000a900473ffffffffffffffffffffffffffffffffffffffff1673ffffffffffffffffffffffffffffffffffffffff16145b610bb657600080fd5b610bc183838361178d565b505050565b610bce61154d565b73ffffffffffffffffffffffffffffffffffffffff168573ffffffffffffffffffffffffffffffffffffffff161480610c145750610c1385610c0e61154d565b6112b6565b5b610c53576040517f08c379a0000000000000000000000000000000000000000000000000000000008152600401610c4a90613893565b60405180910390fd5b610c60858585858561196d565b5050505050565b610c6f61154d565b73ffffffffffffffffffffffffffffffffffffffff16610c8d611072565b73ffffffffffffffffffffffffffffffffffffffff1614610ce3576040517f08c379a0000000000000000000000000000000000000000000000000000000008152600401610cda906137a0565b60405180910390fd5b610ceb611c81565b565b60608151835114610d33576040517f08c379a0000000000000000000000000000000000000000000000000000000008152600401610d2a90613925565b60405180910390fd5b6000835167ffffffffffffffff811115610d5057610d4f612b4f565b5b604051908082528060200260200182016040528015610d7e5781602001602082028036833780820191505090505b50905060005b8451811015610dfb57610dcb858281518110610da357610da2613945565b5b6020026020010151858381518110610dbe57610dbd613945565b5b60200260200101516105e1565b828281518110610dde57610ddd613945565b5b60200260200101818152505080610df4906139a3565b9050610d84565b508091505092915050565b6000600360149054906101000a900460ff16905090565b60006005600083815260200190815260200160002060009054906101000a900473ffffffffffffffffffffffffffffffffffffffff169050919050565b6000600660008373ffffffffffffffffffffffffffffffffffffffff1673ffffffffffffffffffffffffffffffffffffffff168152602001908152602001600020549050919050565b610eab61154d565b73ffffffffffffffffffffffffffffffffffffffff16610ec9611072565b73ffffffffffffffffffffffffffffffffffffffff1614610f1f576040517f08c379a0000000000000000000000000000000000000000000000000000000008152600401610f16906137a0565b60405180910390fd5b610f296000611d23565b565b610f3361154d565b73ffffffffffffffffffffffffffffffffffffffff16610f51611072565b73ffffffffffffffffffffffffffffffffffffffff1614610fa7576040517f08c379a0000000000000000000000000000000000000000000000000000000008152600401610f9e906137a0565b60405180910390fd5b610fb384848484611de9565b50505050565b60056020528060005260406000206000915054906101000a900473ffffffffffffffffffffffffffffffffffffffff1681565b610ff461154d565b73ffffffffffffffffffffffffffffffffffffffff16611012611072565b73ffffffffffffffffffffffffffffffffffffffff1614611068576040517f08c379a000000000000000000000000000000000000000000000000000000000815260040161105f906137a0565b60405180910390fd5b611070611f7f565b565b6000600360009054906101000a900473ffffffffffffffffffffffffffffffffffffffff16905090565b600880546110a9906137ef565b80601f01602080910402602001604051908101604052809291908181526020018280546110d5906137ef565b80156111225780601f106110f757610100808354040283529160200191611122565b820191906000526020600020905b81548152906001019060200180831161110557829003601f168201915b505050505081565b61113c61113561154d565b8383612022565b5050565b6004818154811061115057600080fd5b9060005260206000209060020201600091509050806000018054611173906137ef565b80601f016020809104026020016040519081016040528092919081815260200182805461119f906137ef565b80156111ec5780601f106111c1576101008083540402835291602001916111ec565b820191906000526020600020905b8154815290600101906020018083116111cf57829003601f168201915b5050505050908060010160009054906101000a900460ff16908060010160019054906101000a900460ff16908060010160029054906101000a900461ffff16908060010160049054906101000a900461ffff16908060010160069054906101000a900460ff16908060010160079054906101000a900460ff16908060010160089054906101000a900460ff16908060010160099054906101000a900460ff169080600101600a9054906101000a900460ff169080600101600b9054906101000a900460ff1690508b565b6000600160008473ffffffffffffffffffffffffffffffffffffffff1673ffffffffffffffffffffffffffffffffffffffff16815260200190815260200160002060008373ffffffffffffffffffffffffffffffffffffffff1673ffffffffffffffffffffffffffffffffffffffff16815260200190815260200160002060009054906101000a900460ff16905092915050565b61135261154d565b73ffffffffffffffffffffffffffffffffffffffff168573ffffffffffffffffffffffffffffffffffffffff16148061139857506113978561139261154d565b6112b6565b5b6113d7576040517f08c379a00000000000000000000000000000000000000000000000000000000081526004016113ce90613a5e565b60405180910390fd5b6113e4858585858561218f565b5050505050565b6113f361154d565b73ffffffffffffffffffffffffffffffffffffffff16611411611072565b73ffffffffffffffffffffffffffffffffffffffff1614611467576040517f08c379a000000000000000000000000000000000000000000000000000000000815260040161145e906137a0565b60405180910390fd5b600073ffffffffffffffffffffffffffffffffffffffff168173ffffffffffffffffffffffffffffffffffffffff1614156114d7576040517f08c379a00000000000000000000000000000000000000000000000000000000081526004016114ce90613af0565b60405180910390fd5b6114e081611d23565b50565b60007f01ffc9a7000000000000000000000000000000000000000000000000000000007bffffffffffffffffffffffffffffffffffffffffffffffffffffffff1916827bffffffffffffffffffffffffffffffffffffffffffffffffffffffff1916149050919050565b600033905090565b806002908051906020019061156b9291906128c4565b5050565b600073ffffffffffffffffffffffffffffffffffffffff168473ffffffffffffffffffffffffffffffffffffffff1614156115df576040517f08c379a00000000000000000000000000000000000000000000000000000000081526004016115d690613b82565b60405180910390fd5b8151835114611623576040517f08c379a000000000000000000000000000000000000000000000000000000000815260040161161a90613c14565b60405180910390fd5b600061162d61154d565b905061163e81600087878787612411565b60005b84518110156116f75783818151811061165d5761165c613945565b5b602002602001015160008087848151811061167b5761167a613945565b5b6020026020010151815260200190815260200160002060008873ffffffffffffffffffffffffffffffffffffffff1673ffffffffffffffffffffffffffffffffffffffff16815260200190815260200160002060008282546116dd9190613c34565b9250508190555080806116ef906139a3565b915050611641565b508473ffffffffffffffffffffffffffffffffffffffff16600073ffffffffffffffffffffffffffffffffffffffff168273ffffffffffffffffffffffffffffffffffffffff167f4a39dc06d4c0dbc64b70af90fd698a233a518aa5d07e595d983b8c0526c8f7fb878760405161176f929190613c8a565b60405180910390a46117868160008787878761246f565b5050505050565b600660008373ffffffffffffffffffffffffffffffffffffffff1673ffffffffffffffffffffffffffffffffffffffff16815260200190815260200160002060008154809291906117dd906139a3565b91905055600660008473ffffffffffffffffffffffffffffffffffffffff1673ffffffffffffffffffffffffffffffffffffffff16815260200190815260200160002081905550600660003373ffffffffffffffffffffffffffffffffffffffff1673ffffffffffffffffffffffffffffffffffffffff168152602001908152602001600020600081548092919061187490613cc1565b91905055600660003373ffffffffffffffffffffffffffffffffffffffff1673ffffffffffffffffffffffffffffffffffffffff16815260200190815260200160002081905550816005600083815260200190815260200160002060006101000a81548173ffffffffffffffffffffffffffffffffffffffff021916908373ffffffffffffffffffffffffffffffffffffffff160217905550808273ffffffffffffffffffffffffffffffffffffffff168473ffffffffffffffffffffffffffffffffffffffff167fddf252ad1be2c89b69c2b068fc378daa952ba7f163c4a11628f55a4df523b3ef60405160405180910390a4505050565b81518351146119b1576040517f08c379a00000000000000000000000000000000000000000000000000000000081526004016119a890613c14565b60405180910390fd5b600073ffffffffffffffffffffffffffffffffffffffff168473ffffffffffffffffffffffffffffffffffffffff161415611a21576040517f08c379a0000000000000000000000000000000000000000000000000000000008152600401611a1890613d5d565b60405180910390fd5b6000611a2b61154d565b9050611a3b818787878787612411565b60005b8451811015611bec576000858281518110611a5c57611a5b613945565b5b602002602001015190506000858381518110611a7b57611a7a613945565b5b60200260200101519050600080600084815260200190815260200160002060008b73ffffffffffffffffffffffffffffffffffffffff1673ffffffffffffffffffffffffffffffffffffffff16815260200190815260200160002054905081811015611b1c576040517f08c379a0000000000000000000000000000000000000000000000000000000008152600401611b1390613def565b60405180910390fd5b81810360008085815260200190815260200160002060008c73ffffffffffffffffffffffffffffffffffffffff1673ffffffffffffffffffffffffffffffffffffffff168152602001908152602001600020819055508160008085815260200190815260200160002060008b73ffffffffffffffffffffffffffffffffffffffff1673ffffffffffffffffffffffffffffffffffffffff1681526020019081526020016000206000828254611bd19190613c34565b9250508190555050505080611be5906139a3565b9050611a3e565b508473ffffffffffffffffffffffffffffffffffffffff168673ffffffffffffffffffffffffffffffffffffffff168273ffffffffffffffffffffffffffffffffffffffff167f4a39dc06d4c0dbc64b70af90fd698a233a518aa5d07e595d983b8c0526c8f7fb8787604051611c63929190613c8a565b60405180910390a4611c7981878787878761246f565b505050505050565b611c89610e06565b611cc8576040517f08c379a0000000000000000000000000000000000000000000000000000000008152600401611cbf90613e5b565b60405180910390fd5b6000600360146101000a81548160ff0219169083151502179055507f5db9ee0a495bf2e6ff9c91a7834c1ba4fdd244a5e8aa4e537bd38aeae4b073aa611d0c61154d565b604051611d19919061330a565b60405180910390a1565b6000600360009054906101000a900473ffffffffffffffffffffffffffffffffffffffff16905081600360006101000a81548173ffffffffffffffffffffffffffffffffffffffff021916908373ffffffffffffffffffffffffffffffffffffffff1602179055508173ffffffffffffffffffffffffffffffffffffffff168173ffffffffffffffffffffffffffffffffffffffff167f8be0079c531659141344cd1fd0a4f28419497f9722a3daafe3b4186f6b6457e060405160405180910390a35050565b600073ffffffffffffffffffffffffffffffffffffffff168473ffffffffffffffffffffffffffffffffffffffff161415611e59576040517f08c379a0000000000000000000000000000000000000000000000000000000008152600401611e5090613b82565b60405180910390fd5b6000611e6361154d565b9050611e8481600087611e7588612647565b611e7e88612647565b87612411565b8260008086815260200190815260200160002060008773ffffffffffffffffffffffffffffffffffffffff1673ffffffffffffffffffffffffffffffffffffffff1681526020019081526020016000206000828254611ee39190613c34565b925050819055508473ffffffffffffffffffffffffffffffffffffffff16600073ffffffffffffffffffffffffffffffffffffffff168273ffffffffffffffffffffffffffffffffffffffff167fc3d58168c5ae7397731d063d5bbf3d657854427343f4c083240f7aacaa2d0f628787604051611f61929190613e7b565b60405180910390a4611f78816000878787876126c1565b5050505050565b611f87610e06565b15611fc7576040517f08c379a0000000000000000000000000000000000000000000000000000000008152600401611fbe90613ef0565b60405180910390fd5b6001600360146101000a81548160ff0219169083151502179055507f62e78cea01bee320cd4e420270b5ea74000d11b0c9f74754ebdbfc544b05a25861200b61154d565b604051612018919061330a565b60405180910390a1565b8173ffffffffffffffffffffffffffffffffffffffff168373ffffffffffffffffffffffffffffffffffffffff161415612091576040517f08c379a000000000000000000000000000000000000000000000000000000000815260040161208890613f82565b60405180910390fd5b80600160008573ffffffffffffffffffffffffffffffffffffffff1673ffffffffffffffffffffffffffffffffffffffff16815260200190815260200160002060008473ffffffffffffffffffffffffffffffffffffffff1673ffffffffffffffffffffffffffffffffffffffff16815260200190815260200160002060006101000a81548160ff0219169083151502179055508173ffffffffffffffffffffffffffffffffffffffff168373ffffffffffffffffffffffffffffffffffffffff167f17307eab39ab6107e8899845ad3d59bd9653f200f220920489ca2b5937696c31836040516121829190612b19565b60405180910390a3505050565b600073ffffffffffffffffffffffffffffffffffffffff168473ffffffffffffffffffffffffffffffffffffffff1614156121ff576040517f08c379a00000000000000000000000000000000000000000000000000000000081526004016121f690613d5d565b60405180910390fd5b600061220961154d565b905061222981878761221a88612647565b61222388612647565b87612411565b600080600086815260200190815260200160002060008873ffffffffffffffffffffffffffffffffffffffff1673ffffffffffffffffffffffffffffffffffffffff168152602001908152602001600020549050838110156122c0576040517f08c379a00000000000000000000000000000000000000000000000000000000081526004016122b790613def565b60405180910390fd5b83810360008087815260200190815260200160002060008973ffffffffffffffffffffffffffffffffffffffff1673ffffffffffffffffffffffffffffffffffffffff168152602001908152602001600020819055508360008087815260200190815260200160002060008873ffffffffffffffffffffffffffffffffffffffff1673ffffffffffffffffffffffffffffffffffffffff16815260200190815260200160002060008282546123759190613c34565b925050819055508573ffffffffffffffffffffffffffffffffffffffff168773ffffffffffffffffffffffffffffffffffffffff168373ffffffffffffffffffffffffffffffffffffffff167fc3d58168c5ae7397731d063d5bbf3d657854427343f4c083240f7aacaa2d0f6288886040516123f2929190613e7b565b60405180910390a46124088288888888886126c1565b50505050505050565b612419610e06565b15612459576040517f08c379a000000000000000000000000000000000000000000000000000000000815260040161245090613ef0565b60405180910390fd5b612467868686868686612899565b505050505050565b61248e8473ffffffffffffffffffffffffffffffffffffffff166128a1565b1561263f578373ffffffffffffffffffffffffffffffffffffffff1663bc197c8187878686866040518663ffffffff1660e01b81526004016124d4959493929190613ff7565b6020604051808303816000875af192505050801561251057506040513d601f19601f8201168201806040525081019061250d9190614074565b60015b6125b65761251c6140ae565b806308c379a0141561257957506125316140d0565b8061253c575061257b565b806040517f08c379a00000000000000000000000000000000000000000000000000000000081526004016125709190612d4b565b60405180910390fd5b505b6040517f08c379a00000000000000000000000000000000000000000000000000000000081526004016125ad906141d8565b60405180910390fd5b63bc197c8160e01b7bffffffffffffffffffffffffffffffffffffffffffffffffffffffff1916817bffffffffffffffffffffffffffffffffffffffffffffffffffffffff19161461263d576040517f08c379a00000000000000000000000000000000000000000000000000000000081526004016126349061426a565b60405180910390fd5b505b505050505050565b60606000600167ffffffffffffffff81111561266657612665612b4f565b5b6040519080825280602002602001820160405280156126945781602001602082028036833780820191505090505b50905082816000815181106126ac576126ab613945565b5b60200260200101818152505080915050919050565b6126e08473ffffffffffffffffffffffffffffffffffffffff166128a1565b15612891578373ffffffffffffffffffffffffffffffffffffffff1663f23a6e6187878686866040518663ffffffff1660e01b815260040161272695949392919061428a565b6020604051808303816000875af192505050801561276257506040513d601f19601f8201168201806040525081019061275f9190614074565b60015b6128085761276e6140ae565b806308c379a014156127cb57506127836140d0565b8061278e57506127cd565b806040517f08c379a00000000000000000000000000000000000000000000000000000000081526004016127c29190612d4b565b60405180910390fd5b505b6040517f08c379a00000000000000000000000000000000000000000000000000000000081526004016127ff906141d8565b60405180910390fd5b63f23a6e6160e01b7bffffffffffffffffffffffffffffffffffffffffffffffffffffffff1916817bffffffffffffffffffffffffffffffffffffffffffffffffffffffff19161461288f576040517f08c379a00000000000000000000000000000000000000000000000000000000081526004016128869061426a565b60405180910390fd5b505b505050505050565b505050505050565b6000808273ffffffffffffffffffffffffffffffffffffffff163b119050919050565b8280546128d0906137ef565b90600052602060002090601f0160209004810192826128f25760008555612939565b82601f1061290b57805160ff1916838001178555612939565b82800160010185558215612939579182015b8281111561293857825182559160200191906001019061291d565b5b509050612946919061294a565b5090565b5b8082111561296357600081600090555060010161294b565b5090565b6000604051905090565b600080fd5b600080fd5b600073ffffffffffffffffffffffffffffffffffffffff82169050919050565b60006129a68261297b565b9050919050565b6129b68161299b565b81146129c157600080fd5b50565b6000813590506129d3816129ad565b92915050565b6000819050919050565b6129ec816129d9565b81146129f757600080fd5b50565b600081359050612a09816129e3565b92915050565b60008060408385031215612a2657612a25612971565b5b6000612a34858286016129c4565b9250506020612a45858286016129fa565b9150509250929050565b612a58816129d9565b82525050565b6000602082019050612a736000830184612a4f565b92915050565b60007fffffffff0000000000000000000000000000000000000000000000000000000082169050919050565b612aae81612a79565b8114612ab957600080fd5b50565b600081359050612acb81612aa5565b92915050565b600060208284031215612ae757612ae6612971565b5b6000612af584828501612abc565b91505092915050565b60008115159050919050565b612b1381612afe565b82525050565b6000602082019050612b2e6000830184612b0a565b92915050565b600080fd5b600080fd5b6000601f19601f8301169050919050565b7f4e487b7100000000000000000000000000000000000000000000000000000000600052604160045260246000fd5b612b8782612b3e565b810181811067ffffffffffffffff82111715612ba657612ba5612b4f565b5b80604052505050565b6000612bb9612967565b9050612bc58282612b7e565b919050565b600067ffffffffffffffff821115612be557612be4612b4f565b5b612bee82612b3e565b9050602081019050919050565b82818337600083830152505050565b6000612c1d612c1884612bca565b612baf565b905082815260208101848484011115612c3957612c38612b39565b5b612c44848285612bfb565b509392505050565b600082601f830112612c6157612c60612b34565b5b8135612c71848260208601612c0a565b91505092915050565b600060208284031215612c9057612c8f612971565b5b600082013567ffffffffffffffff811115612cae57612cad612976565b5b612cba84828501612c4c565b91505092915050565b600081519050919050565b600082825260208201905092915050565b60005b83811015612cfd578082015181840152602081019050612ce2565b83811115612d0c576000848401525b50505050565b6000612d1d82612cc3565b612d278185612cce565b9350612d37818560208601612cdf565b612d4081612b3e565b840191505092915050565b60006020820190508181036000830152612d658184612d12565b905092915050565b600060208284031215612d8357612d82612971565b5b6000612d91848285016129fa565b91505092915050565b600067ffffffffffffffff821115612db557612db4612b4f565b5b602082029050602081019050919050565b600080fd5b6000612dde612dd984612d9a565b612baf565b90508083825260208201905060208402830185811115612e0157612e00612dc6565b5b835b81811015612e2a5780612e1688826129fa565b845260208401935050602081019050612e03565b5050509392505050565b600082601f830112612e4957612e48612b34565b5b8135612e59848260208601612dcb565b91505092915050565b600067ffffffffffffffff821115612e7d57612e7c612b4f565b5b612e8682612b3e565b9050602081019050919050565b6000612ea6612ea184612e62565b612baf565b905082815260208101848484011115612ec257612ec1612b39565b5b612ecd848285612bfb565b509392505050565b600082601f830112612eea57612ee9612b34565b5b8135612efa848260208601612e93565b91505092915050565b60008060008060808587031215612f1d57612f1c612971565b5b6000612f2b878288016129c4565b945050602085013567ffffffffffffffff811115612f4c57612f4b612976565b5b612f5887828801612e34565b935050604085013567ffffffffffffffff811115612f7957612f78612976565b5b612f8587828801612e34565b925050606085013567ffffffffffffffff811115612fa657612fa5612976565b5b612fb287828801612ed5565b91505092959194509250565b600080600060608486031215612fd757612fd6612971565b5b6000612fe5868287016129c4565b9350506020612ff6868287016129c4565b9250506040613007868287016129fa565b9150509250925092565b600080600080600060a0868803121561302d5761302c612971565b5b600061303b888289016129c4565b955050602061304c888289016129c4565b945050604086013567ffffffffffffffff81111561306d5761306c612976565b5b61307988828901612e34565b935050606086013567ffffffffffffffff81111561309a57613099612976565b5b6130a688828901612e34565b925050608086013567ffffffffffffffff8111156130c7576130c6612976565b5b6130d388828901612ed5565b9150509295509295909350565b600067ffffffffffffffff8211156130fb576130fa612b4f565b5b602082029050602081019050919050565b600061311f61311a846130e0565b612baf565b9050808382526020820190506020840283018581111561314257613141612dc6565b5b835b8181101561316b578061315788826129c4565b845260208401935050602081019050613144565b5050509392505050565b600082601f83011261318a57613189612b34565b5b813561319a84826020860161310c565b91505092915050565b600080604083850312156131ba576131b9612971565b5b600083013567ffffffffffffffff8111156131d8576131d7612976565b5b6131e485828601613175565b925050602083013567ffffffffffffffff81111561320557613204612976565b5b61321185828601612e34565b9150509250929050565b600081519050919050565b600082825260208201905092915050565b6000819050602082019050919050565b613250816129d9565b82525050565b60006132628383613247565b60208301905092915050565b6000602082019050919050565b60006132868261321b565b6132908185613226565b935061329b83613237565b8060005b838110156132cc5781516132b38882613256565b97506132be8361326e565b92505060018101905061329f565b5085935050505092915050565b600060208201905081810360008301526132f3818461327b565b905092915050565b6133048161299b565b82525050565b600060208201905061331f60008301846132fb565b92915050565b60006020828403121561333b5761333a612971565b5b6000613349848285016129c4565b91505092915050565b6000806000806080858703121561336c5761336b612971565b5b600061337a878288016129c4565b945050602061338b878288016129fa565b935050604061339c878288016129fa565b925050606085013567ffffffffffffffff8111156133bd576133bc612976565b5b6133c987828801612ed5565b91505092959194509250565b6133de81612afe565b81146133e957600080fd5b50565b6000813590506133fb816133d5565b92915050565b6000806040838503121561341857613417612971565b5b6000613426858286016129c4565b9250506020613437858286016133ec565b9150509250929050565b7f4e487b7100000000000000000000000000000000000000000000000000000000600052602160045260246000fd5b6005811061348157613480613441565b5b50565b600081905061349282613470565b919050565b60006134a282613484565b9050919050565b6134b281613497565b82525050565b600581106134c9576134c8613441565b5b50565b60008190506134da826134b8565b919050565b60006134ea826134cc565b9050919050565b6134fa816134df565b82525050565b600061ffff82169050919050565b61351781613500565b82525050565b600060ff82169050919050565b6135338161351d565b82525050565b6000610160820190508181036000830152613554818e612d12565b9050613563602083018d6134a9565b613570604083018c6134f1565b61357d606083018b61350e565b61358a608083018a61350e565b61359760a083018961352a565b6135a460c083018861352a565b6135b160e083018761352a565b6135bf61010083018661352a565b6135cd61012083018561352a565b6135db61014083018461352a565b9c9b505050505050505050505050565b6000806040838503121561360257613601612971565b5b6000613610858286016129c4565b9250506020613621858286016129c4565b9150509250929050565b600080600080600060a0868803121561364757613646612971565b5b6000613655888289016129c4565b9550506020613666888289016129c4565b9450506040613677888289016129fa565b9350506060613688888289016129fa565b925050608086013567ffffffffffffffff8111156136a9576136a8612976565b5b6136b588828901612ed5565b9150509295509295909350565b7f455243313135353a2062616c616e636520717565727920666f7220746865207a60008201527f65726f2061646472657373000000000000000000000000000000000000000000602082015250565b600061371e602b83612cce565b9150613729826136c2565b604082019050919050565b6000602082019050818103600083015261374d81613711565b9050919050565b7f4f776e61626c653a2063616c6c6572206973206e6f7420746865206f776e6572600082015250565b600061378a602083612cce565b915061379582613754565b602082019050919050565b600060208201905081810360008301526137b98161377d565b9050919050565b7f4e487b7100000000000000000000000000000000000000000000000000000000600052602260045260246000fd5b6000600282049050600182168061380757607f821691505b6020821081141561381b5761381a6137c0565b5b50919050565b7f455243313135353a207472616e736665722063616c6c6572206973206e6f742060008201527f6f776e6572206e6f7220617070726f7665640000000000000000000000000000602082015250565b600061387d603283612cce565b915061388882613821565b604082019050919050565b600060208201905081810360008301526138ac81613870565b9050919050565b7f455243313135353a206163636f756e747320616e6420696473206c656e67746860008201527f206d69736d617463680000000000000000000000000000000000000000000000602082015250565b600061390f602983612cce565b915061391a826138b3565b604082019050919050565b6000602082019050818103600083015261393e81613902565b9050919050565b7f4e487b7100000000000000000000000000000000000000000000000000000000600052603260045260246000fd5b7f4e487b7100000000000000000000000000000000000000000000000000000000600052601160045260246000fd5b60006139ae826129d9565b91507fffffffffffffffffffffffffffffffffffffffffffffffffffffffffffffffff8214156139e1576139e0613974565b5b600182019050919050565b7f455243313135353a2063616c6c6572206973206e6f74206f776e6572206e6f7260008201527f20617070726f7665640000000000000000000000000000000000000000000000602082015250565b6000613a48602983612cce565b9150613a53826139ec565b604082019050919050565b60006020820190508181036000830152613a7781613a3b565b9050919050565b7f4f776e61626c653a206e6577206f776e657220697320746865207a65726f206160008201527f6464726573730000000000000000000000000000000000000000000000000000602082015250565b6000613ada602683612cce565b9150613ae582613a7e565b604082019050919050565b60006020820190508181036000830152613b0981613acd565b9050919050565b7f455243313135353a206d696e7420746f20746865207a65726f2061646472657360008201527f7300000000000000000000000000000000000000000000000000000000000000602082015250565b6000613b6c602183612cce565b9150613b7782613b10565b604082019050919050565b60006020820190508181036000830152613b9b81613b5f565b9050919050565b7f455243313135353a2069647320616e6420616d6f756e7473206c656e6774682060008201527f6d69736d61746368000000000000000000000000000000000000000000000000602082015250565b6000613bfe602883612cce565b9150613c0982613ba2565b604082019050919050565b60006020820190508181036000830152613c2d81613bf1565b9050919050565b6000613c3f826129d9565b9150613c4a836129d9565b9250827fffffffffffffffffffffffffffffffffffffffffffffffffffffffffffffffff03821115613c7f57613c7e613974565b5b828201905092915050565b60006040820190508181036000830152613ca4818561327b565b90508181036020830152613cb8818461327b565b90509392505050565b6000613ccc826129d9565b91506000821415613ce057613cdf613974565b5b600182039050919050565b7f455243313135353a207472616e7366657220746f20746865207a65726f20616460008201527f6472657373000000000000000000000000000000000000000000000000000000602082015250565b6000613d47602583612cce565b9150613d5282613ceb565b604082019050919050565b60006020820190508181036000830152613d7681613d3a565b9050919050565b7f455243313135353a20696e73756666696369656e742062616c616e636520666f60008201527f72207472616e7366657200000000000000000000000000000000000000000000602082015250565b6000613dd9602a83612cce565b9150613de482613d7d565b604082019050919050565b60006020820190508181036000830152613e0881613dcc565b9050919050565b7f5061757361626c653a206e6f7420706175736564000000000000000000000000600082015250565b6000613e45601483612cce565b9150613e5082613e0f565b602082019050919050565b60006020820190508181036000830152613e7481613e38565b9050919050565b6000604082019050613e906000830185612a4f565b613e9d6020830184612a4f565b9392505050565b7f5061757361626c653a2070617573656400000000000000000000000000000000600082015250565b6000613eda601083612cce565b9150613ee582613ea4565b602082019050919050565b60006020820190508181036000830152613f0981613ecd565b9050919050565b7f455243313135353a2073657474696e6720617070726f76616c2073746174757360008201527f20666f722073656c660000000000000000000000000000000000000000000000602082015250565b6000613f6c602983612cce565b9150613f7782613f10565b604082019050919050565b60006020820190508181036000830152613f9b81613f5f565b9050919050565b600081519050919050565b600082825260208201905092915050565b6000613fc982613fa2565b613fd38185613fad565b9350613fe3818560208601612cdf565b613fec81612b3e565b840191505092915050565b600060a08201905061400c60008301886132fb565b61401960208301876132fb565b818103604083015261402b818661327b565b9050818103606083015261403f818561327b565b905081810360808301526140538184613fbe565b90509695505050505050565b60008151905061406e81612aa5565b92915050565b60006020828403121561408a57614089612971565b5b60006140988482850161405f565b91505092915050565b60008160e01c9050919050565b600060033d11156140cd5760046000803e6140ca6000516140a1565b90505b90565b600060443d10156140e057614163565b6140e8612967565b60043d036004823e80513d602482011167ffffffffffffffff82111715614110575050614163565b808201805167ffffffffffffffff81111561412e5750505050614163565b80602083010160043d03850181111561414b575050505050614163565b61415a82602001850186612b7e565b82955050505050505b90565b7f455243313135353a207472616e7366657220746f206e6f6e204552433131353560008201527f526563656976657220696d706c656d656e746572000000000000000000000000602082015250565b60006141c2603483612cce565b91506141cd82614166565b604082019050919050565b600060208201905081810360008301526141f1816141b5565b9050919050565b7f455243313135353a204552433131353552656365697665722072656a6563746560008201527f6420746f6b656e73000000000000000000000000000000000000000000000000602082015250565b6000614254602883612cce565b915061425f826141f8565b604082019050919050565b6000602082019050818103600083015261428381614247565b9050919050565b600060a08201905061429f60008301886132fb565b6142ac60208301876132fb565b6142b96040830186612a4f565b6142c66060830185612a4f565b81810360808301526142d88184613fbe565b9050969550505050505056fea26469706673582212207dc62deef8fb734f73889557dbb07cb3fb562d7f7e0c816623e4b5fa50c4d5ae64736f6c634300080c0033",
  "immutableReferences": {},
  "source": "// SPDX-License-Identifier: MIT\r\npragma solidity ^0.8.4;\r\n\r\nimport \"@openzeppelin/contracts/token/ERC1155/ERC1155.sol\";\r\nimport \"@openzeppelin/contracts/access/Ownable.sol\";\r\nimport \"@openzeppelin/contracts/security/Pausable.sol\";\r\nimport \"./dragonfactory.sol\";\r\n\r\ncontract DragonOwnership is ERC1155, Ownable, Pausable, DragonFactory {\r\n    constructor() ERC1155(\"\") {}\r\n\r\n    string public name = \"MetaDragons\";\r\n    string public symbol = \"MD\";\r\n\r\n    mapping (uint => address) dragonApprovals;\r\n\r\n    modifier onlyOwnerOf(uint _dragonId) {\r\n        require(msg.sender == dragonToOwner[_dragonId]);\r\n        _;\r\n    }\r\n\r\n    event Transfer(address indexed _from, address indexed _to, uint256 indexed _tokenId);\r\n    event Approval(address indexed _owner, address indexed _approved, uint256 indexed _tokenId);\r\n\r\n    function balanceOf(address _owner) external view returns (uint256) {\r\n        return ownerDragonCount[_owner];\r\n    }\r\n\r\n    function ownerOf(uint256 _tokenId) external view returns (address) {\r\n        return dragonToOwner[_tokenId];\r\n    }\r\n\r\n    function _transfer(address _from, address _to, uint256 _tokenId) private {\r\n        ownerDragonCount[_to] = ownerDragonCount[_to]++;\r\n        ownerDragonCount[msg.sender] = ownerDragonCount[msg.sender]--;\r\n        dragonToOwner[_tokenId] = _to;\r\n        emit Transfer(_from, _to, _tokenId);\r\n    }\r\n\r\n    function transferFrom(address _from, address _to, uint256 _tokenId) external payable {\r\n        require (dragonToOwner[_tokenId] == msg.sender || dragonApprovals[_tokenId] == msg.sender);\r\n        _transfer(_from, _to, _tokenId);\r\n    }\r\n\r\n    function approve(address _approved, uint256 _tokenId) external payable onlyOwnerOf(_tokenId) {\r\n        dragonApprovals[_tokenId] = _approved;\r\n        emit Approval(msg.sender, _approved, _tokenId);\r\n    }\r\n\r\n    function setURI(string memory newuri) public onlyOwner {\r\n        _setURI(newuri);\r\n    }\r\n\r\n    function pause() public onlyOwner {\r\n        _pause();\r\n    }\r\n\r\n    function unpause() public onlyOwner {\r\n        _unpause();\r\n    }\r\n\r\n    function mint(address account, uint256 id, uint256 amount, bytes memory data)\r\n    public\r\n    onlyOwner\r\n    {\r\n        _mint(account, id, amount, data);\r\n    }\r\n\r\n    function mintBatch(address to, uint256[] memory ids, uint256[] memory amounts, bytes memory data)\r\n    public\r\n    onlyOwner\r\n    {\r\n        _mintBatch(to, ids, amounts, data);\r\n    }\r\n\r\n    function _beforeTokenTransfer(address operator, address from, address to, uint256[] memory ids, uint256[] memory amounts, bytes memory data)\r\n    internal\r\n    whenNotPaused\r\n    override\r\n    {\r\n        super._beforeTokenTransfer(operator, from, to, ids, amounts, data);\r\n    }\r\n}\r\n",
  "sourcePath": "C:\\Projects\\meta-dragons\\Truffle\\contracts\\dragonownership.sol",
  "compiler": {
    "name": "solc",
    "version": "0.8.12+commit.f00d7308.Emscripten.clang"
  },
  "schemaVersion": "3.4.5",
  "updatedAt": "2022-03-04T10:18:06.249Z",
  "devdoc": {
    "kind": "dev",
    "methods": {
      "balanceOf(address,uint256)": {
        "details": "See {IERC1155-balanceOf}. Requirements: - `account` cannot be the zero address."
      },
      "balanceOfBatch(address[],uint256[])": {
        "details": "See {IERC1155-balanceOfBatch}. Requirements: - `accounts` and `ids` must have the same length."
      },
      "isApprovedForAll(address,address)": {
        "details": "See {IERC1155-isApprovedForAll}."
      },
      "owner()": {
        "details": "Returns the address of the current owner."
      },
      "paused()": {
        "details": "Returns true if the contract is paused, and false otherwise."
      },
      "renounceOwnership()": {
        "details": "Leaves the contract without owner. It will not be possible to call `onlyOwner` functions anymore. Can only be called by the current owner. NOTE: Renouncing ownership will leave the contract without an owner, thereby removing any functionality that is only available to the owner."
      },
      "safeBatchTransferFrom(address,address,uint256[],uint256[],bytes)": {
        "details": "See {IERC1155-safeBatchTransferFrom}."
      },
      "safeTransferFrom(address,address,uint256,uint256,bytes)": {
        "details": "See {IERC1155-safeTransferFrom}."
      },
      "setApprovalForAll(address,bool)": {
        "details": "See {IERC1155-setApprovalForAll}."
      },
      "supportsInterface(bytes4)": {
        "details": "See {IERC165-supportsInterface}."
      },
      "transferOwnership(address)": {
        "details": "Transfers ownership of the contract to a new account (`newOwner`). Can only be called by the current owner."
      },
      "uri(uint256)": {
        "details": "See {IERC1155MetadataURI-uri}. This implementation returns the same URI for *all* token types. It relies on the token type ID substitution mechanism https://eips.ethereum.org/EIPS/eip-1155#metadata[defined in the EIP]. Clients calling this function must replace the `\\{id\\}` substring with the actual token type ID."
      }
    },
    "version": 1
  },
  "userdoc": {
    "kind": "user",
    "methods": {},
    "version": 1
  }
}