{
  "contractName": "DragonFactory",
  "abi": [
    {
      "anonymous": false,
      "inputs": [
        {
          "indexed": false,
          "internalType": "uint256",
          "name": "dragonId",
          "type": "uint256"
        },
        {
          "indexed": false,
          "internalType": "string",
          "name": "name",
          "type": "string"
        },
        {
          "indexed": false,
          "internalType": "enum DragonFactory.Rarity",
          "name": "rarity",
          "type": "uint8"
        },
        {
          "indexed": false,
          "internalType": "enum DragonFactory.Class",
          "name": "class",
          "type": "uint8"
        },
        {
          "indexed": false,
          "internalType": "uint256",
          "name": "accel",
          "type": "uint256"
        },
        {
          "indexed": false,
          "internalType": "uint256",
          "name": "endu",
          "type": "uint256"
        },
        {
          "indexed": false,
          "internalType": "uint256",
          "name": "hp",
          "type": "uint256"
        },
        {
          "indexed": false,
          "internalType": "uint256",
          "name": "recov",
          "type": "uint256"
        },
        {
          "indexed": false,
          "internalType": "uint256",
          "name": "topSpeed",
          "type": "uint256"
        },
        {
          "indexed": false,
          "internalType": "uint256",
          "name": "weight",
          "type": "uint256"
        }
      ],
      "name": "NewDragon",
      "type": "event"
    },
    {
      "anonymous": false,
      "inputs": [
        {
          "indexed": true,
          "internalType": "address",
          "name": "previousOwner",
          "type": "address"
        },
        {
          "indexed": true,
          "internalType": "address",
          "name": "newOwner",
          "type": "address"
        }
      ],
      "name": "OwnershipTransferred",
      "type": "event"
    },
    {
      "inputs": [
        {
          "internalType": "uint256",
          "name": "",
          "type": "uint256"
        }
      ],
      "name": "dragonToOwner",
      "outputs": [
        {
          "internalType": "address",
          "name": "",
          "type": "address"
        }
      ],
      "stateMutability": "view",
      "type": "function"
    },
    {
      "inputs": [
        {
          "internalType": "uint256",
          "name": "",
          "type": "uint256"
        }
      ],
      "name": "dragons",
      "outputs": [
        {
          "internalType": "string",
          "name": "name",
          "type": "string"
        },
        {
          "internalType": "enum DragonFactory.Rarity",
          "name": "rarity",
          "type": "uint8"
        },
        {
          "internalType": "enum DragonFactory.Class",
          "name": "class",
          "type": "uint8"
        },
        {
          "internalType": "uint16",
          "name": "winCount",
          "type": "uint16"
        },
        {
          "internalType": "uint16",
          "name": "lossCount",
          "type": "uint16"
        },
        {
          "internalType": "uint8",
          "name": "acceleration",
          "type": "uint8"
        },
        {
          "internalType": "uint8",
          "name": "endurance",
          "type": "uint8"
        },
        {
          "internalType": "uint8",
          "name": "hp",
          "type": "uint8"
        },
        {
          "internalType": "uint8",
          "name": "recovery",
          "type": "uint8"
        },
        {
          "internalType": "uint8",
          "name": "topSpeed",
          "type": "uint8"
        },
        {
          "internalType": "uint8",
          "name": "weight",
          "type": "uint8"
        }
      ],
      "stateMutability": "view",
      "type": "function"
    },
    {
      "inputs": [],
      "name": "owner",
      "outputs": [
        {
          "internalType": "address",
          "name": "",
          "type": "address"
        }
      ],
      "stateMutability": "view",
      "type": "function"
    },
    {
      "inputs": [],
      "name": "renounceOwnership",
      "outputs": [],
      "stateMutability": "nonpayable",
      "type": "function"
    },
    {
      "inputs": [
        {
          "internalType": "address",
          "name": "newOwner",
          "type": "address"
        }
      ],
      "name": "transferOwnership",
      "outputs": [],
      "stateMutability": "nonpayable",
      "type": "function"
    }
  ],
  "bytecode": "0x608060405234801561001057600080fd5b5061002d61002261003260201b60201c565b61003a60201b60201c565b6100fe565b600033905090565b60008060009054906101000a900473ffffffffffffffffffffffffffffffffffffffff169050816000806101000a81548173ffffffffffffffffffffffffffffffffffffffff021916908373ffffffffffffffffffffffffffffffffffffffff1602179055508173ffffffffffffffffffffffffffffffffffffffff168173ffffffffffffffffffffffffffffffffffffffff167f8be0079c531659141344cd1fd0a4f28419497f9722a3daafe3b4186f6b6457e060405160405180910390a35050565b610a1d8061010d6000396000f3fe608060405234801561001057600080fd5b50600436106100575760003560e01c8063715018a61461005c5780637b3b0a2f146100665780638da5cb5b14610096578063d2a59d69146100b4578063f2fde38b146100ee575b600080fd5b61006461010a565b005b610080600480360381019061007b9190610563565b610192565b60405161008d91906105d1565b60405180910390f35b61009e6101c5565b6040516100ab91906105d1565b60405180910390f35b6100ce60048036038101906100c99190610563565b6101ee565b6040516100e59b9a9998979695949392919061077d565b60405180910390f35b6101086004803603810190610103919061085b565b610364565b005b61011261045c565b73ffffffffffffffffffffffffffffffffffffffff166101306101c5565b73ffffffffffffffffffffffffffffffffffffffff1614610186576040517f08c379a000000000000000000000000000000000000000000000000000000000815260040161017d906108d4565b60405180910390fd5b6101906000610464565b565b60026020528060005260406000206000915054906101000a900473ffffffffffffffffffffffffffffffffffffffff1681565b60008060009054906101000a900473ffffffffffffffffffffffffffffffffffffffff16905090565b600181815481106101fe57600080fd5b906000526020600020906002020160009150905080600001805461022190610923565b80601f016020809104026020016040519081016040528092919081815260200182805461024d90610923565b801561029a5780601f1061026f5761010080835404028352916020019161029a565b820191906000526020600020905b81548152906001019060200180831161027d57829003601f168201915b5050505050908060010160009054906101000a900460ff16908060010160019054906101000a900460ff16908060010160029054906101000a900461ffff16908060010160049054906101000a900461ffff16908060010160069054906101000a900460ff16908060010160079054906101000a900460ff16908060010160089054906101000a900460ff16908060010160099054906101000a900460ff169080600101600a9054906101000a900460ff169080600101600b9054906101000a900460ff1690508b565b61036c61045c565b73ffffffffffffffffffffffffffffffffffffffff1661038a6101c5565b73ffffffffffffffffffffffffffffffffffffffff16146103e0576040517f08c379a00000000000000000000000000000000000000000000000000000000081526004016103d7906108d4565b60405180910390fd5b600073ffffffffffffffffffffffffffffffffffffffff168173ffffffffffffffffffffffffffffffffffffffff161415610450576040517f08c379a0000000000000000000000000000000000000000000000000000000008152600401610447906109c7565b60405180910390fd5b61045981610464565b50565b600033905090565b60008060009054906101000a900473ffffffffffffffffffffffffffffffffffffffff169050816000806101000a81548173ffffffffffffffffffffffffffffffffffffffff021916908373ffffffffffffffffffffffffffffffffffffffff1602179055508173ffffffffffffffffffffffffffffffffffffffff168173ffffffffffffffffffffffffffffffffffffffff167f8be0079c531659141344cd1fd0a4f28419497f9722a3daafe3b4186f6b6457e060405160405180910390a35050565b600080fd5b6000819050919050565b6105408161052d565b811461054b57600080fd5b50565b60008135905061055d81610537565b92915050565b60006020828403121561057957610578610528565b5b60006105878482850161054e565b91505092915050565b600073ffffffffffffffffffffffffffffffffffffffff82169050919050565b60006105bb82610590565b9050919050565b6105cb816105b0565b82525050565b60006020820190506105e660008301846105c2565b92915050565b600081519050919050565b600082825260208201905092915050565b60005b8381101561062657808201518184015260208101905061060b565b83811115610635576000848401525b50505050565b6000601f19601f8301169050919050565b6000610657826105ec565b61066181856105f7565b9350610671818560208601610608565b61067a8161063b565b840191505092915050565b7f4e487b7100000000000000000000000000000000000000000000000000000000600052602160045260246000fd5b600581106106c5576106c4610685565b5b50565b60008190506106d6826106b4565b919050565b60006106e6826106c8565b9050919050565b6106f6816106db565b82525050565b6005811061070d5761070c610685565b5b50565b600081905061071e826106fc565b919050565b600061072e82610710565b9050919050565b61073e81610723565b82525050565b600061ffff82169050919050565b61075b81610744565b82525050565b600060ff82169050919050565b61077781610761565b82525050565b6000610160820190508181036000830152610798818e61064c565b90506107a7602083018d6106ed565b6107b4604083018c610735565b6107c1606083018b610752565b6107ce608083018a610752565b6107db60a083018961076e565b6107e860c083018861076e565b6107f560e083018761076e565b61080361010083018661076e565b61081161012083018561076e565b61081f61014083018461076e565b9c9b505050505050505050505050565b610838816105b0565b811461084357600080fd5b50565b6000813590506108558161082f565b92915050565b60006020828403121561087157610870610528565b5b600061087f84828501610846565b91505092915050565b7f4f776e61626c653a2063616c6c6572206973206e6f7420746865206f776e6572600082015250565b60006108be6020836105f7565b91506108c982610888565b602082019050919050565b600060208201905081810360008301526108ed816108b1565b9050919050565b7f4e487b7100000000000000000000000000000000000000000000000000000000600052602260045260246000fd5b6000600282049050600182168061093b57607f821691505b6020821081141561094f5761094e6108f4565b5b50919050565b7f4f776e61626c653a206e6577206f776e657220697320746865207a65726f206160008201527f6464726573730000000000000000000000000000000000000000000000000000602082015250565b60006109b16026836105f7565b91506109bc82610955565b604082019050919050565b600060208201905081810360008301526109e0816109a4565b905091905056fea26469706673582212203e52d1db0466495611ff389e3f6e76f67b7c25c3a5e275ae4f193017e031f46964736f6c634300080c0033",
  "immutableReferences": {},
  "source": "// SPDX-License-Identifier: MIT\npragma solidity ^0.8.4;\n\nimport \"@openzeppelin/contracts/access/Ownable.sol\";\n\ncontract DragonFactory is Ownable {\n  event NewDragon(uint dragonId, string name, Rarity rarity, Class class, uint accel, uint endu, uint hp, uint recov, uint topSpeed, uint weight);\n\n  enum Rarity {\n    Common,\n    Uncommon,\n    Rare,\n    Epic,\n    Legendary\n  }\n\n  enum Class {\n    Fire,\n    Frost,\n    Poison,\n    Tank,\n    Rogue\n  }\n\n  struct Dragon {\n    string name;\n    Rarity rarity;\n    Class class;\n    uint16 winCount;\n    uint16 lossCount;\n    uint8 acceleration;\n    uint8 endurance;\n    uint8 hp;\n    uint8 recovery;\n    uint8 topSpeed;\n    uint8 weight;\n  }\n\n  Dragon[] public dragons;\n\n  mapping (uint => address) public dragonToOwner;\n  mapping (address => uint) ownerDragonCount;\n\n  function _createDragon(string memory _name, Rarity _rarity, Class _class, uint8 _accel, uint8 _endu, uint8 _hp, uint8 _recov, uint8 _topSpeed, uint8 _weight, address _owner) internal {\n    dragons.push(Dragon(_name, _rarity, _class, 0, 0, _accel, _endu, _hp, _recov, _topSpeed, _weight));\n    uint256 id = dragons.length - 1;\n    dragonToOwner[id] = _owner;\n    ownerDragonCount[_owner]++;\n    emit NewDragon(id, _name, _rarity, _class, _accel, _endu, _hp, _recov, _topSpeed, _weight);\n  }\n\n}\n",
  "sourcePath": "C:\\Projects\\meta-dragons\\Truffle\\contracts\\dragonfactory.sol",
  "compiler": {
    "name": "solc",
    "version": "0.8.12+commit.f00d7308.Emscripten.clang"
  },
  "schemaVersion": "3.4.5",
  "updatedAt": "2022-03-04T10:18:06.213Z",
  "devdoc": {
    "kind": "dev",
    "methods": {
      "owner()": {
        "details": "Returns the address of the current owner."
      },
      "renounceOwnership()": {
        "details": "Leaves the contract without owner. It will not be possible to call `onlyOwner` functions anymore. Can only be called by the current owner. NOTE: Renouncing ownership will leave the contract without an owner, thereby removing any functionality that is only available to the owner."
      },
      "transferOwnership(address)": {
        "details": "Transfers ownership of the contract to a new account (`newOwner`). Can only be called by the current owner."
      }
    },
    "version": 1
  },
  "userdoc": {
    "kind": "user",
    "methods": {},
    "version": 1
  }
}