{
  "contractName": "marketPlaceBoilerPlate",
  "abi": [
    {
      "inputs": [],
      "stateMutability": "nonpayable",
      "type": "constructor"
    },
    {
      "anonymous": false,
      "inputs": [
        {
          "indexed": true,
          "internalType": "uint256",
          "name": "itemId",
          "type": "uint256"
        },
        {
          "indexed": true,
          "internalType": "address",
          "name": "nftContract",
          "type": "address"
        },
        {
          "indexed": true,
          "internalType": "uint256",
          "name": "tokenId",
          "type": "uint256"
        },
        {
          "indexed": false,
          "internalType": "address",
          "name": "seller",
          "type": "address"
        },
        {
          "indexed": false,
          "internalType": "address",
          "name": "owner",
          "type": "address"
        },
        {
          "indexed": false,
          "internalType": "uint256",
          "name": "price",
          "type": "uint256"
        },
        {
          "indexed": false,
          "internalType": "bool",
          "name": "sold",
          "type": "bool"
        }
      ],
      "name": "MarketItemCreated",
      "type": "event"
    },
    {
      "anonymous": false,
      "inputs": [
        {
          "indexed": true,
          "internalType": "uint256",
          "name": "itemId",
          "type": "uint256"
        },
        {
          "indexed": false,
          "internalType": "address",
          "name": "owner",
          "type": "address"
        }
      ],
      "name": "MarketItemSold",
      "type": "event"
    },
    {
      "inputs": [],
      "name": "owner",
      "outputs": [
        {
          "internalType": "address",
          "name": "",
          "type": "address"
        }
      ],
      "stateMutability": "view",
      "type": "function"
    },
    {
      "inputs": [
        {
          "internalType": "address",
          "name": "nftContract",
          "type": "address"
        },
        {
          "internalType": "uint256",
          "name": "tokenId",
          "type": "uint256"
        },
        {
          "internalType": "uint256",
          "name": "price",
          "type": "uint256"
        }
      ],
      "name": "createMarketItem",
      "outputs": [],
      "stateMutability": "payable",
      "type": "function"
    },
    {
      "inputs": [
        {
          "internalType": "address",
          "name": "nftContract",
          "type": "address"
        },
        {
          "internalType": "uint256",
          "name": "itemId",
          "type": "uint256"
        }
      ],
      "name": "createMarketSale",
      "outputs": [],
      "stateMutability": "payable",
      "type": "function"
    },
    {
      "inputs": [],
      "name": "fetchMarketItems",
      "outputs": [
        {
          "components": [
            {
              "internalType": "uint256",
              "name": "itemId",
              "type": "uint256"
            },
            {
              "internalType": "address",
              "name": "nftContract",
              "type": "address"
            },
            {
              "internalType": "uint256",
              "name": "tokenId",
              "type": "uint256"
            },
            {
              "internalType": "address payable",
              "name": "seller",
              "type": "address"
            },
            {
              "internalType": "address payable",
              "name": "owner",
              "type": "address"
            },
            {
              "internalType": "uint256",
              "name": "price",
              "type": "uint256"
            },
            {
              "internalType": "bool",
              "name": "sold",
              "type": "bool"
            }
          ],
          "internalType": "struct marketPlaceBoilerPlate.MarketItem[]",
          "name": "",
          "type": "tuple[]"
        }
      ],
      "stateMutability": "view",
      "type": "function"
    }
  ],
  "bytecode": "0x608060405234801561001057600080fd5b50600160008190555033600360006101000a81548173ffffffffffffffffffffffffffffffffffffffff021916908373ffffffffffffffffffffffffffffffffffffffff16021790555061126d806100696000396000f3fe60806040526004361061003f5760003560e01c80630f08efe01461004457806358eb2df51461006f5780638da5cb5b1461008b578063c23b139e146100b6575b600080fd5b34801561005057600080fd5b506100596100d2565b6040516100669190610c57565b60405180910390f35b61008960048036038101906100849190610cd6565b61039c565b005b34801561009757600080fd5b506100a06106bf565b6040516100ad9190610d38565b60405180910390f35b6100d060048036038101906100cb9190610d53565b6106e5565b005b606060006100e060016109df565b905060006100ee60026109df565b6100f860016109df565b6101029190610dc2565b90506000808267ffffffffffffffff81111561012157610120610df6565b5b60405190808252806020026020018201604052801561015a57816020015b610147610a03565b81526020019060019003908161013f5790505b50905060005b8481101561039157600073ffffffffffffffffffffffffffffffffffffffff16600460006001846101919190610e25565b815260200190815260200160002060040160009054906101000a900473ffffffffffffffffffffffffffffffffffffffff1673ffffffffffffffffffffffffffffffffffffffff16141561037e5760006001826101ee9190610e25565b90506000600460008381526020019081526020016000209050806040518060e0016040529081600082015481526020016001820160009054906101000a900473ffffffffffffffffffffffffffffffffffffffff1673ffffffffffffffffffffffffffffffffffffffff1673ffffffffffffffffffffffffffffffffffffffff168152602001600282015481526020016003820160009054906101000a900473ffffffffffffffffffffffffffffffffffffffff1673ffffffffffffffffffffffffffffffffffffffff1673ffffffffffffffffffffffffffffffffffffffff1681526020016004820160009054906101000a900473ffffffffffffffffffffffffffffffffffffffff1673ffffffffffffffffffffffffffffffffffffffff1673ffffffffffffffffffffffffffffffffffffffff168152602001600582015481526020016006820160009054906101000a900460ff16151515158152505084868151811061036157610360610e7b565b5b60200260200101819052506001856103799190610e25565b945050505b808061038990610eaa565b915050610160565b508094505050505090565b600260005414156103e2576040517f08c379a00000000000000000000000000000000000000000000000000000000081526004016103d990610f50565b60405180910390fd5b60026000819055506000811161042d576040517f08c379a000000000000000000000000000000000000000000000000000000000815260040161042490610fbc565b60405180910390fd5b61043760016109ed565b600061044360016109df565b90506040518060e001604052808281526020018573ffffffffffffffffffffffffffffffffffffffff1681526020018481526020013373ffffffffffffffffffffffffffffffffffffffff168152602001600073ffffffffffffffffffffffffffffffffffffffff16815260200183815260200160001515815250600460008381526020019081526020016000206000820151816000015560208201518160010160006101000a81548173ffffffffffffffffffffffffffffffffffffffff021916908373ffffffffffffffffffffffffffffffffffffffff1602179055506040820151816002015560608201518160030160006101000a81548173ffffffffffffffffffffffffffffffffffffffff021916908373ffffffffffffffffffffffffffffffffffffffff16021790555060808201518160040160006101000a81548173ffffffffffffffffffffffffffffffffffffffff021916908373ffffffffffffffffffffffffffffffffffffffff16021790555060a0820151816005015560c08201518160060160006101000a81548160ff0219169083151502179055509050508373ffffffffffffffffffffffffffffffffffffffff1663f242432a33308660016040518563ffffffff1660e01b8152600401610627949392919061108d565b600060405180830381600087803b15801561064157600080fd5b505af1158015610655573d6000803e3d6000fd5b50505050828473ffffffffffffffffffffffffffffffffffffffff16827f045dfa01dcba2b36aba1d3dc4a874f4b0c5d2fbeb8d2c4b34a7d88c8d8f929d13360008760006040516106a994939291906110f4565b60405180910390a4506001600081905550505050565b600360009054906101000a900473ffffffffffffffffffffffffffffffffffffffff1681565b6002600054141561072b576040517f08c379a000000000000000000000000000000000000000000000000000000000815260040161072290610f50565b60405180910390fd5b600260008190555060006004600083815260200190815260200160002060050154905060006004600084815260200190815260200160002060020154905060006004600085815260200190815260200160002060060160009054906101000a900460ff1690508234146107d3576040517f08c379a00000000000000000000000000000000000000000000000000000000081526004016107ca906111ab565b60405180910390fd5b60011515811515141561081b576040517f08c379a000000000000000000000000000000000000000000000000000000000815260040161081290611217565b60405180910390fd5b837f2073b2706c235effb1e3840575370a51749afd8181b4018f93bff955d50792cb3360405161084b9190610d38565b60405180910390a26004600085815260200190815260200160002060030160009054906101000a900473ffffffffffffffffffffffffffffffffffffffff1673ffffffffffffffffffffffffffffffffffffffff166108fc349081150290604051600060405180830381858888f193505050501580156108cf573d6000803e3d6000fd5b508473ffffffffffffffffffffffffffffffffffffffff1663f242432a30338560016040518563ffffffff1660e01b8152600401610910949392919061108d565b600060405180830381600087803b15801561092a57600080fd5b505af115801561093e573d6000803e3d6000fd5b50505050336004600086815260200190815260200160002060040160006101000a81548173ffffffffffffffffffffffffffffffffffffffff021916908373ffffffffffffffffffffffffffffffffffffffff1602179055506109a160026109ed565b60016004600086815260200190815260200160002060060160006101000a81548160ff02191690831515021790555050505060016000819055505050565b600081600001549050919050565b6001816000016000828254019250508190555050565b6040518060e0016040528060008152602001600073ffffffffffffffffffffffffffffffffffffffff16815260200160008152602001600073ffffffffffffffffffffffffffffffffffffffff168152602001600073ffffffffffffffffffffffffffffffffffffffff168152602001600081526020016000151581525090565b600081519050919050565b600082825260208201905092915050565b6000819050602082019050919050565b6000819050919050565b610ac381610ab0565b82525050565b600073ffffffffffffffffffffffffffffffffffffffff82169050919050565b6000610af482610ac9565b9050919050565b610b0481610ae9565b82525050565b6000610b1582610ac9565b9050919050565b610b2581610b0a565b82525050565b60008115159050919050565b610b4081610b2b565b82525050565b60e082016000820151610b5c6000850182610aba565b506020820151610b6f6020850182610afb565b506040820151610b826040850182610aba565b506060820151610b956060850182610b1c565b506080820151610ba86080850182610b1c565b5060a0820151610bbb60a0850182610aba565b5060c0820151610bce60c0850182610b37565b50505050565b6000610be08383610b46565b60e08301905092915050565b6000602082019050919050565b6000610c0482610a84565b610c0e8185610a8f565b9350610c1983610aa0565b8060005b83811015610c4a578151610c318882610bd4565b9750610c3c83610bec565b925050600181019050610c1d565b5085935050505092915050565b60006020820190508181036000830152610c718184610bf9565b905092915050565b600080fd5b610c8781610ae9565b8114610c9257600080fd5b50565b600081359050610ca481610c7e565b92915050565b610cb381610ab0565b8114610cbe57600080fd5b50565b600081359050610cd081610caa565b92915050565b600080600060608486031215610cef57610cee610c79565b5b6000610cfd86828701610c95565b9350506020610d0e86828701610cc1565b9250506040610d1f86828701610cc1565b9150509250925092565b610d3281610ae9565b82525050565b6000602082019050610d4d6000830184610d29565b92915050565b60008060408385031215610d6a57610d69610c79565b5b6000610d7885828601610c95565b9250506020610d8985828601610cc1565b9150509250929050565b7f4e487b7100000000000000000000000000000000000000000000000000000000600052601160045260246000fd5b6000610dcd82610ab0565b9150610dd883610ab0565b925082821015610deb57610dea610d93565b5b828203905092915050565b7f4e487b7100000000000000000000000000000000000000000000000000000000600052604160045260246000fd5b6000610e3082610ab0565b9150610e3b83610ab0565b9250827fffffffffffffffffffffffffffffffffffffffffffffffffffffffffffffffff03821115610e7057610e6f610d93565b5b828201905092915050565b7f4e487b7100000000000000000000000000000000000000000000000000000000600052603260045260246000fd5b6000610eb582610ab0565b91507fffffffffffffffffffffffffffffffffffffffffffffffffffffffffffffffff821415610ee857610ee7610d93565b5b600182019050919050565b600082825260208201905092915050565b7f5265656e7472616e637947756172643a207265656e7472616e742063616c6c00600082015250565b6000610f3a601f83610ef3565b9150610f4582610f04565b602082019050919050565b60006020820190508181036000830152610f6981610f2d565b9050919050565b7f5072696365206d7573742062652067726561746572207468616e203000000000600082015250565b6000610fa6601c83610ef3565b9150610fb182610f70565b602082019050919050565b60006020820190508181036000830152610fd581610f99565b9050919050565b610fe581610ab0565b82525050565b6000819050919050565b6000819050919050565b600061101a61101561101084610feb565b610ff5565b610ab0565b9050919050565b61102a81610fff565b82525050565b600082825260208201905092915050565b7f3078300000000000000000000000000000000000000000000000000000000000600082015250565b6000611077600383611030565b915061108282611041565b602082019050919050565b600060a0820190506110a26000830187610d29565b6110af6020830186610d29565b6110bc6040830185610fdc565b6110c96060830184611021565b81810360808301526110da8161106a565b905095945050505050565b6110ee81610b2b565b82525050565b60006080820190506111096000830187610d29565b6111166020830186610d29565b6111236040830185610fdc565b61113060608301846110e5565b95945050505050565b7f506c65617365207375626d6974207468652061736b696e67207072696365206960008201527f6e206f7264657220746f20636f6d706c65746520746865207075726368617365602082015250565b6000611195604083610ef3565b91506111a082611139565b604082019050919050565b600060208201905081810360008301526111c481611188565b9050919050565b7f546869732053616c652068617320616c726564792066696e6e69736865640000600082015250565b6000611201601e83610ef3565b915061120c826111cb565b602082019050919050565b60006020820190508181036000830152611230816111f4565b905091905056fea2646970667358221220ce24cd8aa56e98df0a5b0a0a59794d02627ec908010fe621375e13d417a77eb164736f6c634300080c0033",
  "immutableReferences": {},
  "source": "// SPDX-License-Identifier: MIT\npragma solidity ^0.8.4;\n\nimport \"@openzeppelin/contracts/utils/Counters.sol\";\nimport \"@openzeppelin/contracts/token/ERC1155/ERC1155.sol\";\nimport \"@openzeppelin/contracts/security/ReentrancyGuard.sol\";\n\ncontract marketPlaceBoilerPlate is ReentrancyGuard {\n    using Counters for Counters.Counter;\n    Counters.Counter private _itemIds;\n    Counters.Counter private _itemsSold;\n\n     address public owner;\n\n     constructor() {\n         owner = msg.sender;\n     }\n\n     struct MarketItem {\n         uint itemId;\n         address nftContract;\n         uint256 tokenId;\n         address payable seller;\n         address payable owner;\n         uint256 price;\n         bool sold;\n     }\n\n     mapping(uint256 => MarketItem) private idToMarketItem;\n\n     event MarketItemCreated (\n        uint indexed itemId,\n        address indexed nftContract,\n        uint256 indexed tokenId,\n        address seller,\n        address owner,\n        uint256 price,\n        bool sold\n     );\n\n     event MarketItemSold (\n         uint indexed itemId,\n         address owner\n         );\n\n\n\n    function createMarketItem(\n        address nftContract,\n        uint256 tokenId,\n        uint256 price\n        ) public payable nonReentrant {\n            require(price > 0, \"Price must be greater than 0\");\n\n            _itemIds.increment();\n            uint256 itemId = _itemIds.current();\n\n            idToMarketItem[itemId] =  MarketItem(\n                itemId,\n                nftContract,\n                tokenId,\n                payable(msg.sender),\n                payable(address(0)),\n                price,\n                false\n            );\n\n            IERC1155(nftContract).safeTransferFrom(msg.sender, address(this), tokenId, 1, \"0x0\");\n\n            emit MarketItemCreated(\n                itemId,\n                nftContract,\n                tokenId,\n                msg.sender,\n                address(0),\n                price,\n                false\n            );\n        }\n\n    function createMarketSale(\n        address nftContract,\n        uint256 itemId\n        ) public payable nonReentrant {\n            uint price = idToMarketItem[itemId].price;\n            uint tokenId = idToMarketItem[itemId].tokenId;\n            bool sold = idToMarketItem[itemId].sold;\n            require(msg.value == price, \"Please submit the asking price in order to complete the purchase\");\n            require(sold != true, \"This Sale has alredy finnished\");\n            emit MarketItemSold(\n                itemId,\n                msg.sender\n                );\n\n            idToMarketItem[itemId].seller.transfer(msg.value);\n            IERC1155(nftContract).safeTransferFrom(address(this), msg.sender, tokenId, 1, \"0x0\");\n            idToMarketItem[itemId].owner = payable(msg.sender);\n            _itemsSold.increment();\n            idToMarketItem[itemId].sold = true;\n        }\n\n    function fetchMarketItems() public view returns (MarketItem[] memory) {\n        uint itemCount = _itemIds.current();\n        uint unsoldItemCount = _itemIds.current() - _itemsSold.current();\n        uint currentIndex = 0;\n\n        MarketItem[] memory items = new MarketItem[](unsoldItemCount);\n        for (uint i = 0; i < itemCount; i++) {\n            if (idToMarketItem[i + 1].owner == address(0)) {\n                uint currentId = i + 1;\n                MarketItem storage currentItem = idToMarketItem[currentId];\n                items[currentIndex] = currentItem;\n                currentIndex += 1;\n            }\n        }\n        return items;\n    }\n\n}\n\n/// Thanks for inspiration: https://github.com/dabit3/polygon-ethereum-nextjs-marketplace/\n",
  "sourcePath": "C:\\Projects\\meta-dragons\\Truffle\\contracts\\marketplaceBoilerplate.sol",
  "compiler": {
    "name": "solc",
    "version": "0.8.12+commit.f00d7308.Emscripten.clang"
  },
  "schemaVersion": "3.4.5",
  "updatedAt": "2022-03-04T10:18:06.261Z",
  "devdoc": {
    "kind": "dev",
    "methods": {},
    "version": 1
  },
  "userdoc": {
    "kind": "user",
    "methods": {},
    "version": 1
  }
}